:020000040800F2
:1000000010240020A9010008512900083527000804
:100010004D29000837030008675C00080000000055
:100020000000000000000000000000004B3200084B
:100030007504000800000000DD2C00084D320008A7
:10004000C3010008C3010008C3010008C301000880
:10005000C3010008C3010008C3010008C301000870
:10006000C3010008C3010008C3010008C301000860
:100070002504000835040008C3010008C301000876
:10008000C3010008C3010008C3010008C301000840
:10009000C3010008C3010008C3010008C301000830
:1000A000C3010008C3010008C3010008C301000820
:1000B000C3010008C301000800000000C3010008DC
:1000C000C3010008C3010008C3010008C301000800
:1000D000C3010008C3010008C3010008C3010008F0
:1000E000C3010008C3010008000000000000000078
:1000F0000000000000000000000000000000000000
:1001000000000000C301000800000000C301000857
:10011000C301000800000000C30100080000000047
:10012000C3010008C3010008C3010008C30100089F
:10013000C3010008C3010008C3010008000000005B
:10014000C3010008C3010008C3010008B55B000833
:10015000C3010008C3010008C3010008C30100086F
:10016000C3010008C3010008C3010008000000002B
:1001700000000000C30100080000000000000000B3
:10018000C3010008C3010008C3010008C30100083F
:10019000C3010008DFF80CD000F090F800480047D9
:1001A000595D000810240020064880470648004793
:1001B000FEE7FEE7FEE7FEE7FEE7FEE7FEE7FEE717
:1001C000FEE7FEE70D330008950100082DE9F05F1A
:1001D0000546002092469B468846064681464024B6
:1001E0001BE0284641464746224600F056F8534653
:1001F0005A46C01A914110D311461846224600F0C3
:100200003DF82D1A67EB01084F46224601200021D8
:1002100000F034F817EB00094E41201EA4F1010450
:10022000DFDC484631462A46434600F000B830BC81
:10023000BDE8C09F40EA01039B0703D009E008C95D
:10024000121F08C0042AFAD203E011F8013B00F89B
:10025000013B521EF9D27047D2B201E000F8012BE7
:10026000491EFBD270470022F6E710B513460A4636
:1002700004461946FFF7F0FF204610BD202A04DB94
:10028000203A00FA02F1002070479140C2F12003A9
:1002900020FA03F3194390407047202A04DB203AE8
:1002A00021FA02F00021704721FA02F3D040C2F196
:1002B000200291400843194670470000064C074D44
:1002C00006E0E06840F0010394E807009847103426
:1002D000AC42F6D3FFF762FF106000083060000800
:1002E00070B58C1810F8015B15F0070301D110F8F8
:1002F000013B2A1106D110F8012B03E010F8016B25
:1003000001F8016B5B1EF9D12B0705D40023521EA7
:100310000DD401F8013BFAE710F8013BCB1A921C0F
:1003200003E013F8015B01F8015B521EF9D5A1420D
:10033000D8D3002070BD00BFFEE70346042B15D0C4
:1003400007DC7BB1012B0ED0022B0DD0032B12D179
:100350000BE0202B0BD0212B0AD0222B09D0232BF2
:1003600009D107E008E007E006E005E004E003E06B
:1003700002E001E000E000BF00BF00207047002065
:100380007047000010B500220449054803F049FCFD
:100390000449034803F03EFC002010BD7811002002
:1003A000B40400207809002070B504460D462146AB
:1003B000054803F02FFC044803F008FC2046296898
:1003C00000F022F8002070BDB40400202DE9F041B7
:1003D00004460D4600260B48D0F8B872D7F8140230
:1003E00010B10120BDE8F0812A462146054803F0FE
:1003F00018FC044803F099FC064600F011F830465A
:10040000F0E70000B404002070B504460D46AAB21F
:100410002146024805F09BFD70BD00001C03002032
:100420007047000010B5024800F040F810BD000011
:100430005402002010B5024800F038F810BD00004A
:100440000C02002030B590F8444004F01C05012453
:10045000AC40056C6C60046863608468102C04D147
:100460000468A2600468E16003E00468A1600468B5
:10047000E26030BD7047704770B50A480468001DDF
:100480000568001D0668344454B108220649204618
:1004900002F052F9042204491031284602F04CF9C6
:1004A00070BD00009075FF1F4E00002070B504461F
:1004B000206C05682068066894F8440000F01C0170
:1004C000042088402840E0B106F00400C8B120684C
:1004D000006800F0200028B92068006820F00400BF
:1004E0002168086094F8440000F01C010420884052
:1004F000216C4860206B002856D02046216B88472D
:1005000052E094F8440000F01C010220884028408A
:1005100018B306F0020000B32068006800F0200065
:1005200040B92068006820F00A00216808600120B6
:1005300084F8250094F8440000F01C010220884053
:10054000216C486000BF002084F8240000BFE06AEE
:1005500050B32046E16A884726E094F8440000F052
:100560001C01082088402840F0B106F00800D8B1EE
:100570002068006820F00E002168086094F84400AC
:1005800000F01C0101208840216C48600120E063DC
:1005900084F8250000BF002084F8240000BF606BB1
:1005A00010B12046616B884770BD000010B5014650
:1005B00009B9012010BD3E4B086898420BD23D4B53
:1005C0000868C01A1423B0FBF3F08000486439486F
:1005D000083808640AE0364B0868C01A1423B0FBD8
:1005E000F3F080004864324808380864022081F83B
:1005F00025000868026847F6F0708243D1E90203DB
:1006000018430B6918434B6918438B691843CB692E
:1006100018430B6A18430243086802608868B0F503
:10062000804F3AD0234B083B086C98421BD1D0F83E
:10063000A80091F8443003F01C040F23A340984312
:100640001C4BA033186091F8443003F01C03486839
:100650009840184B083BD3F8A8301843154B083B7B
:10066000C3F8A80019E01248A030006891F844309F
:1006700003F01C040F23A34098430D4BA0331860D4
:1006800091F8443003F01C0348689840084BA033AD
:100690001B681843064BA03318600020C863012074
:1006A00081F82500002081F8240000BF82E70000C7
:1006B00008040240080002402DE9F04104460D46BE
:1006C00016461F464FF0000800BF94F8240001288A
:1006D00002D10220BDE8F081012084F8240000BF8F
:1006E00094F8250001282CD1022084F82500002050
:1006F000E0632068006820F00100216808603B4644
:10070000324629462046FFF79DFE206B30B1206817
:10071000006840F00E00216808600BE02068006867
:1007200020F00400216808602068006840F00A009A
:10073000216808602068006840F0010021680860B6
:1007400006E000BF002084F8240000BF4FF002083C
:100750004046BFE770B5044600F0FAF80646254665
:10076000681C10B104480068054400BF00F0F0F8B0
:10077000801BA842FAD370BD8000002078B50346E4
:100780000022CBE0012696400D6805EA0604002C05
:1007900072D04D68022D02D04D68122D13D1D608AB
:1007A00003F1200555F826005507EE0E0F25B5403C
:1007B000A8435607F60E0D69B5402843D60803F145
:1007C000200545F82600186856000325B540A843C3
:1007D0000D7905F003055600B540284318604D68B3
:1007E000012D08D04D68022D05D04D68112D02D085
:1007F0004D68122D13D1986856000325B540A843C3
:100800005600CD68B540284398605868012595404A
:10081000A8430D79C5F30015954028435860D86862
:1008200056000325B540A84356008D68B5402843BF
:10083000D8604D6805F08055B5F1805F6DD100BF7F
:10084000394D2D6E45F00105374E356635462D6E16
:1008500005F00105009500BF00BF4FEAB6359608C8
:1008600055F8260095072E0F0F25B540A843B3F184
:10087000904F02D1002515E04FE02C4DAB4201D145
:1008800001250FE02A4DAB4201D102250AE0294D96
:10089000AB4201D1032505E0274DAB4201D1042530
:1008A00000E007259607360FB5402843234D9608EC
:1008B00045F82600224D2868A0434D6805F4803590
:1008C000B5F5803F00D120431D4D28602D1D2868BF
:1008D000A0434D6805F40035B5F5003F00D1204335
:1008E000174D2D1D28602D1D2868A0434D6805F467
:1008F0008015B5F5801F00D12043114D08352860C3
:100900002D1D2868A0434D6805F40015B5F5001F9E
:1009100000D120430A4D0C352860521C0D68D5408B
:10092000002D7FF42FAF78BD001002400004004876
:1009300000080048000C0048001000480800014072
:10094000000401400AB1816100E08162704700004B
:1009500001480068704700007800002003480068E4
:10096000034909680844014908607047780000207D
:100970008000002010B50024032000F0A9F800201A
:1009800000F008F808B1012401E000F02FF820463B
:1009900010BD000070B50446002511480068D8B1AC
:1009A0000F4800684FF47A71B1FBF0F00D49096807
:1009B000B1FBF0F6304601F02CFE58B9102C07D2EE
:1009C00000222146501E00F041F80748046004E070
:1009D000012502E0012500E00125284670BD000048
:1009E00080000020840000207C00002008B500BFAB
:1009F0000D48006E40F001000B4908660846006E85
:100A000000F00100009000BF00BF00BF0846806DED
:100A100040F0805088650846806D00F0805000905E
:100A200000BF00BF08BD000000100240014608469C
:100A3000002809DB00F01F0301229A4043099B00B4
:100A400003F1E023C3F8002100BF70472DE9F05FF8
:100A500080460D461646002705F010F90746394630
:100A60002A46334601F00700C0F1070ABAF1040F25
:100A700002D94FF0040A01E0C0F1070AD14600F1A3
:100A8000040ABAF1070F02D24FF0000A01E0A0F108
:100A9000030AD4464FF0010A0AFA09FAAAF1010A38
:100AA0000AEA020A0AFA0CFA4FF0010B0BFA0CFBE5
:100AB000ABF1010B0BEA030B4AEA0B04214640465B
:100AC00005F0E4F800F000B830BCBDE8C09F0000BD
:100AD00000BF00F00702064B19684FF6FF031940EC
:100AE000044B0B4343EA0221014B196000BF7047DE
:100AF0000CED00E00000FA05024611680120C2F882
:100B00006802002082F8600231F8540F40F00100C2
:100B10000880088840F0020021F85409002070473E
:100B200070B504460D4615B1012D1CD10EE0A0692B
:100B300038B102F08FFB0D48006820F006000B4929
:100B40000860D4F8700203F00BFE0CE0D4F87002D9
:100B500003F0BFFEA06928B10448006840F0060019
:100B60000249086000BF00BF70BD000010ED00E04A
:100B700070B505460C4604F08000802806D104F0CC
:100B8000070605F1280000EB461103E005F5947017
:100B900000EB44111AB900200873CB8004E0012057
:100BA00008730B81180C4881002070BD70B5044695
:100BB0000D4604F1280101EB45114A692946D4F894
:100BC000700203F003FC70BD70B504460D4604F5D9
:100BD000947101EB45114A692946D4F8700203F07B
:100BE00075FC70BD70B504460E4606F08000802886
:100BF00008D106F0070104F1280000EB411501209F
:100C0000687007E006F0070104F5947000EB4115E9
:100C10000020687006F00700287000BF94F82802D2
:100C2000012801D1022070BD012084F8280200BFF4
:100C30002946206804F08AFB00BF002084F82802BF
:100C400000BF00BFEFE770B504460E4606F00F0088
:100C50006168884201D9012070BD06F080008028BB
:100C600008D106F0070104F1280000EB411501202E
:100C7000687007E006F0070104F5947000EB411579
:100C8000002068700020A87006F00700287000BFE0
:100C900094F82802012801D10220DDE7012084F820
:100CA000280200BF2946206804F0BCFC00BF0020D9
:100CB00084F8280200BF00BFCEE7024601F0070318
:100CC00002F5947000EB4310C06970472DE9F047BE
:100CD00005460E4690461F464FF0000906F080007C
:100CE000802808D106F0070105F1280000EB411427
:100CF0000120607007E006F0070105F5947000EB35
:100D000041140020607006F007002070C4F81080C5
:100D1000E770607808B12078E081022F01D10020CF
:100D2000207100BF95F82802012802D10220BDE8F9
:100D3000F087012085F8280200BF2146286804F0CA
:100D4000B9F800BF002085F8280200BF4846EEE74A
:100D50002DE9F04105460E461746984606F0070174
:100D600005F5947000EB41146761C4F81880002009
:100D7000E061607006F00700207006F0070020B9FF
:100D80002146286804F0E9FC03E02146286804F0C5
:100D9000E4FC0020BDE8F08170B504460D4605F086
:100DA00007006168884201D9012070BD05F080000C
:100DB000802808D105F0070104F1280000EB411656
:100DC0000120707005E004F5947000EB45160020DA
:100DD00070700120B07005F00700307000BF94F80B
:100DE0002802012801D10220DFE7012084F828022F
:100DF00000BF3146206804F082FC05F0070020B9EE
:100E000004F50C71206804F00AFC00BF002084F88F
:100E1000280200BF00BFC8E72DE9F04105460E4695
:100E20001746984606F0070105F1280000EB41142B
:100E30006761C4F818800020E0610120607006F04E
:100E40000700207006F0070020B92146286804F04A
:100E500084FC03E02146286804F07FFC0020BDE804
:100E6000F08110B50446206804F0ACFE00F40040A8
:100E7000B0F5004F02D1204601F06BFD206804F070
:100E8000A1FE00F48060B0F5806F0FD12068B0F84B
:100E900044004FF6FF3108402168A1F84400204685
:100EA00000F0BAF90021204600F0E3F9206804F0D0
:100EB00089FE00F48040B0F5804F08D12068B0F87A
:100EC00044004BF6FF7108402168A1F844002068F7
:100ED00004F078FE00F40050B0F5005F08D12068FF
:100EE000B0F844004DF6FF7108402168A1F84400B5
:100EF000206804F067FE00F48050B0F5805F28D1D0
:100F00002068B0F840004FF6FB7108402168A1F856
:100F100040002068B0F840004FF6F77108402168A3
:100F2000A1F8400094F86002012806D1002084F85E
:100F3000600200212046FFF7F3FD204600F07EF915
:100F40002068B0F844004EF6FF7108402168A1F80F
:100F50004400206804F036FE00F40060B0F5006F35
:100F60001BD12068B0F8400040F008002168A1F8CB
:100F700040002068B0F844004FF2FF71084021683B
:100F8000A1F844002068B0F8400040F00400216857
:100F9000A1F84000204600F0ABF9206804F012FEF2
:100FA00000F0800080282ED12068B0F844004FF671
:100FB0007F7108402168A1F8440094F86002F8B9F4
:100FC0002068B0F8400040F004002168A1F840001B
:100FD0002068B0F8400040F008002168A1F8400007
:100FE000012084F860022068B0F8540000F0F0009E
:100FF0008008C4F8640201212046FFF791FD02E059
:10100000204600F075F9206804F0DCFD00F4007063
:10101000B0F5007F0BD12068B0F844004FF6FF51C7
:1010200008402168A1F84400204600F01BF9206820
:1010300004F0C8FD00F48070B0F5807F08D120680E
:10104000B0F844004FF6FF6108402168A1F8440061
:1010500010BD30B585B0044614B9012005B030BDCF
:1010600094F8290228B9002084F82802204600F0CC
:101070008DF8032084F82902206804F0C6FA1422AF
:1010800004F110016846FFF7D5F894E80F0004F06A
:1010900059F920B1022084F829020120DEE700215D
:1010A000206804F0B6FD002526E0012104F12800A7
:1010B00000EB4510417004F1280000EB451005706D
:1010C00004F1280000EB4510C581002104F128003F
:1010D00000EB4510C17004F1280000EB45100161E0
:1010E00004F1280000EB4510416104F1280000EBF9
:1010F00045108161681CC5B26068A842D5D800253A
:1011000020E0002104F5947000EB4510417004F5D7
:10111000947000EB4510057004F5947000EB4510D9
:10112000C17004F5947000EB4510016104F59470F2
:1011300000EB4510416104F5947000EB45108161AE
:10114000681CC5B26068A842DBD8142204F1100103
:101150006846FFF76FF894E80F0004F047FA20B1F3
:10116000022084F82902012078E7002084F8240076
:10117000012084F82902E069012802D12046FFF706
:10118000BBFC206804F029FA002067E710B586B0A0
:101190000446142101A8FFF766F81D49206888421B
:1011A00033D100BF1B48C06C40F001001949C8642E
:1011B0000846C06C00F00100009000BF00BF4FF473
:1011C000C050019002200290002003900320049060
:1011D0000A20059001A94FF09040FFF7CFFA00BF19
:1011E0000C48806D40F080600A4988650846806D33
:1011F00000F08060009000BF00BF00221146432035
:10120000FFF724FC4320FFF711FC06B010BD0000DF
:10121000006800400010024070B504460125A06837
:10122000022801D0FFF727F92946D4F8700203F00D
:10123000B3FAD4F8700203F065FA70BD10B5044635
:10124000A06938B10648006820F00600044908602B
:1012500002F000F8D4F8700203F082FA10BD00002A
:1012600010ED00E010B50446D4F8700203F083FAE4
:1012700010BD70B504460D4600BF94F82802012841
:1012800001D1022070BD012084F8280200BF84F83B
:1012900024502946206804F0BFFC00BF002084F8D9
:1012A000280200BF00BFEDE710B5044604F50C713D
:1012B000D4F8700203F096FA10BD10B5044600BFD2
:1012C00094F82802012801D1022010BD012084F8E1
:1012D000280200BF206804F077F9206804F05FFC62
:1012E00000BF002084F8280200BF00BFEDE7000027
:1012F00010B50446D4F8700203F0EBFAA06928B1E7
:101300000348006840F006000149086010BD000075
:1013100010ED00E00246B2F5007F2AD11D480068BA
:1013200000F4C060B0F5007F32D01A48006820F4A5
:10133000C06040F40070174B1860174800683223F3
:101340005843164BB0FBF3F0411C00E0491E114816
:10135000406900F48060B0F5806F01D10029F5D1BB
:101360000C48406900F48060B0F5806F10D1032014
:1013700070470848006800F4C060B0F5806F07D07F
:101380000448006820F4C06040F48060014B18609D
:101390000020EDE7007000408400002040420F0074
:1013A0000348406840F4806001494860704700008D
:1013B000007000400248006800F4C0607047000000
:1013C000007000402DE9F84304460025A846208817
:1013D00000F40060B0F5006F26D1E06C68B1B0F5A4
:1013E000000F03D0B0F5400F0ED10CE0F748C068F5
:1013F00040F48030F549C86008E00021201D01F06C
:101400006FFC054602E001E0012500BF00BF55B9B1
:10141000EE488830006820F44000E16C0843EB4956
:10142000C1F8880000E0A846206800F40030B0F55C
:10143000003F75D14FF00009E448806D012121EA99
:10144000107078B100BFE148806D40F08050DF49F6
:1014500088650846806D00F08050009000BF00BF96
:101460004FF00109DA48006840F48070D8490860FC
:10147000FFF76EFA074606E0FFF76AFAC01B02287C
:1014800001D9032505E0D248006800F480700028E7
:10149000F2D000BF7DBBCD489030006800F44076AC
:1014A000CEB1606EB04216D0C8489030006820F4CB
:1014B0004076C648D0F8900040F48030C349C1F867
:1014C00090000846D0F8900020F48030C1F89000D9
:1014D0000846C0F8906006F00100A8B1FFF738FA9E
:1014E000074609E0FFF734FAC01B41F28831884211
:1014F00002D9032507E016E0B4489030006800F0F8
:1015000002000028EED000BF5DB9B04890300068FE
:1015100020F44070616E0843AC49C1F8900003E0CC
:101520000CE0A84600E0A846B9F1010F05D1A74894
:10153000806D20F08050A549886500BF207800F0BC
:10154000010048B1A1488830006820F00300216AFA
:1015500008439E49C1F88800207800F00200022864
:1015600009D19A488830006820F00C00616A08436D
:101570009649C1F88800207800F00400042809D1B9
:1015800092488830006820F03000A16A08438F49F3
:10159000C1F88800207800F00800082809D18B489D
:1015A0008830006820F0C000E16A08438749C1F82C
:1015B0008800207800F02000202809D18348883056
:1015C000006820F44060216B08438049C1F888001E
:1015D000208800F40070B0F5007F09D17B48883086
:1015E000006820F44020616C08437849C1F8880005
:1015F000208800F48060B0F5806F09D1734888308E
:10160000006820F44010A16C08437049C1F88800BC
:10161000207800F04000402809D16C4888300068EC
:1016200020F44050616B08436849C1F88800207875
:1016300000F08000802809D164488830006820F4D8
:101640004040A16B08436149C1F88800208800F43C
:101650008070B0F5807F09D15C488830006820F444
:101660004030E16B08435949C1F88800206800F414
:101670008010B0F5801F09D154489C30006820F0DC
:101680000300216C08435149C1F89C00208800F4F4
:101690000050B0F5005F1FD14C488830006820F042
:1016A0004060216D0843494988310860206DB0F1E0
:1016B000006F06D14548C06840F480104349C860B7
:1016C0000AE0206DB0F1806F06D10121201D01F0EC
:1016D00007FB054605B1A846206800F40020B0F5D8
:1016E000002F1FD139488830006820F04060616DBC
:1016F0000843364988310860606DB0F1006F06D14B
:101700003248C06840F480103049C8600AE0606D1B
:10171000B0F1806F06D10121201D01F0E1FA0546EC
:1017200005B1A846206800F48020B0F5802F1FD1B5
:1017300026488830006820F04060A16D08432349A6
:1017400088310860A06DB0F1006F06D11F48C068F5
:1017500040F480101D49C8600AE0A06DB0F1806FB0
:1017600006D10121201D01F0BBFA054605B1A846AE
:10177000208800F48040B0F5804F14D113488830A1
:10178000006820F04050E16D08431049883108603E
:10179000E06DB0F1805F06D10221201D01F0A0FABA
:1017A000054605B1A846206800F48030B0F5803FBA
:1017B00009D106488830006820F00040216E0843B7
:1017C0000249C1F888004046BDE8F8830010024095
:1017D000007000402DE9F04104460D4614B9012087
:1017E000BDE8F0815548006800F00700A8420ED21D
:1017F0005248006820F00700284350490860084616
:10180000006800F00700A84201D00120E8E7207836
:1018100000F00100002840D06068032806D1484845
:10182000006800F00070D8B90120D9E7606802288C
:1018300006D14348006800F4003088B90120CFE7A2
:10184000606830B93E48006800F0020040B90120ED
:10185000C6E73B48006800F4806008B90120BFE794
:101860003748806820F00300616808433449886085
:10187000FFF76EF8064608E0FFF76AF8801B41F2B2
:101880008831884201D90320AAE72D48806800F0FA
:101890000C006168B0EB810FEED1207800F00200FF
:1018A000022807D12648806820F0F000A16808438C
:1018B000234988602148006800F00700A8420ED93B
:1018C0001E48006820F0070028431C4908600846AD
:1018D000006800F00700A84201D0012080E72078CE
:1018E00000F00400042807D11548806820F4E06067
:1018F000E168084312498860207800F00800082851
:1019000008D10F48806820F46050216940EAC10086
:101910000B49886000F046F809498968C1F3031152
:10192000084A515C01F01F01C84007490860074898
:101930000068FFF72FF80746384651E700200240BD
:1019400000100240C85F0008840000207C000020D6
:1019500001480068704700008400002000B5FFF7D0
:10196000F7FF05498968C1F30221044A515C01F07F
:101970001F01C84000BD000000100240D85F0008F1
:1019800000B5FFF7E5FF05498968C1F3C221044AA4
:10199000515C01F01F01C84000BD00000010024072
:1019A000D85F0008F0B500230020DFF8D4C0DCF8D1
:1019B00008C00CF00C01DFF8C8C0DCF80CC00CF05B
:1019C000030719B10C291ED1012F1CD1DFF8B0C0BB
:1019D000DCF800C00CF0080CBCF1000F06D1DFF8F9
:1019E000A0C0DCF894C0CCF3032305E0DFF890C07E
:1019F000DCF800C0CCF30313DFF888C05CF82330B8
:101A000041B9184606E0042901D11F4802E008291F
:101A100000D11E480C2932D1DFF864C0DCF80CC0BC
:101A20000CF00304012C09D0022C02D0032C04D1A9
:101A300001E0154A04E0154A02E000BF1A4600BF63
:101A400000BFDFF83CC0DCF80CC0CCF3021C0CF18A
:101A50000106DFF82CC0DCF80CC0CCF3062C0CFB24
:101A600002FCBCFBF6F2DFF818C0DCF80CC0CCF3CB
:101A7000416C0CF1010C4FEA4C05B2FBF5F0F0BDE6
:101A800000100240E05F00080024F400006CDC025B
:101A90002DE9F843044614B90120BDE8F883F9485C
:101AA000806800F00C06F748C06800F00307207853
:101AB00000F01000102877D11EB10C2E76D1012F26
:101AC00074D1F048006800F0020018B1A06908B9AC
:101AD0000120E2E7EB48216A006800F0080020B12D
:101AE000E848006800F0F00005E0E648943000683F
:101AF00000F47060000981421FD9206A01F0B4F936
:101B000008B10120C9E700BFDE48006840F00800C6
:101B1000DC4908600846006820F0F000216A0843AC
:101B2000D849086000BF0846406820F47F40E1695A
:101B300040EA0120D34948601FE000BFD148006857
:101B400040F00800CF4908600846006820F0F00027
:101B5000216A0843CB49086000BF0846406820F46A
:101B60007F40E16940EA0120C64948602EB9206AF9
:101B700001F07AF908B101208FE7FFF713FFC1499F
:101B80008968C1F30311C04A515C01F01F01C840CC
:101B9000BE490860BE480068FEF7FCFE8046B8F10A
:101BA000000F4ED0404678E74BE0FFE7A06980B3D6
:101BB000B448006840F00100B2490860FEF7C8FE72
:101BC000054606E0FEF7C4FE401B022801D90320AB
:101BD00063E7AC48006800F002000028F2D000BFC4
:101BE000A848006840F00800A64908600846006858
:101BF00020F0F000216A0843A249086000BF0846AF
:101C0000406820F47F40E16940EA01209D49486036
:101C100017E0FFE79B48006820F001009949086041
:101C2000FEF796FE054606E0FEF792FE401B0228F0
:101C300001D9032031E79348006800F00200002832
:101C4000F2D1207800F0010000285CD0082E03D0EB
:101C50000C2E0AD1032F08D18A48006800F4003006
:101C600088B3606878BB012017E700BF6068B0F5F3
:101C7000803F06D18348006840F480308149086085
:101C80001AE06068B0F5A02F0BD17E48006840F4E0
:101C900080207C4908600846006840F48030086075
:101CA0000AE07848006820F48030764908600846E9
:101CB000006820F48020086000BF606890B1FEF7E3
:101CC00047FE054607E01EE0FEF742FE401B642883
:101CD00001D90320E1E66B48006800F400300028D9
:101CE000F2D010E0FEF734FE054606E0FEF730FEC7
:101CF000401B642801D90320CFE66248006800F445
:101D000000300028F2D1207800F00200022852D1E1
:101D1000042E03D00C2E14D1022F12D15948006882
:101D200000F4806018B1E06808B90120B5E65548B4
:101D3000406820F0FE40217C40EA01605149486043
:101D400039E0E06800B34F48006840F480704D49C6
:101D50000860FEF7FDFD054606E0FEF7F9FD401BB5
:101D6000022801D9032098E64648006800F4806004
:101D70000028F2D04348406820F0FE40217C40EA31
:101D800001604049486016E03E48006820F48070D9
:101D90003C490860FEF7DCFD054606E0FEF7D8FD8D
:101DA000401B022801D9032077E63648006800F47A
:101DB00080600028F2D1207800F00800082836D191
:101DC0006069D0B12F489430006840F001002D497F
:101DD000C1F89400FEF7BCFD054606E0FEF7B8FD2D
:101DE000401B022801D9032057E62648943000689A
:101DF00000F002000028F1D019E022489430006879
:101E000020F001001F49C1F89400FEF7A1FD05462E
:101E100006E0FEF79DFD401B022801D903203CE6A9
:101E200018489430006800F002000028F1D12078B2
:101E300000F00400042872D14FF000091148806DB1
:101E400000F0805078B900BF0E48806D40F080509F
:101E50000C4988650846806D00F08050009000BFF6
:101E600000BF4FF001090B48006800F4807000BB10
:101E70000848006840F4807006490860FEF768FD75
:101E8000054610E000100240C85F000884000020F2
:101E90007C00002000700040FEF75AFD401B022825
:101EA00001D90320F9E5D048006800F480700028CB
:101EB000F2D000BFA068012808D1CC48006840F0EB
:101EC0000100CA499039C1F8900021E0A0680528B6
:101ED0000FD1C648006840F00400C4499039C1F8E9
:101EE00090000846D0F8900040F00100C1F8900042
:101EF0000EE0BE48006820F00100BC499039C1F8EE
:101F000090000846D0F8900020F00400C1F890003E
:101F100000BFA068A0B1FEF71BFD054609E02EE05A
:101F2000FEF716FD401B41F28831884201D903209B
:101F3000B3E5AE48006800F002000028F0D012E0DF
:101F4000FEF706FD054608E0FEF702FD401B41F2E4
:101F50008831884201D903209FE5A448006800F039
:101F600002000028F0D1B9F1010F07D19F48903845
:101F7000806D20F080509D499039886500BF2078A1
:101F800000F02000202838D1606AD8B19748083086
:101F9000006840F0010095499039C1F89800FEF7BB
:101FA000D7FC054606E0FEF7D3FC401B022801D90A
:101FB000032072E58D480830006800F00200002818
:101FC000F1D01AE089480830006820F00100874904
:101FD0009039C1F89800FEF7BBFC054606E0FEF715
:101FE000B7FC401B022801D9032056E57F48083082
:101FF000006800F002000028F1D1A06A00287DD01E
:10200000A06A02287BD179489038C76807F003019D
:10201000E06A814225D107F07001206B401EB1EBD0
:10202000001F1ED107F4FE41606BB1EB002F18D1E9
:1020300007F078413820005DB1EBC06F11D107F493
:10204000C001A08F0122C2EB5000B1EB405F08D16C
:1020500007F0C0614020005DC2EB5000B1EB406F63
:1020600066D00C2E62D061489038006800F0806025
:1020700008B1012011E55D489038006820F08070BB
:102080005A4990390860FEF763FC054606E0FEF702
:102090005FFC401B022801D90320FEE4534890381E
:1020A000006800F000700028F1D1D4E90B10401E48
:1020B00041EA0011606B41EA0021A08F0122C2EBCE
:1020C000500041EA40514020005DC2EB500041EA1F
:1020D00040613820005D41EAC06044499039C968D8
:1020E000434A1140084341499039C8600846006896
:1020F00040F0807008600846C06801E05BE03DE0A9
:1021000040F08070C860FEF723FC054606E0FEF74D
:102110001FFC401B022801D90320BEE4334890383D
:10212000006800F000700028F1D05AE00120B4E40B
:102130002E489038006800F00070E0BB2B489038C3
:10214000006840F080702949903908600846C068EE
:1021500040F08070C860FEF7FBFB054606E0FEF726
:10216000F7FB401B022801D9032096E41F48903852
:10217000006800F000700028F1D032E00C2E2ED064
:102180001A489038006820F080701849903908602B
:102190000846006800F0006020B90846C06820F0DA
:1021A0000300C86011489038C068124908400F49C0
:1021B0009039C86000E014E0FEF7CAFB054606E06F
:1021C000FEF7C6FB401B022801D9032065E407483F
:1021D0009038006800F000700028F1D101E0012083
:1021E0005BE4002059E400000070004090100240C1
:1021F0008C809D01FFFFEEFE704770B504460CB960
:10220000012070BD606A00B900BF0021A16294F88E
:102210005D0028B9002084F85C00204600F04EF8EC
:10222000022084F85D002068006820F040002168EA
:102230000860E068B0F5E06F01D9002501E04FF4D7
:102240008055E068B0F5706F05D0E068B0F5E06FDC
:1022500001D00021A162206B40B9E068B0F5E06FC9
:1022600002D90221216301E001212163D4E90101A6
:1022700008432169084361690843218B01F4007117
:102280000843E1690843216A0843A16A08432168B9
:1022900008600421A06901EA1040616A0843616B8B
:1022A0000843E1680843284321684860002020660D
:1022B000012084F85D000020A3E7000010B586B07F
:1022C0000446142101A8FDF7CEFF33492068884257
:1022D0005FD100BF3148006E40F480502F4908663E
:1022E0000846006E00F48050009000BF00BF00BFA1
:1022F0000846C06C40F00100C8640846C06C00F09D
:102300000100009000BF00BFE02001900220029079
:1023100000200390032004900520059001A94FF0B0
:102320009040FEF72BFA1E481E49086001204860C5
:1023300010211C4881600021C160802101610021C1
:1023400041618161C1610162FEF730F908B1FEF7B8
:1023500092F800BF13486065846200BF10481438CB
:10236000114908600120486000210F488160C16068
:1023700080210161002141618161C1610162FEF73B
:1023800015F908B1FEF777F800BF0748A065846229
:1023900000BF06B010BD0000003001400010024038
:1023A000300002400C0200205402002070477047A9
:1023B0002DE9F04704460E4617461D464FF0000A29
:1023C00000BF94F85C00012802D10220BDE8F0872C
:1023D000012084F85C0000BF94F85D80D4F804907C
:1023E000B8F1010F0AD0B9F5827F04D1A06810B905
:1023F000B8F1040F02D04FF0020ADFE00EB107B1CE
:1024000015B94FF0010AD9E094F85D00042802D014
:10241000052084F85D0000202066A663A587E58777
:102420002764A4F84450A4F84650E064206520686E
:10243000406820F4C04021684860E068B0F5E06F73
:1024400006D92068406820F48050216848604DE03B
:102450002068406840F4805021684860606D806961
:10246000B0F5806F19D194F83C0000F0010048B934
:102470002068406820F4804021684860E08F401068
:10248000E0870AE02068406840F4804021684860A6
:10249000E08F012101EB6000E087A06D8069B0F55D
:1024A000806F23D12068406820F480502168486004
:1024B000B4F8460000F0010058B92068406820F4E4
:1024C000005021684860B4F846004010A4F8460067
:1024D0000CE02068406840F4005021684860B4F87F
:1024E0004600012101EB6000A4F8460094F85D006D
:1024F000042806D13548A16D08633548A16DC8622E
:1025000005E03448A16D08633348A16DC8623348C3
:10251000A16D48630020A16D8863B4F84630D4F8FB
:1025200000C00CF10C01226CA06DFEF7C5F848B19B
:10253000206E40F0100020664FF0010A012084F860
:102540005D003BE02068406840F001002168486081
:102550000020616D0863616DC862616D4863616DE3
:102560008863E38FD4F800C00CF10C02A16B606D9E
:10257000FEF7A2F848B1206E40F0100020664FF040
:10258000010A012084F85D0018E02068006800F06E
:102590004000402805D02068006840F040002168D5
:1025A00008602068406840F020002168486020688A
:1025B000406840F002002168486000BF00BF002072
:1025C00084F85C0000BF504600E700002D2F000893
:1025D000492F00083B2F0008AB2F0008052F0008EB
:1025E00010B50446012007490870802206490748B3
:1025F00003F0ADFC012210214FF09040FEF7A2F94C
:1026000010BD000007000020340400202803002033
:10261000704770B504462546681EB0F1807F01D32F
:1026200001200FE0681E4FF0E02148610F214FF0BC
:10263000FF3003F02BFB00204FF0E02188610720E2
:102640000861002070BD10B504460CB9012010BD12
:10265000A06900B100E000BF606F28B9002084F8D5
:102660007000204600F02AF8242060672068006887
:1026700020F0010021680860204600F023FF0128B7
:1026800000D1E4E7606A10B1204600F067FE2068E0
:10269000406820F49040216848602068806820F0FD
:1026A0002A00216888602068006840F001002168E5
:1026B0000860204600F0CEFEC9E7000010B586B0E5
:1026C0000446142101A8FDF7CEFD17492068884271
:1026D00028D100BF1548006E40F4804013490866B9
:1026E0000846006E00F48040009000BF00BF00BFAD
:1026F0000846C06C40F00200C8640846C06C00F098
:102700000200009000BF00BFC02001900220029094
:1027100000200390032004900720059001A904489D
:10272000FEF72CF806B010BD003801400010024042
:102730000004004800BFFEE730B50B46002100BF93
:1027400016E00A24B4EB107F05D9302404EB107492
:1027500003F8114005E0412404EB10740A3C03F82F
:102760001140000100254C00641C1D554C1CE1B2B9
:102770009142E6DB30BD000008B500BF0E48806C1A
:1027800040F001000C4988640846806C00F00100AC
:10279000009000BF00BF002211460C20FEF756F942
:1027A0000C20FEF743F9002211460D20FEF74EF9EA
:1027B0000D20FEF73BF908BD0010024000B587B0C0
:1027C000142102A8FDF74FFD00BF2748C06C40F060
:1027D00080002549C8640846C06C00F08000019064
:1027E00000BF00BF00BF0846C06C40F00100C864D5
:1027F0000846C06C00F00100019000BF00BF00BFA0
:102800000846C06C40F00200C8640846C06C00F086
:102810000200019000BF00BF00224FF4C2614FF0E0
:102820009040FEF78FF800224FF400710F48FEF73A
:1028300089F84FF4C26002900120039000200490B8
:10284000059002A94FF09040FDF798FF4FF40070FB
:1028500002900120039000200490059002A90348F3
:10286000FDF78CFF07B000BD0010024000040048D7
:1028700010B51148114908604FF48270486000217A
:102880000E4881604FF4E061C160022101610121C5
:102890004161490281613821C161002101624162C7
:1028A00081620721C162002101634163FFF7A5FC3A
:1028B00008B1FDF7E0FD10BD00300140A801002087
:1028C00010B50D480D4908604FF4E1304860002113
:1028D0000A488160C16001610C2141610021816170
:1028E000C16101620020054948620846FFF7ABFE5E
:1028F00008B1FDF7C0FD10BD003801409C0200206A
:1029000010B500220D490E4801F0E8FC08B1FDF7B2
:10291000B2FD0C490A4802F02BF808B1FDF7ABFDF7
:102920000949074801F06FF908B1FDF7A4FD044813
:1029300002F006F908B1FDF79EFD10BD0800002069
:10294000B4040020980000206800002000BFFEE7CB
:1029500070472DE9F0470546B6E12868B0F8449085
:1029600009F00F06002E7ED109F01000A8BB00BFB1
:102970002968098848F60F7201EA020040F4004114
:102980002A68118000BF05F128042868B0F85010AB
:10299000207801EBC000801C296801F58061405A55
:1029A000C0F30900E061E1696069084460610021E9
:1029B0002846FEF7FBF895F824000028CCD0A06943
:1029C0000028C9D195F8240040F080002968A1F8BA
:1029D0004C00002085F8240076E1FFE705F59474AB
:1029E0002868B0F8008008F4006028B32868B0F8C0
:1029F0005010207801EBC000801D296801F580612E
:102A0000405AC0F30900E061A18B8BB2E28805F562
:102A10000C71286803F0DAF800BF2968098840F6CD
:102A20008F7201EA020040F080012A68118000BF25
:102A30002846FEF739FC47E108F4004000288BD017
:102A400000BF2968098840F68F7201EA020040F051
:102A500080012A68118000BF2868B0F850102078E3
:102A600001EBC00000E066E0801D296801F580618F
:102A7000405AC0F30900E061E06990B1606980B13B
:102A8000B4F81CC01FFA8CF3E2886169286803F06F
:102A90009DF8E16960690844606100212846FEF7FD
:102AA00093F800BF2A682968B1F850100A4402F26E
:102AB0000641084600BF236953B9038848F2FF3C2A
:102AC00003EA0C030380038843F4004303801EE001
:102AD00023693E2B0DD800BF23695908237C03F0DE
:102AE000010303B1491C4FF6FF7303EA81230380FE
:102AF0000DE000BF23695909237C03F01F0303B9CC
:102B0000491E4FF4004343EA8123038000BF00BF06
:102B100000BF00BF296809884BF68F7201EA0200E6
:102B200080F4805080F4005040F4004141F0800176
:102B30002A681180C8E07100286830F8118008F414
:102B4000004000287DD000BF7200296831F81210C3
:102B500040F68F7201EA020040F0800173002A689B
:102B600022F8131000BF05F5947000EB4614207B8B
:102B7000A8B92868B0F85010207801EBC000801D7B
:102B8000296801F58061405AC0F30907002F4DD034
:102B9000E28861693B46286803F018F846E000BF08
:102BA00000BF22785200296831F8121048F68F725F
:102BB00001EA020040F4004141F0C00123785B00CB
:102BC0002A6822F8131000BF00BF21784900286846
:102BD00030F8110000F48040A0B12868B0F850101F
:102BE000207801EBC000801C296801F58061405A03
:102BF000C0F30907D7B1228961693B46286802F012
:102C0000E5FF13E02868B0F85010207801EBC00011
:102C1000801D296801F58061405AC0F309072FB172
:102C2000628961693B46286802F0D0FFE069384458
:102C3000E061606938446061A06920B12069B842F0
:102C400000E00BE004D921782846FDF7BDFF05E040
:102C500021782846D4E90523FEF77AF808F08000A9
:102C600058B305F1280000EB461400BF7200296834
:102C700031F8121048F60F7201EA020040F40041E8
:102C800073002A6822F8131000BF2868B0F85010AB
:102C9000207801EBC000801C296801F58061405A52
:102CA000C0F30900E061E169606908446061A069FE
:102CB00020B921782846FDF779FF05E021782846DC
:102CC000D4E90523FEF7A8F82868B0F8440000F41A
:102CD000004000287FF441AEBDE8F0877047000057
:102CE0002DE9F04104460F4600255B48C06800F01E
:102CF000030090B15848C06800F003002168884282
:102D000009D1206838B15448C068C0F30210401C93
:102D10006168884233D0012531E02068012804D061
:102D2000022809D003281AD10DE04B48006800F0B2
:102D3000020000B9012514E04748006800F48060F3
:102D400000B901250DE04448006800F4003028B9BE
:102D50004148006800F4802000B9012501E0012508
:102D600000BF00BF5DB9D4E90010401E41EA001069
:102D70003949C96821F0730108433749C860002DFB
:102D800067D13548006820F0806033490860FDF75E
:102D9000DFFD064606E0FDF7DBFD801B022801D9BA
:102DA000032505E02C48006800F000600028F2D1FF
:102DB00000BFC5BB67B9A0680002217B40EAC160C3
:102DC00025490969254A114008432349086120E043
:102DD000012F0FD1A0680002218A0122C2EB51010C
:102DE00040EA41501C4909691D4A114008431A49EB
:102DF00008610EE0A0680002217D0122C2EB5101B2
:102E000040EA416014490969164A114008431249D1
:102E100008611148006840F080600F490860FDF7C4
:102E200097FD064607E014E0FDF792FD801B02289F
:102E300001D9032505E00848006800F0006000287B
:102E4000F2D000BF2DB904480069A16908430249C6
:102E500008612846BDE8F08100100240FF80FF07AE
:102E6000FF809FFFFF80FFF9F8B504460026234846
:102E7000806D00F0805018B1FEF79CFA054616E010
:102E800000BF1E48806D40F080501C498865084690
:102E9000806D00F08050009000BF00BFFEF78AFAFE
:102EA00005461648806D20F0805014498865B5F5B8
:102EB000007F07D1802C10D9A02C01D902260CE06C
:102EC00001260AE0802C01D9032606E0802C01D1DE
:102ED000022602E0702C00D101260948006820F08B
:102EE00007003043064908600846006800F0070004
:102EF000B04201D00120F8BD0020FCE700100240E4
:102F00000020024070B50546AC6A2068406820F099
:102F1000030021684860206E40F010002066012008
:102F200084F85D002046FFF767F970BD70B5044670
:102F3000A56A2846FFF73BFA70BD70B50446A56A3E
:102F40002846FFF765FB70BD70B50546AC6AFDF716
:102F5000FFFC06462868006800F0200020281FD0EB
:102F60002068406820F020002168486020684068A0
:102F700020F003002168486032466421204600F0BA
:102F800048F808B1202020660020A4F8460001205F
:102F900084F85D00206E18B12046FFF72DF970BD52
:102FA0002046FFF703FA00BFF9E770B50546AC6AA3
:102FB000FDF7CEFC06462868006800F020002028B7
:102FC00022D02068406820F0200021684860324606
:102FD0006421204600F05EF818B1206E40F0200019
:102FE00020662068406820F00300216848600020C7
:102FF000E087A4F84600012084F85D00206E18B137
:103000002046FFF7F9F870BD2046FFF7E9FA00BF48
:10301000F9E7F8B504460E4615466068B0F5827FBC
:103020000DD1A068B0F5004F03D0A068B0F5806F57
:1030300005D12068006820F0400021680860334610
:10304000002280212046009500F0ABF828B1206EC8
:1030500040F0200020660320F8BD6068B0F5827F54
:1030600016D1A068B0F5004F03D0A068B0F5806F0E
:103070000ED1334600224FF4C0612046009500F087
:103080003BF828B1206E40F0200020660320E3E7E3
:103090000020E1E7F8B504460E4615463346002207
:1030A0004FF4C0512046009500F026F828B1206E5C
:1030B00040F0200020660320F8BD33460022802126
:1030C0002046009500F06DF828B1206E40F02000F9
:1030D00020660320F0E7334600224FF4C06120460B
:1030E000009500F009F828B1206E40F0200020661D
:1030F0000320E1E70020DFE72DE9F04104460E461A
:1031000017461D46DDF8188044E0B6F5C06F02D1C1
:103110000FB92068007B681CD8B3FDF719FCA0EB41
:103120000800A84200D2A5BB2068406820F0E0005B
:10313000216848606068B0F5827F0DD1A068B0F565
:10314000004F03D0A068B0F5806F05D120680068FB
:1031500020F0400021680860A06AB0F5005F0DD142
:1031600000BF2068006820F40050216808602068D3
:10317000006840F400502168086000BF012084F816
:103180005D0000BF002084F85C0000BF0320BDE8A4
:10319000F081FFE7206880683040B842B5D1002058
:1031A000F5E72DE9F04104460E4617461D46DDF8C9
:1031B00018803EE0681CD8B3FDF7CAFBA0EB0800FE
:1031C000A84200D2A5BB2068406820F0E00021683A
:1031D00048606068B0F5827F0DD1A068B0F5004FFF
:1031E00003D0A068B0F5806F05D12068006820F09A
:1031F000400021680860A06AB0F5005F0DD100BFF3
:103200002068006820F40050216808602068006889
:1032100040F400502168086000BF012084F85D0080
:1032200000BF002084F85C0000BF0320BDE8F081EF
:10323000FFE7206880683040B04201D1012000E003
:103240000020B842B6D10020F0E7704710B5FDF776
:1032500085FB10BD10B500F001F810BD00B5B1B090
:10326000442120A8FCF7FFFF14211BA8FCF7FBFF5B
:10327000682101A8FCF7F7FF0120209000042190AD
:1032800002202A90032120A8C16201630A21416320
:10329000072181630221C1630164FEF7F9FB08B1D4
:1032A000FDF7E9F80F201B9003201C9000201D90D3
:1032B0001E901F9004211BA8FEF78CFA08B1FDF7A1
:1032C000DAF842F201000190002009904FF080608E
:1032D000159003200290032103910C2104910721F2
:1032E00005910421069102210791C904089101A8C2
:1032F000FEF768F808B1FDF7BEF84FF40070FEF76E
:1033000009F808B1FDF7B7F831B000BD1048006802
:1033100040F470000E4908600E48006840F001005B
:103320000C49086000208860084600680A49084087
:10333000084908608814C8600846006820F48020A6
:10334000086000208861C80301498039086070471F
:1033500088ED00E000100240FFFFF6EA90F824102C
:1033600001F0010139B10168496821F40031826A34
:1033700011430268516090F8241001F00201022903
:1033800007D10168496821F48031C26A114302689B
:10339000516090F8241001F00401042907D101685C
:1033A000496821F48021026B11430268516090F852
:1033B000241001F00801082907D10168496821F4A7
:1033C0000041426B11430268516090F8241001F0F3
:1033D0001001102907D10168896821F48051826B9E
:1033E00011430268916090F8241001F02001202917
:1033F00007D10168896821F40051C26B114302684A
:10340000916090F8241001F04001402913D1016827
:10341000496821F48011026C114302685160016C0B
:10342000B1F5801F07D10168496821F4C001426CE1
:1034300011430268516090F8241001F08001802946
:1034400007D10168496821F40021826C11430268A8
:103450005160704738B504460020E067FDF778FA00
:1034600005462068006800F0080008280CD16FF0BD
:103470007E402B4600224FF400110090204600F0C1
:103480003AFA08B1032038BD2068006800F0040053
:1034900004280CD16FF07E402B4600224FF48001AF
:1034A0000090204600F027FA08B10320EBE7202027
:1034B0006067A06700BF002084F8700000BF00BFF5
:1034C000E1E700002DE9F84F0446002700200090B6
:1034D0008146F9492068884200D100E000BF216997
:1034E000A068084361690843E16940EA010820686F
:1034F0000068F249084040EA080021680860206836
:10350000406820F44050E168084321684860D4F8DE
:103510001880E9492068884202D0206A40EA0808F9
:103520002068806820F4306040EA080021688860E4
:1035300000BFE3492068884216D1E248006800F0E5
:10354000030030B1012808D0022804D0032808D194
:1035500005E0012507E0022505E0042503E0082534
:1035600001E0102500BF6FE0D7492068884216D1DE
:10357000D448006800F00C0030B1042808D00828B6
:1035800004D00C2808D105E0002507E0022505E05D
:10359000042503E0082501E0102500BF54E0CB49D5
:1035A0002068884216D1C748006800F0300030B16A
:1035B000102808D0202804D0302808D105E00025A4
:1035C00007E0022505E0042503E0082501E01025B9
:1035D00000BF39E0BE492068884216D1B94800686A
:1035E00000F0C00030B1402808D0802804D0C028A6
:1035F00008D105E0002507E0022505E0042503E0E9
:10360000082501E0102500BF1EE0AB492068884274
:1036100019D1AC48006800F4406048B1B0F5806F43
:103620000AD0B0F5006F05D0B0F5406F08D105E0C5
:10363000002507E0022505E0042503E0082501E058
:10364000102500BF00E0102500BF9B49206888427C
:103650007ED135B1022D08D0042D09D0082D0ED110
:103660000AE0FEF77BF981460CE0DFF8689209E09A
:10367000FEF798F9814605E04FF4004902E0012089
:10368000009000BF00BFB9F1000F0AD0606800EBE6
:103690004000484503D860680003484502D2012035
:1036A00000901FE135B1022D1AD0042D2AD0082D2B
:1036B00053D13DE0FEF752F906464FF48070A6FB69
:1036C0000031D4F804E04FEA5E0013EB000B41F147
:1036D0000001724600235846FCF778FD07463FE09C
:1036E000D4F804E04FEA5E0000217B4B10EB030BA3
:1036F00041EB010C72460B4658466146FCF766FDED
:1037000007462DE0FEF74EF906464FF48070A6FB03
:103710000031D4F804E04FEA5E0013EB000B41F1F6
:103720000001724600235846FCF750FD074617E09B
:10373000D4F804E04FEA5E0000214FF4000310EBE0
:10374000030B41EB010C72460B465846614600E004
:1037500013E0FCF73BFD074602E00120009000BFAC
:1037600000BFB7F5407F05D3B7F5801F02D22068B0
:10377000C760B7E001200090B4E0E069B0F5004F09
:1037800054D1092D3AD2DFE805F005101B39243950
:1037900039392F00FEF7E2F806467000616800EB49
:1037A0005100B0FBF1F087B22BE0FEF7E9F80646D6
:1037B0007000616800EB5100B0FBF1F087B220E0CF
:1037C0004649606801EB50006168B0FBF1F087B2D8
:1037D00017E0FEF7E7F806467000616800EB51005D
:1037E000B0FBF1F087B20CE04FF48031606801EB80
:1037F00050006168B0FBF1F087B202E00120009058
:1038000000BF00BF102F0ED3B7F5803F0BD24FF68D
:10381000F07007EA000AC7F342004AEA000A20688B
:10382000C0F80CA05EE0012000905BE0092D37D2CB
:10383000DFE805F0050F1936223636362C00FEF784
:103840008DF80646616806EB5100B0FBF1F087B2D7
:1038500029E0FEF795F80646616806EB5100B0FBDB
:10386000F1F087B21FE01B49606801EB500061680E
:10387000B0FBF1F087B216E0FEF794F806466168F7
:1038800006EB5100B0FBF1F087B20CE04FF40041C1
:10389000606801EB50006168B0FBF1F087B202E0B4
:1038A0000120009000BF00BF102F19D3B7F5803F53
:1038B00016D22068C76015E000800040F369FFEF72
:1038C0000038014088100240004400400048004099
:1038D000004C00400024F400000024F40048E801FB
:1038E00001200090002020666066009800F000B87B
:1038F00018BCBDE8E08F2DE9F04104460D4617469F
:103900009846069E45E0701C002842D0FDF720F83E
:10391000A0EB0800B04200D8B6B92068006820F4D7
:10392000D070216808602068806820F0010021685C
:10393000886020206067A06700BF002084F87000C6
:1039400000BF0320BDE8F0812068006800F004009B
:10395000F8B12068C069C0F3C020D0B14FF4006056
:10396000216808622068006820F4D070216808602F
:103970002068806820F0010021688860202060674E
:10398000A067E06700BF002084F8700000BF03203C
:10399000D8E72068C0692840A84201D1012000E092
:1039A0000020B842AFD00020CCE72DE9F04104461A
:1039B0000D46D4F8B862D4F8C072D4F8B80268B32F
:1039C00005EB850104F1140000EB81008068F8B17B
:1039D00005EB850104F1140000EB8100816807F11B
:1039E000280000EB45100069B1FBF0F200FB12105B
:1039F00070B9002105EB850204F1140000EB820090
:103A0000816000231A462946204600F06CFF02E040
:103A10000020C6F814020020BDE8F0810220FBE778
:103A200070B504460E46D4F8B8523146204600F030
:103A3000A0FDC5F80C02D4F8B80248B1D5F80402CC
:103A4000D4F8BC12CA6805F503719047002070BD18
:103A50000220FCE770B504460E4600258121204671
:103A600000F092FC0021E1620121204600F08CFC74
:103A70000021C4F86C118221204600F085FC002151
:103A80002164D4F8B80250B1D4F8BC124868804719
:103A9000D4F8B80201F007FA0020C4F8B8022846AA
:103AA00070BD70B50546D5F8B842D5F8BC0278B1FE
:103AB00094F80002FF280BD094F8012294F8000239
:103AC000D5F8BC128B6821469847FF2084F8000285
:103AD000002070BD01460A200880014870470000A0
:103AE0008C000020014643200880014870470000F8
:103AF000140100200146432008800148704700005F
:103B0000D000002001464320088001487047000093
:103B1000580100202DE9F04104460F460026207C84
:103B200088B94FF4007302228121204600F088FDFD
:103B30000121E1624B020222204600F081FD0121B9
:103B4000C4F86C110FE0402302228121204600F0CE
:103B500077FD0121E16240230222204600F070FD42
:103B60000121C4F86C11082303228221204600F0B1
:103B700067FD012121644FF4077001F095F9C4F845
:103B8000B802D4F8B80208B901261CE0D4F8B8523B
:103B9000D4F8BC12086880470020C5F81402C5F8A4
:103BA0001802207C40B94FF4007301212046D5F85B
:103BB000042200F076FD06E0402301212046D5F8DE
:103BC000042200F06EFD3046BDE8F08170B5044679
:103BD000D4F8B852D4F8B80298B1207C40B94FF468
:103BE000007301212046D5F8042200F05AFD06E0BA
:103BF000402301212046D5F8042200F052FD002088
:103C000070BD0220FCE70246022011B1C2F8BC12CE
:103C1000002070470246D2F8B832C3F804120020E0
:103C2000704710B50346D3F8B842C4F80812C4F878
:103C30001022002010BD2DE9FC4105460C46D5F8A8
:103C4000B8620020019000900027207800F060000A
:103C500040B320285FD1E088E0B1207800F08000F8
:103C600060B1E2886078D5F8BC128B68314698471D
:103C7000E2883146284600F0E6F812E0607886F8DF
:103C80000002A07986F80102E2883146284600F059
:103C9000B9F806E06078D5F8BC1200228B6821469E
:103CA00098473EE0607820B10A2812D00B282AD12C
:103CB0001FE095F89C02032805D102226946284698
:103CC00000F0C1F804E02146284600F08FF80227F2
:103CD0001FE095F89C02032805D1012201A928467E
:103CE00000F0B1F804E02146284600F07FF80227F2
:103CF0000FE095F89C02032804D02146284600F0E6
:103D000075F8022705E02146284600F06FF80227E3
:103D100000BF00BF05E02146284600F067F80227F3
:103D200000BF00BF3846BDE8FC8170B50546D5F838
:103D3000B842D5F8B802A8B1D4F8140280B901206D
:103D4000C4F81402D4F810122963B4F8100283B234
:103D500081212846D4F8082200F0C5FD002070BD5E
:103D60000120FCE70220FAE770B504460D46D4F8BE
:103D7000B4022946426820469047002070BD70B5C5
:103D800004460D4694F89C02012804D0022803D072
:103D900003280CD101E000BF00BF6888012805D1CD
:103DA0000020C4F8A402204600F05EF804E0294692
:103DB000204600F01BF800BF00BF70BD70B506467E
:103DC0000C4615462B4622460021304600F069FC81
:103DD000002070BD70B506460C4615462B4622469F
:103DE0000021304600F07FFD002070BD70B5044614
:103DF0000D468021204600F02CFD0021204600F0D9
:103E000028FD70BD70B504460E4615460320C4F863
:103E100094024FF4AE700551001D05512B463246F9
:103E20000021204600F03DFC002070BD10B5044686
:103E30000520C4F8940200231A461946204600F0D3
:103E400030FC002010BD70B504460E461546022019
:103E5000C4F89402E56125622B46324600212046D3
:103E600000F041FD002070BD10B504460420C4F8E8
:103E7000940200231A461946204600F034FD002023
:103E800010BD000070B505460C462DB92246064906
:103E900006A000F0FAF904E02246034903A000F06E
:103EA000F4F9014870BD0000780700204344432026
:103EB000436F6E6669670000024612200880014861
:103EC000704700002800002070B505460C462DB94B
:103ED0002246064906A000F0D8F904E0224603492C
:103EE00003A000F0D2F9014870BD0000780700205F
:103EF00043444320496E7465726661636500000047
:103F00000246042008800148704700004800002055
:103F100070B505460C462246024903A000F0B5F9EB
:103F2000004870BD78070020426C75654272696474
:103F30006765000070B505460C462DB92246064956
:103F400006A000F0A2F904E02246034903A000F015
:103F50009CF9014870BD00007807002053544D3390
:103F600032205669727475616C20436F6D506F72A8
:103F70007400000070B505460C461A202080FCF73E
:103F80007BFA014870BD00004C00002002460C2066
:103F900008800148704700003C00002070B50446CE
:103FA0000D46E888012804D029462046FFF71EFF69
:103FB0001EE094F89C02012804D0022803D00328B4
:103FC00010D109E000BF0020A060012204F1080127
:103FD0002046FFF738FF0AE00122211D2046FFF7A7
:103FE00032FF04E029462046FFF700FF00BF00BF74
:103FF00070BDF8B504460E4600200090002700254D
:1040000070880012062874D006DC01281BD0022814
:1040100021D003286ED132E007286CD00F28F9D1C7
:10402000D4F8B002C06938B1207CD4F8B012CA69A3
:1040300069469047074605E031462046FFF7D6FE21
:10404000681CC5B2CBE0207CD4F8B0120A6869467F
:1040500090470746C3E0207C40B9D4F8B402816A97
:104060006846884707460220787007E0D4F8B40213
:10407000C16A68468847074602207870AFE0B0788A
:1040800006287AD2DFE800F00316293F5265D4F8FB
:10409000B002406838B1207CD4F8B0124A68694652
:1040A0009047074605E031462046FFF79FFE681C13
:1040B000C5B269E0D4F8B002806838B1207CD4F889
:1040C000B0128A6869469047074605E031462046A7
:1040D000FFF78CFE681CC5B256E0D4F8B002C06889
:1040E00050B1207CD4F8B012CA68694690470746A0
:1040F00008E04BE06CE059E031462046FFF776FEE1
:10410000681CC5B240E0D4F8B002006938B1207C28
:10411000D4F8B0120A6969469047074605E031466F
:104120002046FFF763FE681CC5B22DE0D4F8B0024C
:10413000406938B1207CD4F8B0124A69694690478A
:10414000074605E031462046FFF750FE681CC5B221
:104150001AE0D4F8B002806940B1207CD4F8B012E3
:104160008A6969469047074606E006E031462046E0
:10417000FFF73CFE681CC5B206E031462046FFF75B
:1041800035FE681CC5B200BF00BF28E0207C30B9F6
:10419000D4F8B402416B68468847074605E03146CB
:1041A0002046FFF723FE681CC5B218E0207C40B90A
:1041B000D4F8B402016B6846884707460720787038
:1041C00005E031462046FFF711FE681CC5B206E047
:1041D00031462046FFF70AFE681CC5B200BF00BF8B
:1041E00005B1F8BDBDF8000088B1F08878B1F0885D
:1041F000BDF80010884202DDBDF8000000E0F08844
:104200000090BDF8002039462046FFF71CFEF088DC
:1042100010B92046FFF728FE00BFE2E70146002064
:1042200002E0421CD0B2491C0A78002AF9D170473A
:1042300070B504460D4694F89C02012804D002286B
:1042400003D003281AD101E000BF00BFE88802288C
:1042500004D029462046FFF7C9FD14E00120E060A4
:10426000D4F8A40218B1E06840F00200E060022235
:1042700004F10C012046FFF7E6FD04E02946204644
:10428000FFF7B4FD00BF00BF70BD2DE9F04104464B
:104290000D4617460026FCB12046FFF7BFFF02215E
:1042A00001EB400038803A783046711CCEB22A5477
:1042B00003223046711CCEB22A540AE014F8012BB6
:1042C0003046711CCEB22A5400223046711CCEB248
:1042D0002A5420780028F1D1BDE8F08170B5044659
:1042E0000D46164654B90EA001F0C0FC0EA001F018
:1042F000BDFC13A001F0BAFC022070BDD4F8B402DA
:1043000010B10020C4F8B4020DB1C4F8B0520120BD
:1043100084F89C022670204600F034F90020ECE777
:104320004552524F523A2000496E76616C696420C2
:104330004465766963652068616E646C65000000A1
:104340000A0000002DE9F04104460D460026002732
:104350002946D4F8C002FCF776FC064636B1012E99
:1043600006D0022E06D0032E08D105E0002707E074
:10437000022705E0012703E0022701E0022700BF32
:1043800000BF3846BDE8F0812DE9F04104460D46F6
:10439000002600272946D4F8C002FCF723FC064675
:1043A00036B1012E06D0022E06D0032E08D105E02C
:1043B000002707E0022705E0012703E0022701E0CC
:1043C000022700BF00BF3846BDE8F0812DE9F0416B
:1043D00004460E461746002E64D104F11405D4F8A5
:1043E0009402022848D1D5E90301884210D9D5E9C1
:1043F0000301401AE860A88982B239462046FFF7D7
:10440000E9FC00231A461946204600F04AF93EE02E
:104410002969A868B0FBF1F201FB1200B8B929695B
:10442000A868884213D3A868D4F8981288420ED29C
:10443000002211462046FFF7CDFC0020C4F8980268
:1044400000231A461946204600F02BF91FE0D4F845
:10445000B402C06840B194F89C02032804D1D4F897
:10446000B402C168204688478021204600F0F1F957
:104470002046FFF7DBFC0AE0D4F89402042802D0BF
:10448000D4F8940218B98021204600F0E2F994F89B
:10449000A002012818D1204600F090FA002084F8EC
:1044A000A00211E0D4F8B402406950B194F89C0223
:1044B000032806D1D4F8B402314642692046904719
:1044C00002E00220BDE8F0810020FBE72DE9F04189
:1044D00004460E461746BEBB04F5AA75D4F89402EE
:1044E000032825D1D5E90301884210D9D5E9030174
:1044F000401AE860D5E90301884201D2E86800E08B
:10450000286982B239462046FFF758FC2FE0D4F8DC
:10451000B402006940B194F89C02032804D1D4F895
:10452000B4020169204688472046FFF79DFC1EE043
:10453000D4F8940205281AD10020C4F8940200216E
:10454000204600F086F912E0FFE7D4F8B402806953
:1045500050B194F89C02032806D1D4F8B402314635
:1045600082692046904702E00220BDE8F0810020E9
:10457000FBE770B504460D462946D4F8C002FCF7A7
:104580009CFB70BD10B50446FCF70AFF1E48C0F83E
:104590007042C4F8C0021D481B49086008204860EA
:1045A0000221194881600161002141618161C1617D
:1045B0000162FCF74EFD08B1FBF75DFF04F53074B6
:1045C0001823002211462068FCF7D2FA5823002253
:1045D00080212068FCF7CCFAC023002281212068CA
:1045E000FCF7C6FA4FF48873002201212068FCF71B
:1045F000BFFA2068A4F530744FF480730022822142
:10460000FCF7B6FA002010BD7819002000680040C1
:1046100010B50246D2F8C03201F08000802807D1E0
:1046200001F07F0403F1280000EB4410807810BDF6
:1046300001F07F0403F5947000EB44108078F6E7F6
:104640002DE9F04704460F4615461E464FF0000878
:10465000C1462B4632463946D4F8C002FCF736FB39
:104660008046B8F1000F09D0B8F1010F09D0B8F1B8
:10467000020F09D0B8F1030F0CD108E04FF0000988
:104680000BE04FF0020908E04FF0010905E04FF0A0
:10469000020902E04FF0020900BF00BF4846BDE832
:1046A000F0872DE9F04704460D4616461F464FF0A9
:1046B0000008C1463B4632462946D4F8C002FCF702
:1046C00047FB8046B8F1000F09D0B8F1010F09D0BF
:1046D000B8F1020F09D0B8F1030F0CD108E04FF088
:1046E00000090BE04FF0020908E04FF0010905E076
:1046F0004FF0020902E04FF0020900BF00BF484638
:10470000BDE8F08710B5044640230022114620463C
:10471000FFF796FF01214FF4AC70015140214FF497
:10472000B27001514023002280212046FFF788FF0C
:104730000121A16140216162012084F89C020020D6
:10474000C4F894026060C4F8A402D4F8B80228B196
:104750002179D4F8B402426820469047002010BD69
:10476000014691F89C02042803D191F89D0281F83A
:104770009C020020704710B5044694F89C02032860
:1047800008D1D4F8B402C06920B1D4F8B402C16928
:1047900020468847002010BD024611740020704753
:1047A0002DE9F04104460D46002600272946D4F89D
:1047B000C002FCF75EFD064636B1012E06D0022E81
:1047C00006D0032E08D105E0002707E0022705E008
:1047D000012703E0022701E0022700BF00BF38469F
:1047E000BDE8F08170B504460D46294604F52A70EF
:1047F00000F0AAF80120C4F8940240F2AE20005B59
:10480000C4F8980294F8A80200F01F0020B1012813
:1048100008D0022812D10BE004F52A71204600F0DE
:1048200096F913E004F52A71204600F0FDFA0DE038
:1048300004F52A71204600F0DBF907E094F8A8029D
:1048400000F08001204600F004F800BF00BF002007
:1048500070BD2DE9F04104460D460026002729468B
:10486000D4F8C002FCF798FA064636B1012E06D0FD
:10487000022E06D0032E08D105E0002707E002270C
:1048800005E0012703E0022701E0022700BF00BF87
:104890003846BDE8F08170B5044600250026D4F8FE
:1048A000C002FCF70AFD054635B1012D06D0022DE8
:1048B00006D0032D08D105E0002607E0022605E01A
:1048C000012603E0022601E0022600BF00BF3046B9
:1048D00070BD014691F89C0281F89D02042081F888
:1048E0009C02002070472DE9F04704460D4616460D
:1048F0001F464FF00008C1463B4632462946D4F8D1
:10490000C002FCF789FA8046B8F1000F09D0B8F16F
:10491000010F09D0B8F1020F09D0B8F1030F0CD183
:1049200008E04FF000090BE04FF0020908E04FF0FB
:10493000010905E04FF0020902E04FF0020900BF53
:1049400000BF4846BDE8F0870A7802704A78427096
:104950008B78CA7803EB022242800B794A7903EB09
:10496000022282808B79CA7903EB0222C2807047CF
:1049700070B505460C46002614B1C5F8B44209E0EE
:1049800005A001F073F906A001F070F90AA001F08A
:104990006DF90226304670BD4552524F523A200002
:1049A000496E76616C696420436C61737320686141
:1049B0006E646C65000000000A00000001460020E3
:1049C000704770B504460D46A88810BBE88800BB48
:1049D000688880281DD2A87800F07F0694F89C0291
:1049E000032804D129462046FFF700FA15E084F891
:1049F0009E6231462046FFF7D3FE2046FFF734FA89
:104A00001EB1022084F89C0207E0012084F89C0279
:104A100003E029462046FFF7E9F970BD70B504466A
:104A20000D460226D4F8B40238B1D4F8B4022946AF
:104A300002682046904700B90026304670BD00004D
:104A400070B504460D46A8783649087008460078C7
:104A5000012804D929462046FFF7C8F960E094F8F8
:104A60009C02022802D003284FD11CE02D48007878
:104A7000A8B12C4800786060032084F89C02294883
:104A800001782046FFF7CAFF022804D129462046B4
:104A9000FFF7ACF970BD2046FFF7E6F902E02046CB
:104AA000FFF7E2F93BE01F48007870B9022084F874
:104AB0009C021C48007860601A4801782046FFF785
:104AC00053F92046FFF7D0F91EE0164909786068CF
:104AD000884216D021792046FFF746F91148007820
:104AE0006060104801782046FFF798FF022804D143
:104AF00029462046FFF77AF9CCE72046FFF7B4F9BC
:104B000002E02046FFF7B0F909E029462046FFF70A
:104B10006DF9044801782046FFF726F900BF00BF71
:104B200000BFB7E78800002070B505460C466088D6
:104B3000012804D1C5F8A4022846FFF795F970BDF5
:104B400010B504462046FFF7A6FE002010BD70B544
:104B500005460C460026207800F0600060B1202851
:104B600002D040283CD100E000BFD5F8B402214675
:104B700082682846904738E060780A2829D2DFE822
:104B800000F01923281E280A0528140F214628465C
:104B9000FFF72FFA22E021462846FFF712FF1DE01B
:104BA00021462846FFF74CFF18E021462846FFF72C
:104BB000F5F913E021462846FFF73AFB0EE02146BF
:104BC0002846FFF7B1FF09E021462846FFF7D7F84E
:104BD00004E021462846FFF709F900BF00BF04E0C2
:104BE00021462846FFF702F900BF00BF304670BDDE
:104BF0002DE9F04105460E464FF000083479307833
:104C000000F0600060B1202802D0402871D100E09F
:104C100000BFD5F8B402314682682846904700E1CB
:104C2000307800F06000202809D1D5F8B402314670
:104C300082682846904780464046BDE8F0817078FB
:104C400000285ED001282FD0032876D195F89C0249
:104C5000022802D0032820D110E054B1802C08D0C3
:104C600021462846FFF7F5FD80212846FFF7F1FD94
:104C700003E031462846FFF7B9F813E0708840B9E1
:104C80003CB1802C05D0F08818B921462846FFF7A2
:104C9000E0FD2846FFF7E8F804E031462846FFF734
:104CA000A5F800BF00BFB5E095F89C02022802D02D
:104CB00003281FD110E054B1802C08D0214628468B
:104CC000FFF7C7FD80212846FFF7C3FD03E031460B
:104CD0002846FFF78BF812E0708848B904F07F008F
:104CE00018B121462846FFF72DFB2846FFF7BCF8F0
:104CF00005E091E031462846FFF778F800BF00BF95
:104D000088E095F89C02022802D0032876D126E09C
:104D100034B1802C04D031462846FFF767F872E0A2
:104D200004F08000802809D104F07F0000EB8001AE
:104D300005F1140000EB810008E066E004F07F005C
:104D400000EB800105F5AA7000EB8100074600200A
:104D50003860022239462846FFF775F853E004F020
:104D6000800080280ED104F00F0000EB800105F1D7
:104D7000140000EB8100406898B931462846FFF7DF
:104D800035F840E004F00F0000EB800105F5AA7053
:104D900000EB8100406820B931462846FFF726F82D
:104DA00031E004F08000802808D104F07F0000EB9F
:104DB000800105F1140000EB810007E004F07F00A2
:104DC00000EB800105F5AA7000EB810007460CB1ED
:104DD000802C02D10020386009E021462846FFF7E8
:104DE00017FC10B10120386001E000203860022279
:104DF00039462846FFF727F805E0FFE73146284601
:104E0000FEF7F4FF00BF00BF04E031462846FEF77E
:104E1000EDFF00BF00BF04E031462846FEF7E6FF85
:104E200000BF00BF404608E770B505460C460026A7
:104E3000207800F0600030B1202802D040282AD12C
:104E400000E000BF00BF95F89C02012804D00228B2
:104E500003D0032818D101E000BF00BF207901284A
:104E60000DD8D5F8B40221468268284690470646F8
:104E7000E08840B93EB92846FEF7F6FF03E0214638
:104E80002846FEF7B3FF04E021462846FEF7AEFFB2
:104E900000BF00BF04E021462846FEF7A7FF00BF81
:104EA00000BF002070BD70470146014870470000F8
:104EB000EC1B0020F0B5024600260878400032F8CE
:104EC000100048F68F1400EA0403C87830B10128B6
:104ED0000CD0022805D003280BD104E043F4007362
:104EE00009E000BF07E043F4C06304E043F48063DB
:104EF00001E0012600BF00BF43F4004040F0800005
:104F00000C78640022F8140000BF0C78640032F8BA
:104F1000144048F68F752C400D7844EA050040F4A3
:104F2000004444F080040D786D0022F8154000BF65
:104F3000087B00287ED14878002852D000BF104658
:104F4000B2F8505028440D7800F5806707EBC5048F
:104F5000CD886D106D00258000BF00BF0C78640007
:104F600032F8140000F040048CB100BF0D786D00E1
:104F700032F8155048F68F7705EA070444F40045E7
:104F800045F0C0050F787F0022F8175000BF00BF22
:104F9000C878012813D000BF0C78640032F81440A0
:104FA00048F6BF7504EA050080F0200040F4004494
:104FB00044F080040D786D0022F81540C0E100BF78
:104FC0000C78640032F8144048F6BF7504EA050016
:104FD00040F4004444F080040D786D0022F8154040
:104FE000AEE100BF1046B2F8505028440D780427B7
:104FF00007EBC50500F58067EC19CD886D106D00D5
:10500000258000BF00BF1546B2F8504025440C78FB
:10501000062707EBC40405F580673C44204600BF23
:105020000F6967B9078848F2FF3C07EA0C07078059
:10503000078800E055E047F4004707801EE00F694D
:105040003E2F0DD800BF0F697C080F7C07F00107C9
:1050500007B1641C4FF6FF7707EA842707800DE04D
:1050600000BF0F697C090F7C07F01F0707B9641E9A
:105070004FF4004747EA8427078000BF00BF00BF06
:1050800000BF0C78640032F8140000F480448CB146
:1050900000BF0D786D0032F8155048F68F7705EA9D
:1050A000070444F4004545F481450F787F0022F859
:1050B000175000BF00BF00BF0C78640032F81440E6
:1050C0004BF68F7504EA050080F4805080F40050A0
:1050D00040F4004444F080040D786D0022F815403F
:1050E0002EE100BF0C78640032F8144048F68F754A
:1050F00004EA050040F4004444F4C0740D786D00E7
:1051000022F8154000BF00BF00BF00BF1046B2F834
:10511000505028440D7800F5806707EBC5040D89D1
:105120006D106D00258000BF00BF00BF00BF10469E
:10513000B2F8505028440D78042707EBC50500F558
:105140008067EC194D896D106D00258000BF00BF90
:1051500000BF4878002870D100BF0C78640032F896
:10516000140000F480448CB100BF0D786D0032F85B
:10517000155048F68F7705EA070444F4004545F4D6
:1051800081450F787F0022F8175000BF00BF00BF95
:105190000C78640032F8140000F040048CB100BFB9
:1051A0000D786D0032F8155048F68F7705EA070440
:1051B00044F4004545F0C0050F787F0022F81750F1
:1051C00000BF00BF00BF0C78640032F8144048F6FE
:1051D0008F7504EA050040F4004444F0C0040D78E3
:1051E0006D0022F8154000BF00BF0C78640032F853
:1051F00014404BF68F7504EA050080F4805080F46B
:10520000005040F4004444F080040D786D0022F812
:10521000154000BF00BF0C78640032F8144048F617
:10522000BF7504EA050040F4004444F080040D78A2
:105230006D0022F8154083E0FFE700BF0C786400A2
:1052400032F8140000F480448CB100BF0D786D007A
:1052500032F8155048F68F7705EA070444F4004504
:1052600045F481450F787F0022F8175000BF00BF3A
:1052700000BF0C78640032F8140000F040048CB1D8
:1052800000BF0D786D0032F8155048F68F7705EAAB
:10529000070444F4004545F0C0050F787F0022F86C
:1052A000175000BF00BF00BF0C78640032F81440F4
:1052B00048F68F7504EA050040F4004444F4814444
:1052C0000D786D0022F8154000BFC878012813D072
:1052D00000BF0C78640032F8144048F6BF7504EA49
:1052E000050080F0200040F4004444F080040D7874
:1052F0006D0022F8154011E000BF0C78640032F810
:10530000144048F6BF7504EA050040F4004444F038
:1053100080040D786D0022F8154000BF00BF0C78A6
:10532000640032F814404BF68F7504EA050040F42F
:10533000004444F080040D786D0022F8154000BF51
:105340003046F0BD10B50446002010BD30B5024611
:10535000087B00285BD1487860B300BF0B785B0006
:1053600032F8130000F040038BB100BF0C786400EA
:1053700032F8144048F68F7504EA050343F40044FC
:1053800044F0C0040D786D0022F8154000BF00BF46
:1053900000BF0B785B0032F8133048F6BF7403EAA5
:1053A000040040F4004343F080030C78640022F8CA
:1053B000143007E100BF0B785B0032F8130000F4F3
:1053C00080438BB100BF0C78640032F8144048F67B
:1053D0008F7504EA050343F4004444F481440D78D6
:1053E0006D0022F8154000BF00BF00BF0B785B00C6
:1053F00032F813304BF68F7403EA040040F4004394
:1054000043F080030C78640022F81430DAE0487826
:1054100000286BD100BF0B785B0032F8130000F45A
:1054200080438BB100BF0C78640032F8144048F61A
:105430008F7504EA050343F4004444F481440D7875
:105440006D0022F8154000BF00BF00BF0B785B0065
:1054500032F8130000F040038BB100BF0C786400F9
:1054600032F8144048F68F7504EA050343F400440B
:1054700044F0C0040D786D0022F8154000BF00BF55
:1054800000BF0B785B0032F8133048F68F7403EAE4
:10549000040040F4004343F0C0030C78640022F899
:1054A000143000BF00BF0B785B0032F813304BF6AE
:1054B0008F7403EA040040F4004343F080030C7847
:1054C000640022F8143000BF00BF0B785B0032F894
:1054D000133048F6BF7403EA040040F4004343F07D
:1054E00080030C78640022F814306BE000BF0B7866
:1054F0005B0032F8130000F480438BB100BF0C78DE
:10550000640032F8144048F68F7504EA050343F44A
:10551000004444F481440D786D0022F8154000BF2A
:1055200000BF00BF0B785B0032F8130000F04003AF
:105530008BB100BF0C78640032F8144048F68F75C8
:1055400004EA050343F4004444F0C0040D786D0000
:1055500022F8154000BF00BF00BF0B785B0032F897
:10556000133048F68F7403EA040040F4004343F418
:1055700081430C78640022F8143000BF00BF0B7820
:105580005B0032F8133048F6BF7403EA040040F4BD
:10559000004343F080030C78640022F8143000BF0D
:1055A00000BF0B785B0032F813304BF68F7403EAC0
:1055B000040040F4004343F080030C78640022F8B8
:1055C000143000BF002030BD0146B1F8580040F44F
:1055D0000040A1F85800002070470146B1F858007B
:1055E000C0F30E00A1F858000020704710B5044623
:1055F000012024F8400F00202080A0802082403C21
:10560000204600F0CCFA002010BD01464BF6807217
:10561000B1F840009043A1F84000002070470246D6
:105620000020704730B50246087B002865D14878D5
:1056300088B300BF0B785B0032F8130000F0400322
:105640008BB100BF0C78640032F8144048F68F75B7
:1056500004EA050343F4004444F0C0040D786D00EF
:1056600022F8154000BF00BFC878012845D000BF10
:105670000B785B0032F8133048F6BF7403EA04007D
:1056800080F0200040F4004343F080030C78640075
:1056900022F8143031E0FFE700BF0B785B0032F8EE
:1056A000130000F480438BB100BF0C78640032F823
:1056B000144048F68F7504EA050343F4004444F4AB
:1056C00081440D786D0022F8154000BF00BF00BF77
:1056D0000B785B0032F813304BF68F7403EA04004A
:1056E00080F4805080F4005040F4004343F0800385
:1056F0000C78640022F8143000BF002030BD10B5D3
:105700000246487898B100BF0B785B0032F813303E
:1057100048F6BF7403EA040080F0100040F4004330
:1057200043F080030C78640022F8143013E000BFCB
:105730000B785B0032F813304BF68F7403EA0400E9
:1057400080F4805040F4004343F080030C78640000
:1057500022F8143000BF002010BD2DE9F0430646AA
:105760000C46607801286FD12169A069884204D96C
:105770002569A069401BA06102E0A5690020A06125
:10578000207B98B9ABB2E2883046616900F04BFAF1
:1057900000BF3046B6F8502010442278022303EBB5
:1057A000C20200F58063D1180D80DFE02078400050
:1057B00036F8100000F04000002859D000BF3346F2
:1057C000607878BB00BF3246B6F850100A442178A2
:1057D0004FF0060808EBC10102F580684144084615
:1057E00000BF75B9B0F8008048F2FF3908EA09082F
:1057F000A0F80080B0F8008048F40048A0F80080CD
:1058000020E03E2D0FD800BF690805F00108B8F16F
:10581000000F00D0491C4FF6FF7808EA8128A0F855
:1058200000800FE011E000BF690905F01F08B8F122
:10583000000F00D1491E4FF4004848EA8128A0F823
:10584000008000BF00BF10E0A6E0607801280CD106
:10585000B6F8500003442078062101EBC00003F5A0
:10586000806100EB010CACF8005000BF67894CE090
:1058700000BF6078A8BB00BF3246B6F850100A449B
:105880002178022303EBC10102F580631944084625
:1058900000BF55B9038848F2FF3C03EA0C030380BC
:1058A000038843F40043038019E03E2D0BD800BF6A
:1058B000690805F0010303B1491C4FF6FF7303EAC1
:1058C000812303800BE000BF690905F01F0303B9C2
:1058D000491E4FF4004343EA8123038000BF00BF09
:1058E00011E0FFE7607801280DD100BF3046B6F81F
:1058F000502010442278022303EBC20200F580639B
:10590000D1180D8000BF00BF2789ABB23A463046A0
:10591000616900F088F900BF607888B900BF21781C
:10592000490036F8111048F68F7201EA020040F47F
:10593000004141F0C0012278520026F8121014E014
:105940006078012811D100BF2178490036F8111084
:1059500048F68F7201EA020040F4004141F48141AF
:105960002278520026F8121000BF00BF00BF217835
:10597000490036F8111048F6BF7201EA020080F0C3
:10598000100080F0200040F4004141F080012278B6
:10599000520026F81210FFE02169A069884204D95C
:1059A0002569A069401BA06102E0A5690020A061F3
:1059B000207BA8BB00BF3246B6F850100A442178BD
:1059C000062303EBC10102F580631944084600BFBA
:1059D00055B9038848F2FF3C03EA0C0303800388AF
:1059E00043F40043038019E03E2D0BD800BF690843
:1059F00005F0010303B1491C4FF6FF7303EA81234D
:105A000003800BE000BF690905F01F0303B9491EBD
:105A10004FF4004343EA8123038000BF00BFA5E0A9
:105A2000FFE700BF00BF6078A8BB00BF3246B6F8F2
:105A300050100A442178022303EBC10102F5806370
:105A40001944084600BF55B9038848F2FF3C03EAF1
:105A50000C030380038843F40043038019E03E2DC8
:105A60000BD800BF690805F0010303B1491C4FF6CC
:105A7000FF7303EA812303800BE000BF690905F08F
:105A80001F0303B9491E4FF4004343EA81230380F7
:105A900000BF00BF11E0FFE7607801280DD100BF13
:105AA0003046B6F8502010442278022303EBC2029D
:105AB00000F58063D1180D8000BF00BF00BF3346E2
:105AC000607878BB00BF3246B6F850100A4421789F
:105AD0004FF0060808EBC10102F580684144084612
