:020000040800F2
:1000000080290020A90100087D3300082F31000855
:10001000793300088B03000817680008000000000F
:100020000000000000000000000000009D3C0008EF
:100030009D05000800000000093700089F3C0008EB
:10004000C3010008C3010008C3010008C301000880
:10005000C3010008C30100089F050008C301000890
:10006000C3010008C3010008C3010008C301000860
:100070004D0500085D050008C3010008C301000824
:10008000C3010008C3010008C3010008C301000840
:10009000C3010008C3010008C3010008C301000830
:1000A000C3010008C3010008C3010008C301000820
:1000B000C3010008C301000800000000C3010008DC
:1000C000C3010008C3010008C3010008313900085A
:1000D000C3010008B1450008C3010008C3010008BE
:1000E000C3010008C3010008000000000000000078
:1000F0000000000000000000000000000000000000
:1001000000000000C301000800000000C301000857
:10011000C301000800000000B53D00080000000019
:10012000C3010008C3010008C3010008C30100089F
:10013000C3010008C3010008C3010008000000005B
:10014000C3010008C3010008C30100086567000877
:10015000C3010008C3010008C3010008C30100086F
:10016000C3010008C3010008C3010008000000002B
:1001700000000000C30100080000000000000000B3
:10018000C3010008C3010008C3010008C30100083F
:10019000C3010008DFF80CD000F0BAF800480047AF
:1001A000D16900088029002006488047064800479A
:1001B000FEE7FEE7FEE7FEE7FEE7FEE7FEE7FEE717
:1001C000FEE7FEE7653D0008950100082DE9F05FB8
:1001D0000546002092469B468846064681464024B6
:1001E0001BE0284641464746224600F080F8534629
:1001F0005A46C01A914110D311461846224600F0C3
:1002000067F82D1A67EB01084F46224601200021AE
:1002100000F05EF817EB00094E41201EA4F1010426
:10022000DFDC484631462A46434600F000B830BC81
:10023000BDE8C09F40EA01039B0703D009E008C95D
:10024000121F08C0042AFAD203E011F8013B00F89B
:10025000013B521EF9D27047D2B201E000F8012BE7
:10026000491EFBD270470022F6E710B513460A4636
:1002700004461946FFF7F0FF204610BD421C10F857
:10028000011B0029FBD1801A704730B504460020BD
:10029000034600E05B1C934203D2E05CCD5C401B54
:1002A000F8D030BD20F00040C20DC0F3160040F47D
:1002B00000007F2A02DA0020014670470021962ABA
:1002C00003DCC2F19602D0407047963AAFF300804B
:1002D000202A04DB203A00FA02F100207047914006
:1002E000C2F1200320FA03F3194390407047202AFB
:1002F00004DB203A21FA02F00021704721FA02F3D0
:10030000D040C2F1200291400843194670470000D6
:10031000064C074D06E0E06840F0010394E8070052
:1003200098471034AC42F6D3FFF738FF9C6D0008B5
:10033000BC6D000870B58C1810F8015B15F0070350
:1003400001D110F8013B2A1106D110F8012B03E06E
:1003500010F8016B01F8016B5B1EF9D12B0705D476
:100360000023521E0DD401F8013BFAE710F8013BBF
:10037000CB1A921C03E013F8015B01F8015B521EDB
:10038000F9D5A142D8D3002070BD00BFFEE70346D7
:10039000042B15D007DC7BB1012B0ED0022B0DD026
:1003A000032B12D10BE0202B0BD0212B0AD0222BB8
:1003B00009D0232B09D107E008E007E006E005E0BB
:1003C00004E003E002E001E000E000BF00BF002025
:1003D000704700207047000010B50022044905480E
:1003E00004F02BFA0449034804F020FA002010BD61
:1003F000E816002024080020E80E0020F0B5C3B065
:1004000004460D462146254804F010FA234804F01E
:10041000E9F92868801E205C8DF808012868401ED4
:10042000205C8DF8090100204190002600BF03E008
:10043000215C31448EB2401C2968891E8142F7D864
:10044000300A8DF80401F0B28DF805014FF4807187
:1004500001A8FFF708FF022242A941A8FFF715FFF4
:1004600030B141AB42AA0EA101A806F0D7F905E0D0
:1004700041AB42AA10A101A806F0D0F901A8FFF7EC
:10048000FDFEC7B2394601A800F024F820462968CD
:1004900000F04EF8002043B0F0BD0000240800201A
:1004A000435243206572726F7220257320213D20D4
:1004B00025730D0A000000005061636B65742072A3
:1004C0006563656976656421202573203D20257369
:1004D0000D0A00002DE9F04104460D4600260B48A8
:1004E000D0F8B872D7F8140210B10120BDE8F0813D
:1004F0002A462146054804F0A0F9044804F021FAF0
:10050000064600F021F83046F0E7000024080020FD
:1005100010B50446204603F097FC40B1607F10B14F
:10052000204603F0ADFCA06908B1A069804710BD6A
:1005300070B504460D46AAB22146024806F062FB99
:1005400070BD0000C00300207047000010B50248D5
:1005500000F074F810BD00001C07002010B5024820
:1005600000F06CF810BD0000D406002030B590F803
:10057000444004F01C050124AC40056C6C60046828
:1005800063608468102C04D10468A2600468E16090
:1005900003E00468A1600468E26030BD704710B5F4
:1005A000012000F0D9F910BD7047000070B50A486D
:1005B0000468001D0568001D0668344454B1082213
:1005C0000649204602F0B5FD0422044910312846B0
:1005D00002F0AFFD70BD00009075FF1F56000020B7
:1005E00070B50446002594F82500022803D00420A5
:1005F000E063012520E02068006820F00E002168FB
:1006000008602068006820F001002168086094F804
:10061000440000F01C0101208840216C486001204A
:1006200084F8250000BF002084F8240000BFA06BE0
:1006300010B12046A16B8847284670BD70B50446AE
:10064000206C05682068066894F8440000F01C01DE
:10065000042088402840E0B106F00400C8B12068BA
:10066000006800F0200028B92068006820F004002D
:100670002168086094F8440000F01C0104208840C0
:10068000216C4860206B002856D02046216B88479B
:1006900052E094F8440000F01C01022088402840F9
:1006A00018B306F0020000B32068006800F02000D4
:1006B00040B92068006820F00A0021680860012025
:1006C00084F8250094F8440000F01C0102208840C2
:1006D000216C486000BF002084F8240000BFE06A5D
:1006E00050B32046E16A884726E094F8440000F0C1
:1006F0001C01082088402840F0B106F00800D8B15D
:100700002068006820F00E002168086094F844001A
:1007100000F01C0101208840216C48600120E0634A
:1007200084F8250000BF002084F8240000BF606B1F
:1007300010B12046616B884770BD000010B50146BE
:1007400009B9012010BD3E4B086898420BD23D4BC1
:100750000868C01A1423B0FBF3F0800048643948DD
:10076000083808640AE0364B0868C01A1423B0FB46
:10077000F3F080004864324808380864022081F8A9
:1007800025000868026847F6F0708243D1E9020349
:1007900018430B6918434B6918438B691843CB699D
:1007A00018430B6A18430243086802608868B0F572
:1007B000804F3AD0234B083B086C98421BD1D0F8AD
:1007C000A80091F8443003F01C040F23A340984381
:1007D0001C4BA033186091F8443003F01C034868A8
:1007E0009840184B083BD3F8A8301843154B083BEA
:1007F000C3F8A80019E01248A030006891F844300E
:1008000003F01C040F23A34098430D4BA033186042
:1008100091F8443003F01C0348689840084BA0331B
:100820001B681843064BA03318600020C8630120E2
:1008300081F82500002081F8240000BF82E7000035
:1008400008040240080002402DE9F04104460D462C
:1008500016461F464FF0000800BF94F824000128F8
:1008600002D10220BDE8F081012084F8240000BFFD
:1008700094F8250001282CD1022084F825000020BE
:10088000E0632068006820F00100216808603B46B2
:10089000324629462046FFF769FE206B30B12068BA
:1008A000006840F00E00216808600BE020680068D6
:1008B00020F00400216808602068006840F00A0009
:1008C000216808602068006840F001002168086025
:1008D00006E000BF002084F8240000BF4FF00208AB
:1008E0004046BFE770B5044600F036F90646254697
:1008F000681C10B104480068054400BF00F02CF9E2
:10090000801BA842FAD370BD8800002010B50446B1
:10091000012C18D101214FF0904000F00FF901286F
:1009200011D1094806F05AF968B10020074908704A
:10093000002210214FF0904000F008F98022044975
:10094000044801F0EDFE10BDC00300200C000020A3
:10095000D00400207006002010B50446044800684A
:10096000204020B1024804602046FFF7CFFF10BDB1
:100970001404014078B503460022CBE001269640DE
:100980000D6805EA0604002C72D04D68022D02D0D5
:100990004D68122D13D1D60803F1200555F8260015
:1009A0005507EE0E0F25B540A8435607F60E0D6904
:1009B000B5402843D60803F1200545F826001868FD
:1009C00056000325B540A8430D7905F003055600F0
:1009D000B540284318604D68012D08D04D68022DA0
:1009E00005D04D68112D02D04D68122D13D1986895
:1009F00056000325B540A8435600CD68B5402843AE
:100A00009860586801259540A8430D79C5F30015F5
:100A1000954028435860D86856000325B540A84340
:100A200056008D68B5402843D8604D6805F0805564
:100A3000B5F1805F6DD100BF394D2D6E45F00105D8
:100A4000374E356635462D6E05F00105009500BF21
:100A500000BF4FEAB635960855F8260095072E0FC9
:100A60000F25B540A843B3F1904F02D1002515E002
:100A70004FE02C4DAB4201D101250FE02A4DAB4296
:100A800001D102250AE0294DAB4201D1032505E041
:100A9000274DAB4201D1042500E007259607360F0C
:100AA000B5402843234D960845F82600224D286876
:100AB000A0434D6805F48035B5F5803F00D1204353
:100AC0001D4D28602D1D2868A0434D6805F4003594
:100AD000B5F5003F00D12043174D2D1D28602D1D79
:100AE0002868A0434D6805F48015B5F5801F00D136
:100AF0002043114D083528602D1D2868A0434D68FE
:100B000005F40015B5F5001F00D120430A4D0C3542
:100B10002860521C0D68D540002D7FF42FAF78BDA2
:100B2000001002400004004800080048000C004883
:100B3000001000480800014000040140024613690B
:100B40000B400BB1012000E0002070470AB1816129
:100B500000E08162704700000148006870470000B3
:100B600080000020034800680349096808440149DF
:100B700008607047800000208800002010B5002425
:100B8000032000F0A9F8002000F008F808B10124C3
:100B900001E000F02FF8204610BD000070B50446BB
:100BA000002511480068D8B10F4800684FF47A71E9
:100BB000B1FBF0F00D490968B1FBF0F6304601F0E9
:100BC000CAFF58B9102C07D200222146501E00F04F
:100BD00041F80748046004E0012502E0012500E037
:100BE0000125284670BD0000880000208C000020F0
:100BF0008400002008B500BF0D48006E40F00100E1
:100C00000B4908660846006E00F00100009000BF26
:100C100000BF00BF0846806D40F0805088650846E0
:100C2000806D00F08050009000BF00BF08BD000044
:100C30000010024001460846002809DB00F01F03AF
:100C400001229A4043099B0003F1E023C3F80021ED
:100C500000BF70472DE9F05F80460D46164600271D
:100C600005F0F0FD074639462A46334601F00700F5
:100C7000C0F1070ABAF1040F02D94FF0040A01E0EB
:100C8000C0F1070AD14600F1040ABAF1070F02D2F7
:100C90004FF0000A01E0A0F1030AD4464FF0010A28
:100CA0000AFA09FAAAF1010A0AEA020A0AFA0CFA8D
:100CB0004FF0010B0BFA0CFBABF1010B0BEA030B32
:100CC0004AEA0B042146404605F0C4FD00F000B896
:100CD00030BCBDE8C09F000000BF00F00702064B1B
:100CE00019684FF6FF031940044B0B4343EA0221F6
:100CF000014B196000BF70470CED00E00000FA05E1
:100D0000024611680120C2F86802002082F86002E1
:100D100031F8540F40F001000880088840F00200CC
:100D200021F854090020704770B504460D4615B1EE
:100D3000012D1CD10EE0A06938B102F0B4FF0D48BE
:100D4000006820F006000B490860D4F8700204F037
:100D5000FDFA0CE0D4F8700204F0B1FBA06928B1F0
:100D60000448006840F006000249086000BF00BF68
:100D700070BD000010ED00E070B505460C4604F0B3
:100D80008000802806D104F0070605F1280000EB5A
:100D9000461103E005F5947000EB44111AB90020E8
:100DA0000873CB8004E0012008730B81180C488184
:100DB000002070BD70B504460D4604F1280101EB1A
:100DC00045114A692946D4F8700204F0F4F870BD60
:100DD00070B504460D4604F5947101EB45114A695E
:100DE0002946D4F8700204F066F970BD70B5044667
:100DF0000E4606F08000802808D106F0070104F1B5
:100E0000280000EB41150120687007E006F007019B
:100E100004F5947000EB41150020687006F007009F
:100E2000287000BF94F82802012801D1022070BD6B
:100E3000012084F8280200BF2946206805F05EF8EA
:100E400000BF002084F8280200BF00BFEFE770B5A4
:100E500004460E4606F00F006168884201D9012061
:100E600070BD06F08000802808D106F0070104F16B
:100E7000280000EB41150120687007E006F007012B
:100E800004F5947000EB4115002068700020A870F4
:100E900006F00700287000BF94F82802012801D14D
:100EA0000220DDE7012084F8280200BF29462068DF
:100EB00005F090F900BF002084F8280200BF00BFB1
:100EC000CEE7024601F0070302F5947000EB4310F1
:100ED000C06970472DE9F04705460E4690461F460B
:100EE0004FF0000906F08000802808D106F00701C5
:100EF00005F1280000EB41140120607007E006F0C6
:100F0000070105F5947000EB41140020607006F0B5
:100F100007002070C4F81080E770607808B120786E
:100F2000E081022F01D10020207100BF95F8280236
:100F3000012802D10220BDE8F087012085F82802AF
:100F400000BF2146286804F08DFD00BF002085F811
:100F5000280200BF4846EEE72DE9F04105460E465F
:100F60001746984606F0070105F5947000EB41140A
:100F70006761C4F818800020E061607006F0070027
:100F8000207006F0070020B92146286805F0BDF959
:100F900003E02146286805F0B8F90020BDE8F0819B
:100FA00070B504460D4605F007006168884201D916
:100FB000012070BD05F08000802808D105F00701F0
:100FC00004F1280000EB41160120707005E004F5E3
:100FD000947000EB4516002070700120B07005F091
:100FE0000700307000BF94F82802012801D10220C8
:100FF000DFE7012084F8280200BF3146206805F0B1
:1010000056F905F0070020B904F50C71206805F0C9
:10101000DEF800BF002084F8280200BF00BFC8E748
:101020002DE9F04105460E461746984606F00701A1
:1010300005F1280000EB41146761C4F81880002016
:10104000E0610120607006F00700207006F00700E4
:1010500020B92146286805F058F903E021462868A0
:1010600005F053F90020BDE8F08110B50446206872
:1010700005F080FB00F40040B0F5004F02D120469F
:1010800002F07DF9206805F075FB00F48060B0F592
:10109000806F0FD12068B0F844004FF6FF31084050
:1010A0002168A1F84400204600F0BAF9002120464A
:1010B00000F0E3F9206805F05DFB00F48040B0F536
:1010C000804F08D12068B0F844004BF6FF7108400B
:1010D0002168A1F84400206805F04CFB00F40050A2
:1010E000B0F5005F08D12068B0F844004DF6FF71FC
:1010F00008402168A1F84400206805F03BFB00F49B
:101100008050B0F5805F28D12068B0F840004FF6DD
:10111000FB7108402168A1F840002068B0F8400049
:101120004FF6F77108402168A1F8400094F860027A
:10113000012806D1002084F8600200212046FFF734
:10114000F3FD204600F07EF92068B0F844004EF62A
:10115000FF7108402168A1F84400206805F00AFBEF
:1011600000F40060B0F5006F1BD12068B0F84000BB
:1011700040F008002168A1F840002068B0F8440061
:101180004FF2FF7108402168A1F844002068B0F8D0
:10119000400040F004002168A1F84000204600F023
:1011A000ABF9206805F0E6FA00F0800080282ED127
:1011B0002068B0F844004FF67F7108402168A1F81C
:1011C000440094F86002F8B92068B0F8400040F09C
:1011D00004002168A1F840002068B0F8400040F009
:1011E00008002168A1F84000012084F8600220680E
:1011F000B0F8540000F0F0008008C4F86402012147
:101200002046FFF791FD02E0204600F075F92068C6
:1012100005F0B0FA00F40070B0F5007F0BD1206843
:10122000B0F844004FF6FF5108402168A1F844008F
:10123000204600F01BF9206805F09CFA00F480704D
:10124000B0F5807F08D12068B0F844004FF6FF6108
:1012500008402168A1F8440010BD30B585B00446AF
:1012600014B9012005B030BD94F8290228B9002036
:1012700084F82802204600F08DF8032084F8290223
:10128000206804F09AFF142204F110016846FEF76A
:10129000D1FF94E80F0004F02DFE20B1022084F865
:1012A00029020120DEE70021206805F08AFA0025E6
:1012B00026E0012104F1280000EB4510417004F103
:1012C000280000EB4510057004F1280000EB4510E4
:1012D000C581002104F1280000EB4510C17004F124
:1012E000280000EB4510016104F1280000EB4510D7
:1012F000416104F1280000EB45108161681CC5B212
:101300006068A842D5D8002520E0002104F594703B
:1013100000EB4510417004F5947000EB451005702A
:1013200004F5947000EB4510C17004F5947000EB67
:101330004510016104F5947000EB4510416104F51E
:10134000947000EB45108161681CC5B26068A842CA
:10135000DBD8142204F110016846FEF76BFF94E815
:101360000F0004F01BFF20B1022084F829020120A5
:1013700078E7002084F82400012084F82902E0693D
:10138000012802D12046FFF7BBFC206804F0FDFED7
:10139000002067E710B586B00446142101A8FEF7C7
:1013A00062FF1D492068884233D100BF1B48C06CD2
:1013B00040F001001949C8640846C06C00F0010003
:1013C000009000BF00BF4FF4C05001900220029077
:1013D00000200390032004900A20059001A94FF0FB
:1013E0009040FFF7C7FA00BF0C48806D40F0806066
:1013F0000A4988650846806D00F08060009000BF53
:1014000000BF002211464320FFF724FC4320FFF7D2
:1014100011FC06B010BD0000006800400010024042
:1014200070B504460125A068022801D0FFF7BCF87A
:101430002946D4F8700203F0A5FFD4F8700203F037
:1014400057FF70BD10B50446A06938B10648006862
:1014500020F006000449086002F025FCD4F8700270
:1014600003F074FF10BD000010ED00E010B504465D
:10147000D4F8700203F075FF10BD70B504460D4638
:1014800000BF94F82802012801D1022070BD01207C
:1014900084F8280200BF84F824502946206805F00B
:1014A00093F900BF002084F8280200BF00BFEDE7D9
:1014B00010B5044604F50C71D4F8700203F088FFEF
:1014C00010BD10B5044600BF94F82802012801D1D0
:1014D000022010BD012084F8280200BF206804F01B
:1014E0004BFE206805F033F900BF002084F8280285
:1014F00000BF00BFEDE7000010B50446D4F870024D
:1015000003F0DDFFA06928B10348006840F0060041
:101510000149086010BD000010ED00E00246B2F580
:10152000007F2AD11D48006800F4C060B0F5007F3C
:1015300032D01A48006820F4C06040F40070174BA5
:1015400018601748006832235843164BB0FBF3F07D
:10155000411C00E0491E1148406900F48060B0F56C
:10156000806F01D10029F5D10C48406900F48060FA
:10157000B0F5806F10D1032070470848006800F470
:10158000C060B0F5806F07D00448006820F4C060E8
:1015900040F48060014B18600020EDE700700040CF
:1015A0008C00002040420F000348406840F48060F7
:1015B0000149486070470000007000400248006820
:1015C00000F4C06070470000007000402DE9F8434F
:1015D00004460025A846208800F40060B0F5006F9E
:1015E00026D1E06C68B1B0F5000F03D0B0F5400F24
:1015F0000ED10CE0F748C06840F48030F549C8606F
:1016000008E00021201D02F081F8054602E001E01B
:10161000012500BF00BF55B9EE488830006820F4AE
:101620004000E16C0843EB49C1F8880000E0A8469F
:10163000206800F40030B0F5003F75D14FF000098C
:10164000E448806D012121EA107078B100BFE148C3
:10165000806D40F08050DF4988650846806D00F05D
:101660008050009000BF00BF4FF00109DA480068C9
:1016700040F48070D8490860FFF76EFA074606E02C
:10168000FFF76AFAC01B022801D9032505E0D248FA
:10169000006800F480700028F2D000BF7DBBCD4808
:1016A0009030006800F44076CEB1606EB04216D043
:1016B000C8489030006820F44076C648D0F89000C2
:1016C00040F48030C349C1F890000846D0F890003B
:1016D00020F48030C1F890000846C0F8906006F011
:1016E0000100A8B1FFF738FA074609E0FFF734FA1E
:1016F000C01B41F28831884202D9032507E016E079
:10170000B4489030006800F002000028EED000BF1E
:101710005DB9B0489030006820F44070616E0843B5
:10172000AC49C1F8900003E00CE0A84600E0A846F0
:10173000B9F1010F05D1A748806D20F08050A5496F
:10174000886500BF207800F0010048B1A1488830CA
:10175000006820F00300216A08439E49C1F8880010
:10176000207800F00200022809D19A4888300068E9
:1017700020F00C00616A08439649C1F8880020787F
:1017800000F00400042809D192488830006820F055
:101790003000A16A08438F49C1F88800207800F022
:1017A0000800082809D18B488830006820F0C00064
:1017B000E16A08438749C1F88800207800F02000DA
:1017C000202809D183488830006820F44060216BCC
:1017D00008438049C1F88800208800F40070B0F503
:1017E000007F09D17B488830006820F44020616C7C
:1017F00008437849C1F88800208800F48060B0F57B
:10180000806F09D173488830006820F44010A16CC3
:1018100008437049C1F88800207800F04000402853
:1018200009D16C488830006820F44050616B08434F
:101830006849C1F88800207800F08000802809D12C
:1018400064488830006820F44040A16B0843614937
:10185000C1F88800208800F48070B0F5807F09D13D
:101860005C488830006820F44030E16B08435949F7
:10187000C1F88800206800F48010B0F5801F09D1FD
:1018800054489C30006820F00300216C0843514903
:10189000C1F89C00208800F40050B0F5005F1FD113
:1018A0004C488830006820F04060216D0843494969
:1018B00088310860206DB0F1006F06D14548C068DE
:1018C00040F480104349C8600AE0206DB0F1806F99
:1018D00006D10121201D01F019FF054605B1A846DA
:1018E000206800F40020B0F5002F1FD1394888305F
:1018F000006820F04060616D084336498831086017
:10190000606DB0F1006F06D13248C06840F48010BD
:101910003049C8600AE0606DB0F1806F06D10121E6
:10192000201D01F0F3FE054605B1A846206800F42D
:101930008020B0F5802F1FD126488830006820F025
:101940004060A16D0843234988310860A06DB0F163
:10195000006F06D11F48C06840F480101D49C86060
:101960000AE0A06DB0F1806F06D10121201D01F0C9
:10197000CDFE054605B1A846208800F48040B0F5AC
:10198000804F14D113488830006820F04050E16D3A
:101990000843104988310860E06DB0F1805F06D1DE
:1019A0000221201D01F0B2FE054605B1A8462068BF
:1019B00000F48030B0F5803F09D1064888300068D7
:1019C00020F00040216E08430249C1F888004046DB
:1019D000BDE8F88300100240007000402DE9F0419E
:1019E00004460D4614B90120BDE8F0815548006851
:1019F00000F00700A8420ED25248006820F007000D
:101A00002843504908600846006800F00700A842D3
:101A100001D00120E8E7207800F00100002840D044
:101A20006068032806D14848006800F00070D8B903
:101A30000120D9E76068022806D14348006800F415
:101A4000003088B90120CFE7606830B93E480068AF
:101A500000F0020040B90120C6E73B48006800F4EE
:101A6000806008B90120BFE73748806820F0030094
:101A70006168084334498860FFF76EF8064608E05D
:101A8000FFF76AF8801B41F28831884201D90320B0
:101A9000AAE72D48806800F00C006168B0EB810F68
:101AA000EED1207800F00200022807D12648806895
:101AB00020F0F000A16808432349886021480068AD
:101AC00000F00700A8420ED91E48006820F0070069
:101AD00028431C4908600846006800F00700A84237
:101AE00001D0012080E7207800F00400042807D10D
:101AF0001548806820F4E060E16808431249886076
:101B0000207800F00800082808D10F48806820F4E9
:101B10006050216940EAC1000B49886000F046F836
:101B200009498968C1F30311084A515C01F01F019A
:101B3000C8400749086007480068FFF72FF80746C4
:101B4000384651E70020024000100240546D000862
:101B50008C000020840000200148006870470000CD
:101B60008C00002000B5FFF7F7FF05498968C1F335
:101B70000221044A515C01F01F01C84000BD000071
:101B800000100240646D000800B5FFF7E5FF05494D
:101B90008968C1F3C221044A515C01F01F01C840A9
:101BA00000BD000000100240646D0008F0B5002385
:101BB0000020DFF8D4C0DCF808C00CF00C01DFF81E
:101BC000C8C0DCF80CC00CF0030719B10C291ED1F9
:101BD000012F1CD1DFF8B0C0DCF800C00CF0080CFD
:101BE000BCF1000F06D1DFF8A0C0DCF894C0CCF344
:101BF000032305E0DFF890C0DCF800C0CCF303134A
:101C0000DFF888C05CF8233041B9184606E00429A3
:101C100001D11F4802E0082900D11E480C2932D109
:101C2000DFF864C0DCF80CC00CF00304012C09D010
:101C3000022C02D0032C04D101E0154A04E0154A1D
:101C400002E000BF1A4600BF00BFDFF83CC0DCF86E
:101C50000CC0CCF3021C0CF10106DFF82CC0DCF840
:101C60000CC0CCF3062C0CFB02FCBCFBF6F2DFF83C
:101C700018C0DCF80CC0CCF3416C0CF1010C4FEA3D
:101C80004C05B2FBF5F0F0BD001002406C6D000891
:101C90000024F400006CDC022DE9F843044614B97A
:101CA0000120BDE8F883F948806800F00C06F74889
:101CB000C06800F00307207800F01000102877D1EA
:101CC0001EB10C2E76D1012F74D1F048006800F0BF
:101CD000020018B1A06908B90120E2E7EB48216AC7
:101CE000006800F0080020B1E848006800F0F0004B
:101CF00005E0E6489430006800F470600009814215
:101D00001FD9206A01F0C6FD08B10120C9E700BF54
:101D1000DE48006840F00800DC49086008460068BA
:101D200020F0F000216A0843D849086000BF084647
:101D3000406820F47F40E16940EA0120D3494860CF
:101D40001FE000BFD148006840F00800CF4908609C
:101D50000846006820F0F000216A0843CB4908607B
:101D600000BF0846406820F47F40E16940EA012056
:101D7000C64948602EB9206A01F08CFD08B10120E7
:101D80008FE7FFF713FFC1498968C1F30311C04A08
:101D9000515C01F01F01C840BE490860BE480068A0
:101DA000FEF7FCFE8046B8F1000F4ED0404678E7C3
:101DB0004BE0FFE7A06980B3B448006840F0010041
:101DC000B2490860FEF7C8FE054606E0FEF7C4FE0D
:101DD000401B022801D9032063E7AC48006800F0EB
:101DE00002000028F2D000BFA848006840F00800B8
:101DF000A64908600846006820F0F000216A084300
:101E0000A249086000BF0846406820F47F40E169AD
:101E100040EA01209D49486017E0FFE79B480068C1
:101E200020F0010099490860FEF796FE054606E09D
:101E3000FEF792FE401B022801D9032031E79348A8
:101E4000006800F002000028F2D1207800F00100C4
:101E500000285CD0082E03D00C2E0AD1032F08D105
:101E60008A48006800F4003088B3606878BB0120BD
:101E700017E700BF6068B0F5803F06D1834800686F
:101E800040F48030814908601AE06068B0F5A02F06
:101E90000BD17E48006840F480207C4908600846E9
:101EA000006840F4803008600AE07848006820F458
:101EB0008030764908600846006820F48020086079
:101EC00000BF606890B1FEF747FE054607E01EE0E0
:101ED000FEF742FE401B642801D90320E1E66B486F
:101EE000006800F400300028F2D010E0FEF734FE65
:101EF000054606E0FEF730FE401B642801D90320AA
:101F0000CFE66248006800F400300028F2D1207863
:101F100000F00200022852D1042E03D00C2E14D15E
:101F2000022F12D15948006800F4806018B1E068AF
:101F300008B90120B5E65548406820F0FE40217CF4
:101F400040EA01605149486039E0E06800B34F4819
:101F5000006840F480704D490860FEF7FDFD0546BD
:101F600006E0FEF7F9FD401B022801D9032098E6A0
:101F70004648006800F480600028F2D0434840687A
:101F800020F0FE40217C40EA01604049486016E0B4
:101F90003E48006820F480703C490860FEF7DCFD94
:101FA000054606E0FEF7D8FD401B022801D90320B4
:101FB00077E63648006800F480600028F2D1207887
:101FC00000F00800082836D16069D0B12F4894305D
:101FD000006840F001002D49C1F89400FEF7BCFDF7
:101FE000054606E0FEF7B8FD401B022801D9032094
:101FF00057E626489430006800F002000028F1D02F
:1020000019E022489430006820F001001F49C1F80F
:102010009400FEF7A1FD054606E0FEF79DFD401B7E
:10202000022801D903203CE618489430006800F0EB
:1020300002000028F1D1207800F00400042872D1B9
:102040004FF000091148806D00F0805078B900BF52
:102050000E48806D40F080500C4988650846806DC0
:1020600000F08050009000BF00BF4FF001090B4806
:10207000006800F4807000BB0848006840F480707D
:1020800006490860FEF768FD054610E000100240B2
:10209000546D00088C000020840000200070004077
:1020A000FEF75AFD401B022801D90320F9E5D0486C
:1020B000006800F480700028F2D000BFA0680128FA
:1020C00008D1CC48006840F00100CA499039C1F8F5
:1020D000900021E0A06805280FD1C648006840F0B4
:1020E0000400C4499039C1F890000846D0F8900027
:1020F00040F00100C1F890000EE0BE48006820F0FA
:102100000100BC499039C1F890000846D0F8900011
:1021100020F00400C1F8900000BFA068A0B1FEF755
:102120001BFD054609E02EE0FEF716FD401B41F2BF
:102130008831884201D90320B3E5AE48006800F039
:1021400002000028F0D012E0FEF706FD054608E088
:10215000FEF702FD401B41F28831884201D903207D
:102160009FE5A448006800F002000028F0D1B9F112
:10217000010F07D19F489038806D20F080509D4915
:102180009039886500BF207800F02000202838D1E1
:10219000606AD8B197480830006840F0010095495E
:1021A0009039C1F89800FEF7D7FC054606E0FEF727
:1021B000D3FC401B022801D9032072E58D4808306A
:1021C000006800F002000028F1D01AE089480830C9
:1021D000006820F0010087499039C1F89800FEF7A7
:1021E000BBFC054606E0FEF7B7FC401B022801D900
:1021F000032056E57F480830006800F00200002800
:10220000F1D1A06A00287DD0A06A02287BD179484C
:102210009038C76807F00301E06A814225D107F0D2
:102220007001206B401EB1EB001F1ED107F4FE4170
:10223000606BB1EB002F18D107F078413820005DBA
:10224000B1EBC06F11D107F4C001A08F0122C2EB26
:102250005000B1EB405F08D107F0C0614020005D45
:10226000C2EB5000B1EB406F66D00C2E62D06148DB
:102270009038006800F0806008B1012011E55D48E9
:102280009038006820F080705A4990390860FEF755
:1022900063FC054606E0FEF75FFC401B022801D9FF
:1022A0000320FEE453489038006800F000700028D6
:1022B000F1D1D4E90B10401E41EA0011606B41EAF4
:1022C0000021A08F0122C2EB500041EA4051402082
:1022D000005DC2EB500041EA40613820005D41EAF8
:1022E000C06044499039C968434A11400843414994
:1022F0009039C8600846006840F080700860084661
:10230000C06801E05BE03DE040F08070C860FEF72F
:1023100023FC054606E0FEF71FFC401B022801D9FE
:102320000320BEE433489038006800F000700028B5
:10233000F1D05AE00120B4E42E489038006800F053
:102340000070E0BB2B489038006840F0807029494D
:10235000903908600846C06840F08070C860FEF799
:10236000FBFB054606E0FEF7F7FB401B022801D900
:10237000032096E41F489038006800F000700028A1
:10238000F1D032E00C2E2ED01A489038006820F0A0
:1023900080701849903908600846006800F00060B5
:1023A00020B90846C06820F00300C8601148903882
:1023B000C068124908400F499039C86000E014E035
:1023C000FEF7CAFB054606E0FEF7C6FB401B0228E7
:1023D00001D9032065E407489038006800F00070D8
:1023E0000028F1D101E001205BE4002059E4000065
:1023F00000700040901002408C809D01FFFFEEFEB7
:1024000070470000F8B50446206846682068856873
:10241000C5F3801048B905F0010030B1C6F3801053
:1024200018B12046E16C8847F8BDC5F3400030B1D3
:10243000C6F3C01018B12046216D8847F4E7C5F3F4
:10244000401030B9C5F3801018B9C5F3002000283A
:102450007CD0C6F3401000287DD0C5F38010F0B1C9
:1024600094F85D0003280ED0206E40F00400206632
:1024700000BF002000902068C0680090206880683D
:10248000009000BF0BE000BF002000902068C068F3
:10249000009020688068009000BF00BFC4E7C5F3CB
:1024A000401088B1206E40F00100206600BF00207F
:1024B00000902068806800902068006820F040004C
:1024C0002168086000BF00BFC5F3002058B1206E2E
:1024D00040F00800206600BF00200090206880685F
:1024E000009000BF00BF206E78B32068406820F0E5
:1024F000E00021684860012084F85D0006F00200D9
:10250000022802D006F0010008B32068406820F0DD
:10251000030021684860A06D50B11048A16D886328
:10252000A06DFEF75DF818B1206E40F04000206607
:10253000606D50B10948616D8863606DFEF750F8B9
:1025400018B1206E40F04000206603E003E0204612
:10255000FFF756FF68E700BF66E700004139000853
:1025600070B504460CB9012070BD606A00B900BFA7
:102570000021A16294F85D0028B9002084F85C0075
:10258000204600F04DF8022084F85D0020680068C5
:1025900020F0400021680860E068B0F5E06F01D9E4
:1025A000002501E04FF48055E068B0F5706F05D06C
:1025B000E068B0F5E06F01D00021A162206B40B966
:1025C000E068B0F5E06F02D90221216301E001214A
:1025D0002163D4E901010843216908436169084383
:1025E000218B01F400710843E1690843216A084323
:1025F000A16A0843216808600421A06901EA10402B
:10260000616A0843616B0843E16808432843216815
:10261000486000202066012084F85D000020A3E7C8
:1026200010B586B00446142101A8FDF71CFE3749F9
:102630002068884267D100BF3548006E40F4805062
:10264000334908660846006E00F48050009000BFD1
:1026500000BF00BF0846C06C40F00100C8640846D7
:10266000C06C00F00100009000BF00BFE0200190AE
:102670000220029000200390032004900520059082
:1026800001A94FF09040FEF775F9224822490860F1
:10269000012048601021204881600021C160802114
:1026A0000161002141618161C1610162FEF746F86B
:1026B00008B1FDF779FF00BF17486065846200BF6D
:1026C0001448143815490860012048600021134857
:1026D0008160C16080210161002141618161C1612E
:1026E0000162FEF72BF808B1FDF75EFF00BF0B4853
:1026F000A065846200BF002211462320FEF7AAFADB
:102700002320FEF797FA06B010BD0000003001400C
:102710000010024030000240D40600201C070020B8
:102720002DE9F04104460E4615460027A06870B911
:102730006068B0F5827F0AD1042084F85D002B46E2
:1027400032463146204600F0D5F8BDE8F08100BFA2
:1027500094F85C00012801D10220F6E7012084F8FA
:102760005C0000BF94F85D00012801D0022794E0CE
:1027700006B10DB9012790E0042084F85D00002027
:1027800020662664A4F84450A4F84650E06420650E
:10279000A087E087A068B0F5004F05D120680068E9
:1027A00020F48040216808602068406820F40050D0
:1027B00021684860E068B0F5E06F06D9206840689D
:1027C00020F48050216848602EE02068406840F482
:1027D000805021684860A06D8069B0F5806F23D17A
:1027E0002068406820F4805021684860B4F84600B2
:1027F00000F0010058B92068406820F400502168BA
:102800004860B4F846004010A4F846000CE0206888
:10281000406840F4005021684860B4F84600012147
:1028200001EB6000A4F846001F48A16D08631F4833
:10283000A16DC8621E48A16D48630020A16D886328
:10284000B4F84630D4F800C00CF10C01226CA06D35
:10285000FDF7FAFF40B1206E40F01000206601271E
:10286000012084F85D0018E02068006800F0400056
:10287000402805D02068006840F0400021680860CA
:102880002068406840F02000216848602068406867
:1028900040F001002168486000BF00BF002084F8BC
:1028A0005C0000BF384650E77F3900089B390008BC
:1028B0005739000810B5044609492068096888425C
:1028C0000DD180220749084804F09CF9012210210B
:1028D0004FF09040FEF73AF901200449087010BD0E
:1028E00070060020D0040020B00300200C0000205F
:1028F000704700002DE9F04704460E4617461D4676
:102900004FF0000A00BF94F85C00012802D10220B9
:10291000BDE8F087012084F85C0000BF94F85D807A
:10292000D4F80490B8F1010F0AD0B9F5827F04D130
:10293000A06810B9B8F1040F02D04FF0020ADFE02E
:102940000EB107B115B94FF0010AD9E094F85D0056
:10295000042802D0052084F85D0000202066A663CC
:10296000A587E5872764A4F84450A4F84650E0649E
:1029700020652068406820F4C04021684860E06815
:10298000B0F5E06F06D92068406820F480502168D7
:1029900048604DE02068406840F4805021684860FD
:1029A000606D8069B0F5806F19D194F83C0000F03B
:1029B000010048B92068406820F4804021684860E0
:1029C000E08F4010E0870AE02068406840F48040D3
:1029D00021684860E08F012101EB6000E087A06D75
:1029E0008069B0F5806F23D12068406820F4805062
:1029F00021684860B4F8460000F0010058B920682A
:102A0000406820F4005021684860B4F84600401047
:102A1000A4F846000CE02068406840F400502168AB
:102A20004860B4F84600012101EB6000A4F84600BC
:102A300094F85D00042806D13548A16D0863354837
:102A4000A16DC86205E03448A16D08633348A16DEB
:102A5000C8623348A16D48630020A16D8863B4F853
:102A60004630D4F800C00CF10C01226CA06DFDF7CB
:102A7000EBFE48B1206E40F0100020664FF0010AD6
:102A8000012084F85D003BE02068406840F00100D0
:102A9000216848600020616D0863616DC862616DE6
:102AA0004863616D8863E38FD4F800C00CF10C02B9
:102AB000A16B606DFDF7C8FE48B1206E40F01000BC
:102AC00020664FF0010A012084F85D0018E02068BC
:102AD000006800F04000402805D02068006840F001
:102AE0004000216808602068406840F020002168AC
:102AF00048602068406840F002002168486000BFDC
:102B000000BF002084F85C0000BF504600E70000D2
:102B10007F3900089B3900088D390008FD3900080D
:102B20005739000810B50446012007490870802273
:102B30000649074804F066F8012210214FF0904042
:102B4000FEF704F810BD00000C000020D0040020A7
:102B5000B0030020704770B504462546681EB0F1EA
:102B6000807F01D301200FE0681E4FF0E021486113
:102B70000F214FF0FF3003F06DFE00204FF0E021F9
:102B8000886107200861002070BD7047704770475A
:102B900030B502460B4600BF92F83C00012801D137
:102BA000022030BD012082F83C0000BF022082F8E4
:102BB0003D001068416810688468174D1068A8428D
:102BC00003D121F470015868014321F070011868A5
:102BD000014310684160104D1068A8420BD0106886
:102BE000B0F1804F07D00D4D1068A84203D00C4DB6
:102BF0001068A84205D124F0800498680443106846
:102C00008460012082F83D0000BF002082F83C0073
:102C100000BF00BFC5E70000002C014000040040D9
:102C20000040014010B504460CB9012010BD94F8D5
:102C30003D0028B9002084F83C00204600F00CF844
:102C4000022084F83D00211D206801F0BBF801201E
:102C500084F83D000020E9E738B504460D492068B6
:102C6000884215D100BF0C48806D40F010000A4921
:102C700088650846806D00F01000009000BF00BF1E
:102C8000002203213620FDF7E5FF3620FDF7D2FFB5
:102C900038BD00000010004000100240704710B521
:102CA000044620680069C0F34000D8B12068C068BD
:102CB000C0F34000B0B16FF002002168086101204C
:102CC00020772068806900F0030018B12046FFF7E4
:102CD000E5FF05E0204600F0BEF8204600F0BCF815
:102CE0000020207720680069C0F38000D8B12068F8
:102CF000C068C0F38000B0B16FF0040021680861C3
:102D0000022020772068806900F4407018B12046C6
:102D1000FFF7C4FF05E0204600F09DF8204600F0D4
:102D20009BF80020207720680069C0F3C000D8B16C
:102D30002068C068C0F3C000B0B16FF0080021681F
:102D40000861042020772068C06900F0030018B1F2
:102D50002046FFF7A3FF05E0204600F07CF8204660
:102D600000F07AF80020207720680069C0F3001096
:102D7000D8B12068C068C0F30010B0B16FF0100087
:102D800021680861082020772068C06900F440703D
:102D900018B12046FFF782FF05E0204600F05BF8FF
:102DA000204600F059F8002020772068006900F0E4
:102DB000010058B12068C06800F0010030B16FF028
:102DC000010021680861204600F048F82068006989
:102DD000C0F3C01058B12068C068C0F3C01030B153
:102DE0006FF08000216808612046FFF7CFFE206861
:102DF0000069C0F3002058B12068C068C0F3C0105B
:102E000030B16FF48070216808612046FFF7BDFE85
:102E100020680069C0F3801058B12068C068C0F312
:102E2000801030B16FF0400021680861204600F04A
:102E300021F820680069C0F3401058B12068C068CC
:102E4000C0F3401030B16FF02000216808612046C7
:102E5000FFF79DFE10BD70477047000010B5044697
:102E600003492068884201D103F03AFF10BD0000F9
:102E70000010004070477047704700002DE9F04790
:102E800004462068C569206806682068876840F69F
:102E90000F0005EA0008B8F1000F0CD105F0200082
:102EA00048B106F0200030B1206E10B12046216EEE
:102EB0008847BDE8F087B8F1000F7DD007F001002A
:102EC00018B906F490700028F7D005F0010048B159
:102ED00006F4807030B1012021680862E06F40F094
:102EE0000100E06705F0020048B107F0010030B1D1
:102EF000022021680862E06F40F00400E06705F0FE
:102F0000040048B107F0010030B1042021680862D4
:102F1000E06F40F00200E06705F0080060B106F0E5
:102F2000200010B907F0010030B1082021680862C4
:102F3000E06F40F00800E06705F4006050B106F073
:102F4000806038B14FF4006021680862E06F40F0A3
:102F50002000E067E06F80B305F0200038B106F094
:102F6000200020B1206E10B12046216E8847D4F891
:102F70007C902068806800F04000402802D009F072
:102F8000280030B3204601F07EF82068806800F009
:102F90004000402819D12068806820F04000216856
:102FA0008860E06E68B12148E16E8863E06EFDF7ED
:102FB00017FB10B1E06E01E011E00FE0816B884774
:102FC0000CE02046FFF758FF08E02046FFF754FFCB
:102FD00004E02046FFF750FF0020E06769E705F4B2
:102FE000801050B107F4800038B14FF48010216890
:102FF00008622046FFF73FFF5BE705F0800040B125
:1030000006F0800028B1606E10B12046616E8847DE
:103010004FE705F0400030B106F0400018B12046FF
:1030200001F042F845E700BF43E700006F400008A9
:1030300010B504460CB9012010BDA06900B100E034
:1030400000BF606F28B9002084F87000204600F0AF
:1030500029F8242060672068006820F001002168BA
:103060000860204601F030F8012800D1E4E7606AEA
:1030700010B1204600F048FF2068406820F49040DE
:10308000216848602068806820F02A0021688860F4
:103090002068006840F0010021680860204600F0C8
:1030A000AFFFC9E710B586B00446142101A8FDF7AB
:1030B000DAF81B492068884230D100BF1948006EF9
:1030C00040F48040174908660846006E00F48040CE
:1030D000009000BF00BF00BF0846C06C40F0020077
:1030E000C8640846C06C00F00200009000BF00BF3A
:1030F000C020019002200290002003900320049041
:103100000720059001A90848FDF734FC002211466C
:103110002520FDF79FFD2520FDF78CFD06B010BD95
:10312000003801400010024000040048704700BF12
:10313000FEE730B50B46002100BF16E00A24B4EBD1
:10314000107F05D9302404EB107403F8114005E01A
:10315000412404EB10740A3C03F8114000010025DF
:103160004C00641C1D554C1CE1B29142E6DB30BDA5
:1031700008B500BF0E48806C40F001000C4988641F
:103180000846806C00F00100009000BF00BF0022E4
:1031900002210C20FDF75EFD0C20FDF74BFD002207
:1031A00002210D20FDF756FD0D20FDF743FD08BD62
:1031B0000010024000B587B0142102A8FDF753F8B3
:1031C00000BF2148C06C40F001001F49C864084698
:1031D000C06C00F00100019000BF00BF00BF0846B6
:1031E000C06C40F00200C8640846C06C00F00200E9
:1031F000019000BF00BF00224FF4C2614FF0904029
:10320000FDF7A4FC012002901048039000200490D8
:1032100002A94FF09040FDF7ADFB4FF4C260029061
:103220000120039000200490059002A94FF09040E7
:10323000FDF7A0FB002211460620FDF70BFD06203E
:10324000FDF7F8FC07B000BD00100240000031108F
:1032500010B51148114908604FF482704860002190
:103260000E4881604FF4E061C160022101610121DB
:103270004161490281613821C161002101624162DD
:1032800081620721C162002101634163FFF768F990
:1032900008B1FDF789F910BD00300140700600202B
:1032A0000EB500200090019002900E480E49086073
:1032B0005020486000210C4881606421C1600021D9
:1032C0008161FFF7AFFC08B1FDF76EF900200090B7
:1032D000029069460448FFF75BFC08B1FDF764F90A
:1032E0000EBD0000001000406407002010B50D481E
:1032F0000D4908604FF4E130486000210A488160C0
:10330000C16001610C21416100218161C1610162E3
:103310000020054948620846FFF78AFE08B1FDF71C
:1033200043F910BD00380140A407002010B5002269
:103330000D490E4801F0E2FD08B1FDF735F90C49E1
:103340000A4802F00BF908B1FDF72EF909490748C0
:1033500001F065FA08B1FDF727F9044802F0C8F951
:1033600008B1FDF721F910BD10000020240800204D
:10337000A00000207000002000BFFEE770472DE98C
:10338000F0470546B6E12868B0F8449009F00F060A
:10339000002E7ED109F01000A8BB00BF2968098863
:1033A00048F60F7201EA020040F400412A681180D9
:1033B00000BF05F128042868B0F85010207801EB10
:1033C000C000801C296801F58061405AC0F30900E3
:1033D000E061E16960690844606100212846FDF709
:1033E000E9FC95F824000028CCD0A0690028C9D1B8
:1033F00095F8240040F080002968A1F84C000020D6
:1034000085F8240076E1FFE705F594742868B0F8A4
:10341000008008F4006028B32868B0F850102078C5
:1034200001EBC000801D296801F58061405AC0F39E
:103430000900E061A18B8BB2E28805F50C71286868
:1034400003F09CF900BF2968098840F68F7201EAF1
:10345000020040F080012A68118000BF2846FEF774
:1034600027F847E108F4004000288BD000BF296806
:10347000098840F68F7201EA020040F080012A6854
:10348000118000BF2868B0F85010207801EBC00010
:1034900000E066E0801D296801F58061405AC0F3B4
:1034A0000900E061E06990B1606980B1B4F81CC0C6
:1034B0001FFA8CF3E2886169286803F05FF9E1691B
:1034C00060690844606100212846FDF781FC00BF67
:1034D0002A682968B1F850100A4402F206410846E9
:1034E00000BF236953B9038848F2FF3C03EA0C0389
:1034F0000380038843F4004303801EE023693E2BCE
:103500000DD800BF23695908237C03F0010303B1E0
:10351000491C4FF6FF7303EA812303800DE000BFCF
:1035200023695909237C03F01F0303B9491E4FF493
:10353000004343EA8123038000BF00BF00BF00BFF8
:10354000296809884BF68F7201EA020080F48050E6
:1035500080F4005040F4004141F080012A6811805D
:10356000C8E07100286830F8118008F40040002895
:103570007DD000BF7200296831F8121040F68F72BA
:1035800001EA020040F0800173002A6822F813105B
:1035900000BF05F5947000EB4614207BA8B928689D
:1035A000B0F85010207801EBC000801D296801F5AB
:1035B0008061405AC0F30907002F4DD0E28861694D
:1035C0003B46286803F0DAF846E000BF00BF2278E7
:1035D0005200296831F8121048F68F7201EA020091
:1035E00040F4004141F0C00123785B002A6822F8D2
:1035F000131000BF00BF21784900286830F811007F
:1036000000F48040A0B12868B0F85010207801EB99
:10361000C000801C296801F58061405AC0F3090789
:10362000D7B1228961693B46286803F0A7F813E007
:103630002868B0F85010207801EBC000801D296880
:1036400001F58061405AC0F309072FB162896169B1
:103650003B46286803F092F8E0693844E06160690D
:1036600038446061A06920B12069B84200E00BE0F5
:1036700004D921782846FDF7ABFB05E021782846E0
:10368000D4E90523FDF768FC08F0800058B305F184
:10369000280000EB461400BF7200296831F81210B0
:1036A00048F60F7201EA020040F4004173002A68F4
:1036B00022F8131000BF2868B0F85010207801EBF2
:1036C000C000801C296801F58061405AC0F30900E0
:1036D000E061E169606908446061A06920B921780E
:1036E0002846FDF767FB05E021782846D4E9052345
:1036F000FDF796FC2868B0F8440000F4004000286C
:103700007FF441AEBDE8F087704700002DE9F0413D
:1037100004460F4600255B48C06800F0030090B1E6
:103720005848C06800F003002168884209D1206829
:1037300038B15448C068C0F30210401C6168884228
:1037400033D0012531E02068012804D0022809D0B7
:1037500003281AD10DE04B48006800F0020000B9C0
:10376000012514E04748006800F4806000B9012595
:103770000DE04448006800F4003028B94148006872
:1037800000F4802000B9012501E0012500BF00BF41
:103790005DB9D4E90010401E41EA00103949C968FA
:1037A00021F0730108433749C860002D67D13548BF
:1037B000006820F0806033490860FDF7CDF90646C7
:1037C00006E0FDF7C9F9801B022801D9032505E0B1
:1037D0002C48006800F000600028F2D100BFC5BB93
:1037E00067B9A0680002217B40EAC16025490969E8
:1037F000254A114008432349086120E0012F0FD1D9
:10380000A0680002218A0122C2EB510140EA415026
:103810001C4909691D4A114008431A4908610EE014
:10382000A0680002217D0122C2EB510140EA416003
:1038300014490969164A11400843124908611148A0
:10384000006840F080600F490860FDF785F9064682
:1038500007E014E0FDF780F9801B022801D9032559
:1038600005E00848006800F000600028F2D000BFC2
:103870002DB904480069A169084302490861284636
:10388000BDE8F08100100240FF80FF07FF809FFF2E
:10389000FF80FFF9F8B5044600262348806D00F04C
:1038A000805018B1FDF78AFE054616E000BF1E489D
:1038B000806D40F080501C4988650846806D00F09E
:1038C0008050009000BF00BFFDF778FE0546164807
:1038D000806D20F0805014498865B5F5007F07D1D0
:1038E000802C10D9A02C01D902260CE001260AE078
:1038F000802C01D9032606E0802C01D1022602E0AB
:10390000702C00D101260948006820F007003043E0
:10391000064908600846006800F00700B04201D080
:103920000120F8BD0020FCE700100240002002400A
:1039300010B50248FEF766FD10BD000070060020BD
:1039400070B50546AC6A0020A4F84600E087204622
:10395000FEF756FD70BD70B50546AC6A206840683C
:1039600020F0030021684860206E40F010002066BF
:10397000012084F85D002046FEF742FD70BD70B561
:103980000446A56A2846FEF7B3FF70BD70B504462D
:10399000A56A2846FFF7DEF870BD70B50546AC6A2B
:1039A000FDF7DAF806462868006800F020002028B5
:1039B0001FD02068406820F02000216848602068FF
:1039C000406820F0030021684860324664212046A8
:1039D00000F048F808B1202020660020A4F8460036
:1039E000012084F85D00206E18B12046FEF708FD26
:1039F00070BD2046FEF75EFF00BFF9E770B50546D3
:103A0000AC6AFDF7A9F806462868006800F02000B7
:103A1000202822D02068406820F0200021684860DB
:103A200032466421204600F05EF818B1206E40F066
:103A3000200020662068406820F00300216848606C
:103A40000020E087A4F84600012084F85D00206E85
:103A500018B12046FEF7D4FC70BD2046FFF762F88F
:103A600000BFF9E7F8B504460E4615466068B0F5A4
:103A7000827F0DD1A068B0F5004F03D0A068B0F5EB
:103A8000806F05D12068006820F040002168086040
:103A90003346002280212046009500F0ABF828B183
:103AA000206E40F0200020660320F8BD6068B0F56D
:103AB000827F16D1A068B0F5004F03D0A068B0F5A2
:103AC000806F0ED1334600224FF4C061204600952E
:103AD00000F03BF828B1206E40F020002066032063
:103AE000E3E70020E1E7F8B504460E461546334605
:103AF00000224FF4C0512046009500F026F828B16E
:103B0000206E40F0200020660320F8BD33460022DE
:103B100080212046009500F06DF828B1206E40F01D
:103B2000200020660320F0E7334600224FF4C061F6
:103B30002046009500F009F828B1206E40F02000E2
:103B400020660320E1E70020DFE72DE9F04104468D
:103B50000E4617461D46DDF8188044E0B6F5C06FE6
:103B600002D10FB92068007B681CD8B3FCF7F4FFC2
:103B7000A0EB0800A84200D2A5BB2068406820F056
:103B8000E000216848606068B0F5827F0DD1A068D0
:103B9000B0F5004F03D0A068B0F5806F05D1206864
:103BA000006820F0400021680860A06AB0F5005F5E
:103BB0000DD100BF2068006820F400502168086023
:103BC0002068006840F400502168086000BF0120B0
:103BD00084F85D0000BF002084F85C0000BF032073
:103BE000BDE8F081FFE7206880683040B842B5D179
:103BF0000020F5E72DE9F04104460E4617461D4624
:103C0000DDF818803EE0681CD8B3FCF7A5FFA0EBF8
:103C10000800A84200D2A5BB2068406820F0E00060
:103C2000216848606068B0F5827F0DD1A068B0F56A
:103C3000004F03D0A068B0F5806F05D12068006800
:103C400020F0400021680860A06AB0F5005F0DD147
:103C500000BF2068006820F40050216808602068D8
:103C6000006840F400502168086000BF012084F81B
:103C70005D0000BF002084F85C0000BF0320BDE8A9
:103C8000F081FFE7206880683040B04201D1012018
:103C900000E00020B842B6D10020F0E7704710B530
:103CA000FCF760FF10BD10B500F001F810BD00B5C5
:103CB000B1B0442120A8FCF7D6FA14211BA8FCF7C8
:103CC000D2FA682101A8FCF7CEFA1020209001203A
:103CD0002690002027906020289002202A90012121
:103CE00020A8C16201632821416307218163022169
:103CF000C1630164FDF7D0FF08B1FCF755FC0F204C
:103D00001B9003201C9000201D901E901F900421EA
:103D10001BA8FDF763FE08B1FCF746FC42F2010068
:103D20000190002009904FF08060159001200290D2
:103D30000121039118210491072105910221069187
:103D400007910105089101A8FDF740FC08B1FCF7B7
:103D50002BFC4FF40070FDF7E1FB08B1FCF724FCED
:103D600031B000BD1048006840F470000E49086092
:103D70000E48006840F001000C490860002088608F
:103D8000084600680A490840084908608814C86065
:103D90000846006820F48020086000208861C8037D
:103DA000014980390860704788ED00E0001002404A
:103DB000FFFFF6EA10B50248FEF771FF10BD0000E4
:103DC0006407002010B502681B4B984205D0B0F183
:103DD000804F02D0194B984203D122F070024B68F9
:103DE0001A43154B98420BD0B0F1804F08D0134BBB
:103DF000984205D0124B984202D0124B984203D100
:103E000022F44072CB681A4322F080034C6943EAE3
:103E1000040202608B68C3620B688362064B98429F
:103E200005D0074B984202D0064B984201D10B694E
:103E300003630123436110BD002C014000040040D6
:103E400000400140004401401CB501468B68CA682F
:103E50000A4804684068E41A60EB0200631C40F101
:103E60000000CDE900300C694869DDE90032E31A51
:103E7000904101D201201CBD0020FCE70000002081
:103E800002490A6849688260C160704700000020EA
:103E90002DE9F0472DED028B0446B0EE408A0D4629
:103EA00016461F46DDF8288084F80080DFED120AF0
:103EB00080EE880AF7EE000A20EE200A10EE109A33
:103EC0004846FCF7EFF9206161610C4801684068E1
:103ED000A160E060A5610A480A49097840F82140DC
:103EE0002677677707480078401C06490870BDECC4
:103EF000028BBDE8F087000000401C460000002057
:103F0000AC0100200800002090F8241001F001010D
:103F100039B10168496821F40031826A11430268AD
:103F2000516090F8241001F00201022907D10168C4
:103F3000496821F48031C26A11430268516090F8E7
:103F4000241001F00401042907D10168496821F413
:103F50008021026B11430268516090F8241001F037
:103F60000801082907D10168496821F40041426B22
:103F700011430268516090F8241001F010011029DB
:103F800007D10168896821F48051826B114302686E
:103F9000916090F8241001F02001202907D10168D8
:103FA000896821F40051C26B11430268916090F856
:103FB000241001F04001402913D10168496821F41F
:103FC0008011026C114302685160016CB1F5801FD1
:103FD00007D10168496821F4C001426C11430268AD
:103FE000516090F8241001F08001802907D1016808
:103FF000496821F40021826C1143026851607047C6
:1040000038B504460020E067FCF7A6FD05462068A9
:10401000006800F0080008280CD16FF07E402B46A5
:1040200000224FF400110090204600F066FA08B11B
:10403000032038BD2068006800F0040004280CD17B
:104040006FF07E402B4600224FF480010090204606
:1040500000F053FA08B10320EBE720206067A06767
:1040600000BF002084F8700000BF00BFE1E770B51A
:104070000546AC6A0020A4F85A00A4F85200204675
:10408000FEF7FAFE70BD0168096821F490710268BC
:1040900011600168896821F00101026891602021A6
:1040A000816700210166704710B5044620680068EA
:1040B00020F04000216808602020606700206066D2
:1040C0002046FFF733F810BD2DE9F84F04460027CE
:1040D000002000908146F9492068884200D100E024
:1040E00000BF2169A068084361690843E16940EAAB
:1040F000010820680068F249084040EA0800216889
:1041000008602068406820F44050E1680843216856
:104110004860D4F81880E9492068884202D0206AB3
:1041200040EA08082068806820F4306040EA08000F
:104130002168886000BFE3492068884216D1E248C0
:10414000006800F0030030B1012808D0022804D034
:10415000032808D105E0012507E0022505E0042534
:1041600003E0082501E0102500BF6FE0D749206873
:10417000884216D1D448006800F00C0030B1042801
:1041800008D0082804D00C2808D105E0002507E055
:10419000022505E0042503E0082501E0102500BF05
:1041A00054E0CB492068884216D1C748006800F027
:1041B000300030B1102808D0202804D0302808D191
:1041C00005E0002507E0022505E0042503E00825B9
:1041D00001E0102500BF39E0BE492068884216D1B1
:1041E000B948006800F0C00030B1402808D08028ED
:1041F00004D0C02808D105E0002507E0022505E02D
:10420000042503E0082501E0102500BF1EE0AB49AE
:104210002068884219D1AC48006800F4406048B179
:10422000B0F5806F0AD0B0F5006F05D0B0F5406FE3
:1042300008D105E0002507E0022505E0042503E09C
:10424000082501E0102500BF00E0102500BF9B49B4
:10425000206888427ED135B1022D08D0042D09D0C6
:10426000082D0ED10AE0FDF77DFC81460CE0DFF859
:10427000689209E0FDF79AFC814605E04FF4004999
:1042800002E00120009000BF00BFB9F1000F0AD08A
:10429000606800EB4000484503D86068000348456B
:1042A00002D2012000901FE135B1022D1AD0042D59
:1042B0002AD0082D53D13DE0FDF754FC06464FF4BB
:1042C0008070A6FB0031D4F804E04FEA5E0013EBE7
:1042D000000B41F10001724600235846FBF776FFC0
:1042E00007463FE0D4F804E04FEA5E0000217B4B34
:1042F00010EB030B41EB010C72460B46584661462E
:10430000FBF764FF07462DE0FDF750FC06464FF42F
:104310008070A6FB0031D4F804E04FEA5E0013EB96
:10432000000B41F10001724600235846FBF74EFF97
:10433000074617E0D4F804E04FEA5E0000214FF48E
:10434000000310EB030B41EB010C72460B46584681
:10435000614600E013E0FBF739FF074602E0012069
:10436000009000BF00BFB7F5407F05D3B7F5801FB1
:1043700002D22068C760B7E001200090B4E0E06995
:10438000B0F5004F54D1092D3AD2DFE805F0051001
:104390001B39243939392F00FDF7E4FB064670003C
:1043A000616800EB5100B0FBF1F087B22BE0FDF744
:1043B000EBFB06467000616800EB5100B0FBF1F0CA
:1043C00087B220E04649606801EB50006168B0FBAD
:1043D000F1F087B217E0FDF7E9FB0646700061686F
:1043E00000EB5100B0FBF1F087B20CE04FF48031EC
:1043F000606801EB50006168B0FBF1F087B202E049
:104400000120009000BF00BF102F0ED3B7F5803FF2
:104410000BD24FF6F07007EA000AC7F342004AEAEF
:10442000000A2068C0F80CA05EE0012000905BE06C
:10443000092D37D2DFE805F0050F1936223636365A
:104440002C00FDF78FFB0646616806EB5100B0FBC0
:10445000F1F087B229E0FDF797FB0646616806EBAD
:104460005100B0FBF1F087B21FE01B49606801EB1F
:1044700050006168B0FBF1F087B216E0FDF796FBE3
:104480000646616806EB5100B0FBF1F087B20CE024
:104490004FF40041606801EB50006168B0FBF1F03F
:1044A00087B202E00120009000BF00BF102F19D397
:1044B000B7F5803F16D22068C76015E00080004045
:1044C000F369FFEF003801408810024000440040CB
:1044D00000480040004C00400024F400000024F498
:1044E0000048E801012000900020206660660098E6
:1044F00000F000B818BCBDE8E08F2DE9F04104469B
:104500000D4617469846069E45E0701C002842D08E
:10451000FCF722FBA0EB0800B04200D8B6B9206837
:10452000006820F4D070216808602068806820F05E
:1045300001002168886020206067A06700BF00201C
:1045400084F8700000BF0320BDE8F0812068006897
:1045500000F00400F8B12068C069C0F3C020D0B1F9
:104560004FF40060216808622068006820F4D07071
:10457000216808602068806820F001002168886058
:1045800020206067A067E06700BF002084F870000B
:1045900000BF0320D8E72068C0692840A84201D1A5
:1045A000012000E00020B842AFD00020CCE700009E
:1045B00010B50248FEF762FC10BD0000A407002001
:1045C0002DE9F04104460D46D4F8B862D4F8C07223
:1045D000D4F8B80268B305EB850104F1140000EBD0
:1045E00081008068F8B105EB850104F1140000EB4F
:1045F0008100816807F1280000EB45100069B1FBDC
:10460000F0F200FB121070B9002105EB850204F1F5
:10461000140000EB8200816000231A4629462046E0
:1046200000F057FF02E00020C6F814020020BDE8A9
:10463000F0810220FBE770B504460E46D4F8B8526C
:104640003146204600F08AFDC5F80C02D4F8B802C5
:1046500048B1D5F80402D4F8BC12CA6805F5037154
:104660009047002070BD0220FCE770B504460E465E
:1046700000258121204600F07CFC0021E16201211F
:10468000204600F076FC0021C4F86C1182212046FF
:1046900000F06FFC00212164D4F8B80250B1D4F8C6
:1046A000BC1248688047D4F8B80201F0D4F9002061
:1046B000C4F8B802284670BD70B50546D5F8B842B2
:1046C000D5F8BC0278B194F80002FF280BD094F81A
:1046D000012294F80002D5F8BC128B682146984755
:1046E000FF2084F80002002070BD000001460A206F
:1046F00008800148704700009400002001464320D4
:1047000008800148704700001C010020014643203A
:104710000880014870470000D8000020014643206F
:104720000880014870470000600100202DE9F04139
:1047300004460F460026207C88B94FF400730222FD
:104740008121204600F072FD0121E1624B0202222C
:10475000204600F06BFD0121C4F86C110FE04023EE
:1047600002228121204600F061FD0121E162402307
:104770000222204600F05AFD0121C4F86C110823E2
:1047800003228221204600F051FD012121644FF4D3
:10479000077001F061F9C4F8B802D4F8B80208B99A
:1047A00001261CE0D4F8B852D4F8BC12086880473F
:1047B0000020C5F81402C5F81802207C40B94FF457
:1047C000007301212046D5F8042200F060FD06E0C8
:1047D000402301212046D5F8042200F058FD304640
:1047E000BDE8F08170B50446D4F8B852D4F8B802E8
:1047F00098B1207C40B94FF4007301212046D5F8D0
:10480000042200F044FD06E0402301212046D5F8B3
:10481000042200F03CFD002070BD0220FCE70246AF
:10482000022011B1C2F8BC12002070470246D2F833
:10483000B832C3F804120020704710B50346D3F80D
:10484000B842C4F80812C4F81022002010BD2DE9A7
:10485000FC4105460C46D5F8B86200200190009056
:104860000027207800F0600040B320285FD1E08866
:10487000E0B1207800F0800060B1E2886078D5F87F
:10488000BC128B6831469847E2883146284600F0D2
:10489000E6F812E0607886F80002A07986F8010256
:1048A000E2883146284600F0B9F806E06078D5F88D
:1048B000BC1200228B68214698473EE0607820B108
:1048C0000A2812D00B282AD11FE095F89C02032851
:1048D00005D102226946284600F0C1F804E02146CD
:1048E000284600F08FF802271FE095F89C02032865
:1048F00005D1012201A9284600F0B1F804E02146C3
:10490000284600F07FF802270FE095F89C02032864
:1049100004D02146284600F075F8022705E021461C
:10492000284600F06FF8022700BF00BF05E02146CF
:10493000284600F067F8022700BF00BF3846BDE8F0
:10494000FC8170B50546D5F8B842D5F8B802A8B1D3
:10495000D4F8140280B90120C4F81402D4F810125B
:104960002963B4F8100283B281212846D4F80822C2
:1049700000F0AFFD002070BD0120FCE70220FAE747
:1049800070B504460D46D4F8B40229464268204664
:104990009047002070BD70B504460D4694F89C0207
:1049A000012804D0022803D003280CD101E000BF65
:1049B00000BF6888012805D10020C4F8A402204661
:1049C00000F05EF804E02946204600F01BF800BF26
:1049D00000BF70BD70B506460C4615462B462246F4
:1049E0000021304600F053FC002070BD70B5064633
:1049F0000C4615462B4622460021304600F069FD44
:104A0000002070BD70B504460D468021204600F0A0
:104A100016FD0021204600F012FD70BD70B5044661
:104A20000E4615460320C4F894024FF4AE700551AB
:104A3000001D05512B4632460021204600F027FC80
:104A4000002070BD10B504460520C4F89402002370
:104A50001A461946204600F01AFC002010BD70B519
:104A600004460E4615460220C4F89402E56125620C
:104A70002B4632460021204600F02BFD002070BD61
:104A800010B504460420C4F8940200231A461946BF
:104A9000204600F01EFD002010BD000070B5054648
:104AA0000C462DB92246064906A000F0FEF904E0A6
:104AB0002246034903A000F0F8F9014870BD000048
:104AC000E80A002043444320436F6E666967000094
:104AD0000246122008800148704700003000002084
:104AE00070B505460C462DB92246064906A000F0D1
:104AF000DCF904E02246034903A000F0D6F901489E
:104B000070BD0000E80A002043444320496E7465EC
:104B10007266616365000000024604200880014857
:104B2000704700005000002070B505460C46224634
:104B3000024903A000F0B9F9004870BDE80A00205E
:104B400053544D6963726F656C656374726F6E69FF
:104B50006373000070B505460C462DB92246064920
:104B600006A000F0A2F904E02246034903A000F0E9
:104B70009CF9014870BD0000E80A002053544D33F1
:104B800032205669727475616C20436F6D506F727C
:104B90007400000070B505460C461A202080FBF713
:104BA00005FD014870BD00005400002002460C20A5
:104BB00008800148704700004400002070B504469A
:104BC0000D46E888012804D029462046FFF71AFF41
:104BD0001EE094F89C02012804D0022803D0032888
:104BE00010D109E000BF0020A060012204F10801FB
:104BF0002046FFF734FF0AE00122211D2046FFF77F
:104C00002EFF04E029462046FFF7FCFE00BF00BF50
:104C100070BDF8B504460E46002000900027002520
:104C200070880012062874D006DC01281BD00228E8
:104C300021D003286ED132E007286CD00F28F9D19B
:104C4000D4F8B002C06938B1207CD4F8B012CA6977
:104C500069469047074605E031462046FFF7D2FEF9
:104C6000681CC5B2CBE0207CD4F8B0120A68694653
:104C700090470746C3E0207C40B9D4F8B402816A6B
:104C80006846884707460220787007E0D4F8B402E7
:104C9000C16A68468847074602207870AFE0B0785E
:104CA00006287AD2DFE800F00316293F5265D4F8CF
:104CB000B002406838B1207CD4F8B0124A68694626
:104CC0009047074605E031462046FFF79BFE681CEB
:104CD000C5B269E0D4F8B002806838B1207CD4F85D
:104CE000B0128A6869469047074605E0314620467B
:104CF000FFF788FE681CC5B256E0D4F8B002C06861
:104D000050B1207CD4F8B012CA6869469047074673
:104D100008E04BE06CE059E031462046FFF772FEB8
:104D2000681CC5B240E0D4F8B002006938B1207CFC
:104D3000D4F8B0120A6969469047074605E0314643
:104D40002046FFF75FFE681CC5B22DE0D4F8B00224
:104D5000406938B1207CD4F8B0124A69694690475E
:104D6000074605E031462046FFF74CFE681CC5B2F9
:104D70001AE0D4F8B002806940B1207CD4F8B012B7
:104D80008A6969469047074606E006E031462046B4
:104D9000FFF738FE681CC5B206E031462046FFF733
:104DA00031FE681CC5B200BF00BF28E0207C30B9CE
:104DB000D4F8B402416B68468847074605E031469F
:104DC0002046FFF71FFE681CC5B218E0207C40B9E2
:104DD000D4F8B402016B684688470746072078700C
:104DE00005E031462046FFF70DFE681CC5B206E01F
:104DF00031462046FFF706FE681CC5B200BF00BF63
:104E000005B1F8BDBDF8000088B1F08878B1F08830
:104E1000BDF80010884202DDBDF8000000E0F08817
:104E20000090BDF8002039462046FFF718FEF088B4
:104E300010B92046FFF724FE00BFE2E7014600203C
:104E400002E0421CD0B2491C0A78002AF9D170470E
:104E500070B504460D4694F89C02012804D002283F
:104E600003D003281AD101E000BF00BFE888022860
:104E700004D029462046FFF7C5FD14E00120E0607C
:104E8000D4F8A40218B1E06840F00200E060022209
:104E900004F10C012046FFF7E2FD04E0294620461C
:104EA000FFF7B0FD00BF00BF70BD2DE9F041044623
:104EB0000D4617460026FCB12046FFF7BFFF022132
:104EC00001EB400038803A783046711CCEB22A544B
:104ED00003223046711CCEB22A540AE014F8012B8A
:104EE0003046711CCEB22A5400223046711CCEB21C
:104EF0002A5420780028F1D1BDE8F08170B504462D
:104F00000D4616460CB9022070BDD4F8B40210B19B
:104F10000020C4F8B4020DB1C4F8B052012084F8E6
:104F20009C022670204600F023F90020ECE72DE9D2
:104F3000F04104460D46002600272946D4F8C00259
:104F4000FBF785FF064636B1012E06D0022E06D0AD
:104F5000032E08D105E0002707E0022705E001271E
:104F600003E0022701E0022700BF00BF3846BDE88A
:104F7000F0812DE9F04104460D4600260027294620
:104F8000D4F8C002FBF732FF064636B1012E06D038
:104F9000022E06D0032E08D105E0002707E00227E5
:104FA00005E0012703E0022701E0022700BF00BF60
:104FB0003846BDE8F0812DE9F04104460E4617461B
:104FC000002E64D104F11405D4F89402022848D1CB
:104FD000D5E90301884210D9D5E90301401AE860F8
:104FE000A88982B239462046FFF700FD00231A4601
:104FF0001946204600F04BF93EE02969A868B0FB4D
:10500000F1F201FB1200B8B92969A868884213D3EC
:10501000A868D4F8981288420ED200221146204681
:10502000FFF7E4FC0020C4F8980200231A46194652
:10503000204600F02CF91FE0D4F8B402C06840B15B
:1050400094F89C02032804D1D4F8B402C168204625
:1050500088478021204600F0F2F92046FFF7F2FC55
:105060000AE0D4F89402042802D0D4F8940218B9C3
:105070008021204600F0E3F994F8A002012818D11D
:10508000204600F073FA002084F8A00211E0D4F862
:10509000B402406950B194F89C02032806D1D4F8B8
:1050A000B402314642692046904702E00220BDE842
:1050B000F0810020FBE72DE9F04104460E4617463B
:1050C000BEBB04F5AA75D4F89402032825D1D5E90E
:1050D0000301884210D9D5E90301401AE860D5E9F7
:1050E0000301884201D2E86800E0286982B23946AB
:1050F0002046FFF76FFC2FE0D4F8B402006940B1FE
:1051000094F89C02032804D1D4F8B4020169204623
:1051100088472046FFF7B4FC1EE0D4F89402052827
:105120001AD10020C4F894020021204600F087F92B
:1051300012E0FFE7D4F8B402806950B194F89C0201
:10514000032806D1D4F8B40231468269204690473C
:1051500002E00220BDE8F0810020FBE770B50446C4
:105160000D462946D4F8C002FBF7ABFE70BD000027
:1051700010B50446FCF718FA1E48C0F87042C4F88F
:10518000C0021D481B4908600820486002211948D8
:1051900081600161002141618161C1610162FCF7AF
:1051A0005CF808B1FBF700FA04F53074182300220C
:1051B00011462068FBF7E0FD58230022802120687B
:1051C000FBF7DAFDC023002281212068FBF7D4FD24
:1051D0004FF48873002201212068FBF7CDFD206881
:1051E000A4F530744FF4807300228221FBF7C4FDD4
:1051F000002010BDE81E00200068004010B50246E7
:10520000D2F8C03201F08000802807D101F07F047D
:1052100003F1280000EB4410807810BD01F07F04FA
:1052200003F5947000EB44108078F6E72DE9F04721
:1052300004460F4615461E464FF00008C1462B4651
:1052400032463946D4F8C002FBF744FE8046B8F136
:10525000000F09D0B8F1010F09D0B8F1020F09D041
:10526000B8F1030F0CD108E04FF000090BE04FF04C
:10527000020908E04FF0010905E04FF0020902E0E1
:105280004FF0020900BF00BF4846BDE8F0872DE996
:10529000F04704460D4616461F464FF00008C1462B
:1052A0003B4632462946D4F8C002FBF755FE8046FD
:1052B000B8F1000F09D0B8F1010F09D0B8F1020F11
:1052C00009D0B8F1030F0CD108E04FF000090BE052
:1052D0004FF0020908E04FF0010905E04FF0020924
:1052E00002E04FF0020900BF00BF4846BDE8F0876A
:1052F00010B504464023002211462046FFF796FFD2
:1053000001214FF4AC70015140214FF4B2700151B2
:105310004023002280212046FFF788FF0121A16160
:1053200040216162012084F89C020020C4F89402AC
:105330006060C4F8A402D4F8B80228B12179D4F886
:10534000B402426820469047002010BD014691F803
:105350009C02042803D191F89D0281F89C02002050
:10536000704710B5044694F89C02032808D1D4F87D
:10537000B402C06920B1D4F8B402C169204688479C
:10538000002010BD02461174002070472DE9F04145
:1053900004460D46002600272946D4F8C002FCF733
:1053A0006CF8064636B1012E06D0022E06D0032E2A
:1053B00008D105E0002707E0022705E0012703E008
:1053C000022701E0022700BF00BF3846BDE8F08198
:1053D00070B504460D46294604F52A7000F0AAF877
:1053E0000120C4F8940240F2AE20005BC4F8980299
:1053F00094F8A80200F01F0020B1012808D002286C
:1054000012D10BE004F52A71204600F078F913E080
:1054100004F52A71204600F0DFFA0DE004F52A7148
:10542000204600F0BDF907E094F8A80200F08001E2
:10543000204600F004F800BF00BF002070BD2DE939
:10544000F04104460D46002600272946D4F8C00244
:10545000FBF7A6FD064636B1012E06D0022E06D079
:10546000032E08D105E0002707E0022705E0012709
:1054700003E0022701E0022700BF00BF3846BDE875
:10548000F08170B5044600250026D4F8C002FCF770
:1054900018F8054635B1012D06D0022D06D0032D92
:1054A00008D105E0002607E0022605E0012603E01A
:1054B000022601E0022600BF00BF304670BD014653
:1054C00091F89C0281F89D02042081F89C02002042
:1054D00070472DE9F04704460D4616461F464FF02B
:1054E0000008C1463B4632462946D4F8C002FBF7C5
:1054F00097FD8046B8F1000F09D0B8F1010F09D02F
:10550000B8F1020F09D0B8F1030F0CD108E04FF049
:1055100000090BE04FF0020908E04FF0010905E037
:105520004FF0020902E04FF0020900BF00BF4846F9
:10553000BDE8F0870A7802704A7842708B78CA78A2
:1055400003EB022242800B794A7903EB022282802C
:105550008B79CA7903EB0222C28070470246002091
:1055600011B1C2F8B41200E00220704701460020D9
:10557000704770B504460D46A88810BBE88800BB8C
:10558000688880281DD2A87800F07F0694F89C02D5
:10559000032804D129462046FFF734FA15E084F8A1
:1055A0009E6231462046FFF7F1FE2046FFF768FA7B
:1055B0001EB1022084F89C0207E0012084F89C02BE
:1055C00003E029462046FFF71DFA70BD70B504467A
:1055D0000D460226D4F8B40238B1D4F8B4022946F4
:1055E00002682046904700B90026304670BD000092
:1055F00070B504460D46A87836490870084600780C
:10560000012804D929462046FFF7FCF960E094F808
:105610009C02022802D003284FD11CE02D480078BC
:10562000A8B12C4800786060032084F89C022948C7
:1056300001782046FFF7CAFF022804D129462046F8
:10564000FFF7E0F970BD2046FFF71AFA02E02046A6
:10565000FFF716FA3BE01F48007870B9022084F883
:105660009C021C48007860601A4801782046FFF7C9
:1056700087F92046FFF704FA1EE0164909786068AA
:10568000884216D021792046FFF77AF91148007830
:105690006060104801782046FFF798FF022804D187
:1056A00029462046FFF7AEF9CCE72046FFF7E8F998
:1056B00002E02046FFF7E4F909E029462046FFF71B
:1056C000A1F9044801782046FFF75AF900BF00BF4E
:1056D00000BFB7E79000002070B505460C46608813
:1056E000012804D1C5F8A4022846FFF7C9F970BD06
:1056F00010B504462046FFF7C4FE002010BD70B56B
:1057000005460C460026207800F0600060B1202895
:1057100002D040283CD100E000BFD5F8B4022146B9
:1057200082682846904738E060780A2829D2DFE866
:1057300000F01923281E280A0528140F21462846A0
:10574000FFF767FA22E021462846FFF712FF1DE027
:1057500021462846FFF74CFF18E021462846FFF770
:105760002DFA13E021462846FFF772FB0EE0214692
:105770002846FFF7B1FF09E021462846FFF70BF95D
:1057800004E021462846FFF73DF900BF00BF04E0D2
:1057900021462846FFF736F900BF00BF304670BDEE
:1057A0002DE9F04105460E464FF000083479307877
:1057B00000F0600060B1202802D0402871D100E0E4
:1057C00000BFD5F8B402314682682846904700E110
:1057D000307800F06000202809D1D5F8B4023146B5
:1057E00082682846904780464046BDE8F081707840
:1057F00000285ED001282FD0032876D195F89C028E
:10580000022802D0032820D110E054B1802C08D007
:1058100021462846FFF713FE80212846FFF70FFE9A
:1058200003E031462846FFF7EDF813E0708840B9F1
:105830003CB1802C05D0F08818B921462846FFF7E6
:10584000FEFD2846FFF71CF904E031462846FFF725
:10585000D9F800BF00BFB5E095F89C02022802D03D
:1058600003281FD110E054B1802C08D021462846CF
:10587000FFF7E5FD80212846FFF7E1FD03E0314613
:105880002846FFF7BFF812E0708848B904F07F009F
:1058900018B121462846FFF74AFB2846FFF7F0F8E3
:1058A00005E091E031462846FFF7ACF800BF00BFA5
:1058B00088E095F89C02022802D0032876D126E0E1
:1058C00034B1802C04D031462846FFF79BF872E0B3
:1058D00004F08000802809D104F07F0000EB8001F3
:1058E00005F1140000EB810008E066E004F07F00A1
:1058F00000EB800105F5AA7000EB8100074600204F
:105900003860022239462846FFF7A9F853E004F030
:10591000800080280ED104F00F0000EB800105F11B
:10592000140000EB8100406898B931462846FFF723
:1059300069F840E004F00F0000EB800105F5AA7063
:1059400000EB8100406820B931462846FFF75AF83D
:1059500031E004F08000802808D104F07F0000EBE3
:10596000800105F1140000EB810007E004F07F00E6
:1059700000EB800105F5AA7000EB810007460CB131
:10598000802C02D10020386009E021462846FFF72C
:1059900035FC10B10120386001E00020386002229F
:1059A00039462846FFF75BF805E0FFE73146284611
:1059B000FFF728F800BF00BF04E031462846FFF794
:1059C00021F800BF00BF04E031462846FFF71AF86F
:1059D00000BF00BF404608E770B505460C460026EC
:1059E000207800F0600030B1202802D040282AD171
:1059F00000E000BF00BF95F89C02012804D00228F7
:105A000003D0032818D101E000BF00BF207901288E
:105A10000DD8D5F8B402214682682846904706463C
:105A2000E08840B93EB92846FFF72AF803E021464E
:105A30002846FEF7E7FF04E021462846FEF7E2FF8E
:105A400000BF00BF04E021462846FEF7DBFF00BF91
:105A500000BF002070BD704701460148704700003C
:105A60005C210020F0B5024600260878400032F89C
:105A7000100048F68F1400EA0403C87830B10128FA
:105A80000CD0022805D003280BD104E043F40073A6
:105A900009E000BF07E043F4C06304E043F480631F
:105AA00001E0012600BF00BF43F4004040F0800049
:105AB0000C78640022F8140000BF0C78640032F8FF
:105AC000144048F68F752C400D7844EA050040F4E8
:105AD000004444F080040D786D0022F8154000BFAA
