:020000040800F2
:1000000080210020A9010008272D00085D2B000891
:10001000252D00082F03000887500008000000006D
:100020000000000000000000000000002B35000868
:10003000E703000800000000CD2F00082D35000860
:10004000C3010008C3010008C3010008C301000880
:10005000C3010008C3010008C3010008C301000870
:10006000C3010008C3010008C3010008C301000860
:10007000A1030008AD030008C3010008C301000884
:10008000C3010008C3010008C3010008C301000840
:10009000C3010008C3010008C3010008C301000830
:1000A000C3010008C3010008C3010008C301000820
:1000B000C3010008C301000800000000C3010008DC
:1000C000C3010008C3010008C3010008C301000800
:1000D000C3010008C3010008C3010008C3010008F0
:1000E000C3010008C3010008000000000000000078
:1000F0000000000000000000000000000000000000
:1001000000000000C301000800000000C301000857
:10011000C301000800000000C30100080000000047
:10012000C3010008C3010008C3010008C30100089F
:10013000C3010008C3010008C3010008000000005B
:10014000C3010008C3010008C301000815500008DE
:10015000C3010008C3010008C3010008C30100086F
:10016000C3010008C3010008C3010008000000002B
:1001700000000000C30100080000000000000000B3
:10018000C3010008C3010008C3010008C30100083F
:10019000C3010008DFF80CD000F08CF800480047DD
:1001A0001951000880210020064880470648004772
:1001B000FEE7FEE7FEE7FEE7FEE7FEE7FEE7FEE717
:1001C000FEE7FEE7C1350008950100082DE9F05F64
:1001D0000546002092469B468846064681464024B6
:1001E0001BE0284641464746224600F053F8534656
:1001F0005A46C01A914110D311461846224600F0C3
:100200003AF82D1A67EB01084F46224601200021DB
:1002100000F031F817EB00094E41201EA4F1010453
:10022000DFDC484631462A464346BDE8F09F40EAB7
:1002300001039B0703D009E008C9121F08C0042A64
:10024000FAD203E011F8013B00F8013B521EF9D24B
:100250007047D2B201E000F8012B491EFBD2704773
:100260000022F6E710B513460A4604461946FFF782
:10027000F0FF204610BD202A04DB203A00FA02F1EC
:10028000002070479140C2F1200320FA03F3194384
:1002900090407047202A04DB203A21FA02F0002126
:1002A000704721FA02F3D040C2F120029140084386
:1002B00019467047064C074D06E0E06840F0010320
:1002C00094E8070098471034AC42F6D3FFF766FF76
:1002D0004C5200086C52000870B58C1810F8015B85
:1002E00015F0070301D110F8013B2A1106D110F8CF
:1002F000012B03E010F8016B01F8016B5B1EF9D1D3
:100300002B0705D40023521E0DD401F8013BFAE758
:1003100010F8013BCB1A921C03E013F8015B01F8C3
:10032000015B521EF9D5A142D8D3002070BDFEE773
:10033000002070470020704710B50022044905488E
:1003400003F09AFD0449034803F090FD002010BD1E
:100350008015002028040020800D002010B50146E3
:10036000034803F083FD024803F064FD002010BD44
:1003700028040020094A10B5D2F8B822D2F8142275
:100380000AB1012010BD0A460146044803F074FD7D
:10039000BDE81040014803F0CDBD00002804002056
:1003A000014800F022B8000098030020014800F046
:1003B0001CB80000E003002030B590F8444004F081
:1003C0001C050124AC40056C6C60046863608368A4
:1003D000102B036803D099600068C26030BD9A603A
:1003E0000068C16030BD70477047F0B4016C0C68A4
:1003F00001680D6890F8442002F01C06042202FAFD
:1004000006F3234211D06B070FD50B689B0603D46C
:100410000B6823F004030B6090F8441001F01C01FA
:100420008A40016C4A60016B1DE0022303FA06F763
:1004300027424FF0000C4FF0010218D0AF0716D53D
:100440000C68A40605D40C6824F00A040C6080F83B
:10045000252090F8441001F01C018B40016C4B608A
:1004600080F824C0C16A00291AD0F0BC08470823CC
:10047000B340234214D02B0712D50B6823F00E0390
:100480000B6090F84410036C01F01C0102FA01F1BA
:100490005960C26380F8252080F824C0416BE2E7F0
:1004A000F0BC70472DE9F04104007CD07949206808
:1004B000794D884235D077491431884231D0754919
:1004C000283188422DD073493C31884229D0714966
:1004D0005031884225D06F496431884221D06D491E
:1004E000783188421DD0A8421BD06B491431884214
:1004F00017D069492831884213D067493C31884276
:100500000FD06549503188420BD06349643188422D
:1005100007D061497831884203D0A4215FA004F05C
:10052000D2FDA0684FF4804638B1102805D0B04203
:1005300003D0A52159A004F0C6FDE068402804D0EE
:1005400018B1A62155A004F0BEFD2069802804D072
:1005500018B1A72151A004F0B6FD606948B1B0F50B
:10056000807F06D0B0F5007F03D0A8214BA004F017
:10057000AAFDA06948B1B0F5806F06D0B0F5006F54
:1005800003D0A92145A004F09EFDE06928B12028F0
:1005900003D0AA2141A004F096FD206A70B1B0F505
:1005A000805F0BD000E02CE0B0F5005F06D0B0F526
:1005B000405F03D0AB2139A004F085FD606888B1AD
:1005C00001280FD002280DD003280BD0042809D011
:1005D000052807D0062805D0072803D0AD212FA075
:1005E00004F071FD2B48226814210838AA420BD26E
:1005F000284B5B421344B3FBF1F18900C4E91001BD
:100600000CE00120BDE8F081234B5B421344B3FBB7
:10061000F1F189006164204908392164022184F8DC
:100620002510136847F6F0718B43D4E9021529436E
:10063000D4E904573D432943A5692943E569294382
:10064000256A294319431160A168B14219D0226C6F
:100650000F21824202D150F8A82F02E00E48A030AC
:10066000026894F8443003F01C0399408A43026006
:1006700094F84420616802F01C0291400268114322
:1006800001600020E063012184F8251084F8240033
:10069000B8E7000008000240080402402E2E2F4454
:1006A0007269766572732F53544D33324C347878B7
:1006B0005F48414C5F4472697665722F5372632FB5
:1006C00073746D33326C3478785F68616C5F646D1D
:1006D000612E63002DE9F041884604460025581E2E
:1006E0004FF6FF711E461746884204D34FF4EF7150
:1006F0001DA004F0E8FC94F8240001280DD001208E
:1007000084F8240094F825100020012907D084F8EB
:10071000240002252846BDE8F0810220FBE70221E3
:1007200084F82510E0632068016821F00101016070
:1007300033463A4641462046FFF73EFE206B0028EE
:100740002068016802D041F00E0106E021F00401AA
:1007500001602068016841F00A01016020680168B9
:1007600041F001010160D5E72E2E2F4472697665B4
:1007700072732F53544D33324C3478785F48414C68
:100780005F4472697665722F5372632F73746D3391
:10079000326C3478785F68616C5F646D612E6300E1
:1007A0002DE9F84F00274FF0904BDFF83CA20D46A3
:1007B0000446584511D054450FD08C4884420CD083
:1007C0008B48844209D08B48844206D08A488442B0
:1007D00003D0B32189A004F076FC28680104090C39
:1007E00001D0000C03D0B42184A004F06CFC686834
:1007F00008B301281FD011281DD002281BD01228B1
:1008000019D08D49884216D08C49884213D08C4922
:10081000884210D08B4988420DD08B4988420AD03B
:100820008A49884207D0032805D00B2803D0B52178
:1008300072A004F048FCA868002807D00128FCD06A
:100840000228FAD0B6216DA004F03DFCC5E00120DD
:10085000B840009006407DD06868022801D0122878
:1008600027D15C4511D054450FD0604884420CD04C
:100870005F48844209D05F48844206D05E48844283
:1008800003D0C5215DA004F01EFC28690F2803D900
:10089000C6215AA004F017FCF80804EB8003186A7C
:1008A0007907C90E0F228A4090432A698A40024381
:1008B0001A6220687A00032101FA02F82979914628
:1008C00001F0030120EA080001FA09F10143216067
:1008D0006868012805D0022803D0112801D0122809
:1008E0001CD1E86848B1012807D0022805D00328A8
:1008F00003D0DA2141A004F0E6FBA068E96820EA11
:10090000080001FA09F10143A16060680099884379
:100910002979C1F30011B94001436160E068A96819
:1009200020EA080001FA09F10143E1606868C000AB
:1009300052D54748016E41F001010166006E27F073
:10094000030100F00100009042480A189168B807BE
:10095000030F00E040E00F20984081435C4501D147
:10096000002013E0544501D101200FE01F488442CC
:1009700001D102200AE01E48844201D1032005E093
:100980001C48844201D1042000E00720984008431D
:100990009060314908686A68B043D20300D530439B
:1009A00008602D49091D08686A68B043920300D5A4
:1009B000304308602849083108686A68B043D202A9
:1009C00000D53043086024490C3108686A68B04398
:1009D000920200D5304308607F1C2E6836FA07F07B
:1009E0007FF435AFBDE8F88F0004004800080048E8
:1009F000000C004800100048001C00482E2E2F4418
:100A00007269766572732F53544D33324C34787853
:100A10005F48414C5F4472697665722F5372632F51
:100A200073746D33326C3478785F68616C5F6770B3
:100A3000696F2E63000000000000111000002110FB
:100A400000003110000012100000221000003210CF
:100A500000100240000001400004014070B515463E
:100A60000C00064604D14FF4D97107A004F02BFB0B
:100A700045B1012D04D040F2B31103A004F023FBD3
:100A8000B46170BDB46270BD2E2E2F44726976655C
:100A900072732F53544D33324C3478785F48414C45
:100AA0005F4472697665722F5372632F73746D336E
:100AB000326C3478785F68616C5F6770696F2E6341
:100AC00000000000014880687047000074000020AA
:100AD00002488168426811448160704774000020B8
:100AE000094810B50168002441F4807101600320B9
:100AF00000F0C6F8002000F009F808B1012401E078
:100B000000F026F8204610BD0020024070B50E4EC1
:100B100005460024706898B14FF47A71B1FBF0F08B
:100B20000A490968B1FBF0F001F052FF40B9102DFD
:100B300006D200222946501E00F052F8356000E02F
:100B40000124204670BD00007400002080000020B9
:100B5000094808B5016E41F001010166016E01F01E
:100B600001010091816D41F080518165806D00F03F
:100B70008050009008BD00000010024010B5040035
:100B800003D5E32107A004F09EFA002C09DB04F052
:100B90001F01012088406109890001F1E021C1F8AD
:100BA000000110BD2E2E2F447269766572732F538B
:100BB000544D33324C3478785F48414C5F4472690D
:100BC0007665722F5372632F73746D33326C347881
:100BD000785F68616C5F636F727465782E63000084
:100BE00070B515460C460646102A03D3CF2114A033
:100BF00004F069FA102C03D3D02111A004F063FA99
:100C00001E480068C0F30223C3F107022046042AED
:100C100000D90422191D072901D2002300E0DB1EA0
:100C2000012404FA02F1491E014099409C40641ECF
:100C30002C4021433046BDE8704004F025BA000046
:100C40002E2E2F447269766572732F53544D3332B2
:100C50004C3478785F48414C5F4472697665722FF6
:100C60005372632F73746D33326C3478785F6861BC
:100C70006C5F636F727465782E6300000CED00E0AA
:100C800010B5044607280BD0062C09D0052C07D038
:100C9000042C05D0032C03D0B72108A004F013FACC
:100CA000154904F0070208684FF6FF03184040EAB0
:100CB0000220124A1043086010BD00002E2E2F445F
:100CC0007269766572732F53544D33324C34787891
:100CD0005F48414C5F4472697665722F5372632F8F
:100CE00073746D33326C3478785F68616C5F636FF6
:100CF000727465782E6300000CED00E00000FA05C8
:100D000001220168C0F86822002280F8602231F8D0
:100D1000540F40F001000880088840F0020008806D
:100D20001046704770B50F4D044669B101290AD1CC
:100D3000D4F8700203F07BFCA069002803D0286877
:100D400040F00600286070BDA06928B102F0F0FBF9
:100D5000286820F006002860D4F87002BDE87040D2
:100D600003F0EFBB10ED00E010B50C0605D501F067
:100D7000070100EB4110283003E000EB411000F5C3
:100D8000947099B232B1012202730181190C418130
:100D9000002010BD00220273C180F9E700EB411270
:100DA000D0F87002D26B03F086BA00EB4112D0F893
:100DB0007002D2F83C2103F0E1BA70B504460B068C
:100DC00001F0070004EB40114FF001024FF0000565
:100DD00003D581F82920283103E081F8295101F554
:100DE0009471087094F82802012808D084F8282209
:100DF000206803F036FF84F82852002070BD0220DE
:100E000070BD70B5044601F00F006268904201D9D0
:100E1000012070BD0B0601F0070004EB40114FF0FC
:100E200001024FF0000503D581F82920283103E0A5
:100E300081F8295101F594718D70087094F8280299
:100E4000012808D084F82822206803F0B8FF84F82D
:100E50002852002070BD022070BD01F0070100EB98
:100E60004110D0F8440170472DE9F04104460F06C7
:100E700001F0070004EB40114FF001064FF00005B0
:100E800003D581F82960283103E081F8295101F563
:100E9000947108700A61CB704A7802B1C881022B44
:100EA00000D10D7194F82802012809D084F8286235
:100EB000206803F0A1FD284684F82852BDE8F0819F
:100EC0000220FBE770B50C4601F0070500EB451169
:100ED000C1E94F230022C1F8442181F8292181F87A
:100EE000285101F594716207006803F0BDFF0020EE
:100EF00070BD70B504460D4601F007006168884278
:100F000001D9012070BD29064FF000064FF0010203
:100F100005D504EB401181F82920283105E004EBC8
:100F2000451181F8296101F594718A70087094F86F
:100F30002802012807D084F82822206803F07BFFCC
:100F4000680702D006E0022070BD04F50C7120682D
:100F500003F033FF84F82862002070BD70B50C46A2
:100F600001F0070500EB4511C1E90F2300224A6497
:100F7000012281F8292001F8285F6207006803F048
:100F800073FF002070BD10B50446006804F048F8F7
:100F9000000402D5204601F0C8FE206804F040F8A5
:100FA00040050CD5206830F8441F21F48061018091
:100FB000204600F071F90021204600F099F92068E0
:100FC00004F02EF8400405D5206830F8441F21F4C1
:100FD00080410180206804F023F8800405D5206852
:100FE00030F8441F21F400510180206804F018F803
:100FF000C0041FD5206830F8401F21F00401018093
:10100000206830F8401F21F00801018094F8600248
:10101000012806D1002084F8600201462046FFF72F
:1010200081FE204600F04CF9206830F8441F21F47E
:1010300080510180206803F0F3FF000514D520687B
:1010400030F8401F41F008010180206830F8441F4B
:1010500021F400610180206830F8401F41F0040154
:101060000180204600F074F9206803F0D9FF0006E3
:101070000BD5206830F8441F21F08001018094F8DE
:101080006002E0B1204600F063F9206803F0C8FF79
:10109000800508D5206830F8441F21F400710180D4
:1010A000204600F021F9206803F0BAFFC00505D5FD
:1010B000206830F8441F21F48071018010BD206841
:1010C00030F8401F41F004010180206830F8401FD3
:1010D00041F008010180012084F860022068B0F826
:1010E00054003C2101EA9000C4F86402012120462A
:1010F000FFF718FEC9E700002DE9F04186B00400B3
:101100000CD039492068884203D08C2137A003F0E5
:10111000DAFF94F82902002520B108E0012006B08A
:10112000BDE8F08184F82852204600F07BF80320C7
:1011300084F82902206803F038FE04F1100114221B
:1011400088466846FFF773F894E80F0003F087FDC0
:101150000227B0BB0021206803F079FF00200126A0
:101160000DE000BF04EB401181F8296001F8280F61
:10117000C881CD700D614D61401CC0B28D61616848
:101180008142EFD800200FE004EB401181F8295193
:1011900081F8280181F82B51C1F83851C1F83C5130
:1011A000401CC0B2C1F8405161688142ECD81422A1
:1011B00041466846FFF73BF894E80F0003F0E6FD70
:1011C00010B184F82972A9E784F8245084F82962C0
:1011D000E069012802D12046FFF792FD206803F064
:1011E000CEFD00209BE70000006800402E2E2F441B
:1011F0007269766572732F53544D33324C3478785C
:101200005F48414C5F4472697665722F5372632F59
:1012100073746D33326C3478785F68616C5F7063BF
:10122000642E630010B586B0044614216846FFF7AB
:1012300017F817492068884228D1164CE06C40F016
:101240000100E064E06C694600F0010005904FF495
:10125000C0500090022001900020029003200390D3
:101260000A2004904FF09040FFF79AFAA06D40F0EA
:101270008060A065A06D002200F08060059011469E
:101280004320FFF7ADFC4320FFF778FC06B010BD0C
:10129000006800400010024070B5044680680125D7
:1012A000022801D0FFF7A0F82946D4F8700203F015
:1012B0005EF9D4F87002BDE8704003F01AB900007E
:1012C00010B50446806930B10648016821F0060176
:1012D000016002F02DF9D4F87002BDE8104003F06F
:1012E00030B9000010ED00E0D0F8700203F033B91F
:1012F00010B5044690F8280201280BD0012084F88C
:10130000280284F82410206803F0A3FE002084F84B
:10131000280210BD022010BDD0F8702200F50C711B
:10132000104603F037B910B5044690F8280201289A
:101330000CD0012084F82802206803F019FD2068F1
:1013400003F060FE002084F8280210BD022010BDCA
:1013500010B50446D0F8700203F069F9A0690028BE
:1013600004D00348016841F00601016010BD00008F
:1013700010ED00E010B51B4CB0F5007F13D0B0F5B8
:10138000806F03D0A82118A003F09DFE2068C0F351
:101390004120022805D0206820F4C06040F480601D
:1013A0002060002010BD2068C0F341200128F8D043
:1013B000206820F4C06040F4007020601948322199
:1013C000006848431849B0FBF1F0401C00E0401EA3
:1013D0006169490501D50028F9D160694005E0D56A
:1013E000032010BD007000402E2E2F4472697665D8
:1013F00072732F53544D33324C3478785F48414CDC
:101400005F4472697665722F5372632F73746D3304
:10141000326C3478785F68616C5F7077725F657882
:101420002E6300008000002040420F000248416807
:1014300041F48061416070470070004002480068DC
:1014400000F4C06070470000007000402DE9F84FC4
:10145000044600270068FF4D3E46C1074FF0406B31
:101460004FF080684FF0006925D1810723D44107F0
:1014700021D401071FD481061DD441061BD40106C7
:1014800019D4C10517D4C10215D4810513D441055F
:1014900011D4010512D4810432D4410430D4C103E3
:1014A0002ED481032FD441037ED400037DD4CB21DD
:1014B000E9A003F008FE2088000521D5E06C4FF478
:1014C000000A40B1504506D0B0F5400F03D0D321FB
:1014D000E1A003F0F8FDE06C58B1504504D0B0F540
:1014E000400F38D001270AE0E86840F48030E86017
:1014F00031E00021201D01F06BFD07002BD03E469E
:101500002068800347D5606E4FF0000A68B1B0F5DF
:10151000807F0AD0B0F5007F07D0B0F5407F04D0BF
:101520004FF4A371CCA003F0CEFDA86DC00009D488
:10153000A86D40F08050A865A86D4FF0010A00F03A
:1015400080500090D348016841F480710160FFF73A
:10155000B9FA009010E0D5F88800E16C20F4400062
:101560000843C5F88800CBE7FFF7ACFA0099401AAA
:10157000022801D9032705E0C6480068C005F3D555
:10158000002F7DD04FEA0706BAF1000F03D0A86DF7
:1015900020F08050A8652078C00717D0206A68B175
:1015A00001280BD0032801E028E18DE106D00228B4
:1015B00004D040F29B11A8A003F085FDD5F8880067
:1015C000216A20F003000843C5F8880020788007CE
:1015D00014D5606A50B1042808D00C2806D0082819
:1015E00004D040F2A5119CA003F06DFDD5F8880051
:1015F000616A20F00C000843C5F888002078400795
:1016000014D5A06A50B1102808D0302806D0202860
:1016100004D040F2B11190A003F055FDD5F8880038
:10162000A16A20F030000843C5F888002078000740
:1016300014D5E06A50B1402808D0C02806D08028D0
:1016400004D040F2BF1184A003F03DFDD5F888001E
:10165000E16A20F0C0000843C5F8880020788006C1
:1016600019D5206B78B1B0F5806F0CD0B0F5406F14
:1016700009D0B0F5006F06D040F2D91176A000E095
:10168000BDE003F020FDD5F88800216B20F4406018
:101690000843C5F888002088800517D5606C68B1BC
:1016A000B0F5802F0AD0B0F5002F07D0B0F5402F4D
:1016B00004D04FF4F17168A003F005FDD5F888005F
:1016C000616C20F440200843C5F88800208840055C
:1016D00017D5A06C68B1B0F5801F0AD0B0F5001F17
:1016E00007D0B0F5401F04D040F2E9115AA003F032
:1016F000EAFCD5F88800A16C20F440100843C5F836
:1017000088002078400614D5606B50B1B0F5805F3A
:1017100007D0B0F5005F04D040F2F1114EA003F005
:10172000D2FCD5F88800616B20F440500843C5F81E
:1017300088002078000614D5A06B50B1B0F5804F1A
:1017400007D0B0F5004F04D040F2FD1142A003F0E5
:10175000BAFCD5F88800A16B20F440400843C5F8D6
:1017600088002088C00514D5E06B50B1B0F5803FEB
:1017700007D0B0F5003F04D040F2092136A003F0B5
:10178000A2FCD5F88800E16B20F440300843C5F88E
:1017900088002068C00212D5206C40B1012806D014
:1017A000022804D040F215212BA003F08CFCD5F8C0
:1017B0009C00216C20F003000843C5F89C002088A1
:1017C00080047ED5206D50B1404508D0484506D0F4
:1017D000584504D040F222211FA003F074FCD5F834
:1017E0008800216D20F040600843C5F88800206D16
:1017F00048455ED1E86840F48010E86061E0D5F8C3
:10180000900010F4407014D0616E814211D0D5F870
:101810009000D5F8901020F4407041F48031C5F864
:101820009010D5F8901021F48031C5F89010C5F8CB
:101830009000C00734D0FFF745F907462CE000BF01
:10184000FFF740F9C11B41F28830814224D90326B9
:101850009AE60000001002402E2E2F447269766531
:1018600072732F53544D33324C3478785F48414C67
:101870005F4472697665722F5372632F73746D3390
:10188000326C3478785F68616C5F7263635F65782F
:101890002E63000000700040D5F890008007CFD57F
:1018A000D5F89000616E20F440700843C5F89000B0
:1018B0006AE6404505D10121201D01F089FB00B1F8
:1018C00006462068000325D5606D58B1404509D013
:1018D000484507D0584505D040F24321AFF2880073
:1018E00003F0F1FBD5F88800616D20F040600843FB
:1018F000C5F88800606D484504D1E86840F4801060
:10190000E86007E0404505D10121201D01F060FBA2
:1019100000B106462068400325D5A06D58B140456A
:1019200009D0484507D0584505D04FF41A71AFF299
:10193000D80003F0C8FBD5F88800A16D20F0406006
:101940000843C5F88800A06D484504D1E86840F414
:101950008010E86007E0404505D10121201D01F01D
:1019600037FB00B10646208840041FD5E06D4FF0DC
:10197000805750B1B84208D0B0F1405F05D04FF465
:101980002271AFF22C1003F09EFBD5F88800E16DB8
:1019900020F040500843C5F88800E06DB84205D1FA
:1019A0000221201D01F014FB00B106462068C0038F
:1019B00011D5206E40B1B0F1004F05D040F2C221E8
:1019C000AFF26C1003F07FFB55F8880F216E20F00A
:1019D0000040084328603046BDE8F88F704700009B
:1019E0002DE9F0470E4605007ED02868401E0E28DF
:1019F00004D940F262416FA003F065FB66B1012E8D
:101A00000AD0022E08D0032E06D0042E04D040F2B5
:101A1000634168A003F057FB744F386800F007007B
:101A2000B04209D2386820F0070030433860386887
:101A300000F00700B04270D128786D4CC0073BD051
:101A4000686830B301280ED002281FD003281AD0AE
:101A500040F27A4157A003F036FB6868032812D0A1
:101A6000022813D0A8B120684005002855DAA068E4
:101A7000696820F003000843A060FFF723F8804660
:101A800041F2883911E020688001EEE72068800388
:101A9000EBE720688007E8E7FFF714F8A0EB080100
:101AA000494502D90320BDE8F087A068696800F0C5
:101AB0000C00B0EB810FEFD1287880071ED5A86805
:101AC000B0B1802814D0902812D0A02810D0B0280F
:101AD0000ED0C0280CD0D0280AD0E02808D0F0289A
:101AE00006D04FF49B6100E017E032A003F0EBFA60
:101AF000A068A96820F0F0000843A060386800F0F2
:101B00000700B0420BD9386820F007003043386036
:101B1000386800F00700B04201D00120C3E7287800
:101B20004FF4806640074FF4A0674FF4C0684FF44D
:101B3000E06914D5E86860B1B0420AD0B84208D074
:101B4000404506D0484504D04FF49F6119A003F0EA
:101B5000BAFAA068E96820F4E0600843A060287839
:101B6000000715D5286960B1B0420AD0B84208D044
:101B7000404506D0484504D040F2FF410DA003F097
:101B8000A2FAA068296920F4605040EAC100A06070
:101B900000F062F8A168174AC1F30311515C01F02B
:101BA0001F01C8401449086014480068BDE8F047A8
:101BB000FEF7ACBF2E2E2F447269766572732F53D9
:101BC000544D33324C3478785F48414C5F447269ED
:101BD0007665722F5372632F73746D33326C347861
:101BE000785F68616C5F7263632E6300002002405F
:101BF0000010024004520008800000207400002001
:101C00000248016841F40021016070470010024061
:101C10000548064900688968054AC1F30221515CFC
:101C200001F01F01C84070478000002000100240F2
:101C3000445200080548064900688968054AC1F30E
:101C4000C221515C01F01F01C84070478000002094
:101C5000001002404452000870B525490023184680
:101C60008A68CC6812F00C0204F00306214C4FEA9B
:101C7000640509D00C2A05D0042A32D0082A00D1E4
:101C8000284670BD012E10D10B681B0704D4D1F873
:101C90009430C3F3032302E00B68C3F30313164E1F
:101CA00056F82330DAB10C2AEBD1C86800F00300F3
:101CB000022818D0032818D01846CA68CB68C2F387
:101CC0000212C3F306234343521CB3FBF2F2C8686B
:101CD000C0F34160401C4000B2FBF0F070BD1846FC
:101CE00070BD204670BD2046E7E72846E5E70000C6
:101CF000001002400024F4001452000810B5044CF7
:101D0000E069C00503D5FFF769FEA015206210BD8C
:101D1000001002402DE9F84304007DD0206880B116
:101D2000C1070ED181070CD481060AD4C10608D49C
:101D3000010706D4400704D44FF4D171F1A003F099
:101D4000C2F9FE4DA86800F00C06E86800F0030731
:101D50002078C0067ED5A06930B1012804D040F2B9
:101D6000AB11E8A003F0AFF9E069FF2804D94FF404
:101D7000D671E4A003F0A7F9206AD0B1102818D0DA
:101D8000202816D0302814D0402812D0502810D047
:101D900060280ED070280CD080280AD0902808D057
:101DA000A02806D0B02804D040F2AD11D5A003F091
:101DB0008AF976B10C2E01D1012F0AD0A069002832
:101DC00028687DD040F001002860FEF77BFE804649
:101DD00060E02868800702D5A06900289DD0216AAC
:101DE0002868000703D5286800F0F00004E0D5F863
:101DF0009400F02202EA1010814218D9084601F03E
:101E0000EFF9002808D1286840F008002860286809
:101E1000216A20F0F00000E0FBE0084328606868D9
:101E2000E16920F47F4040EA0120686018E02868FA
:101E300040F0080028602868216A20F0F00008437C
:101E400028606868E16920F47F4040EA012068600A
:101E500036B900E045E0206A01F0C2F90028D1D18E
:101E6000FFF7FAFEA968B64AC1F30311515C01F00D
:101E70001F01C840B3490860B3480068FEF746FE3A
:101E8000002873D12DE000BFFEF71CFEA0EB080078
:101E900002286CD828688007F6D5286840F008002A
:101EA00028602868216A20F0F000084328606868EC
:101EB000E16920F47F4040EA0120686011E0FFE71B
:101EC00020F001002860FEF7FDFD804606E000BF1F
:101ED000FEF7F8FDA0EB08000228DAD82868800792
:101EE000F6D42078C00750D060684FF480384FF4A3
:101EF000A02940B1404506D0484504D040F2192100
:101F000080A003F0E0F8082E0AD00C2E01D1032F98
:101F100006D0606840450AD1286840F4803013E05C
:101F20002868800331D56068002872D02DE04845CC
:101F3000286803D140F480202860EDE720F4803049
:101F40002860286820F480202860606880B1FEF74F
:101F5000B9FD804606E000BFFEF7B4FDA0EB080027
:101F6000642896D828688003F6D50EE06EE26CE20D
:101F7000FEF7A8FD804605E0FEF7A4FDA0EB0800F3
:101F8000642886D828688003F6D42078800749D54D
:101F9000E06838B1B0F5807F04D04FF4137159A0D8
:101FA00003F091F820697F2804D940F24D2155A013
:101FB00003F089F8042E0ED00C2E01D1022F0AD086
:101FC000E068002828681DD040F480702860FEF783
:101FD00079FD07460BE0286840050BD5E06800282E
:101FE000A3D007E0FEF76EFDC01B0228B9D8286811
:101FF0004005F7D56868217C20F0FE4040EA01608A
:1020000068600FE020F480702860FEF75BFD0746F3
:1020100005E092E1FEF756FDC01B0228A1D8286812
:102020004005F7D42078000731D56069E0B1012878
:1020300006D040F28D2133A003F045F8606998B1D5
:10204000D5F8940040F00100C5F89400FEF73AFD81
:10205000074604E0FEF736FDC01B022891D8D5F8EC
:1020600094008007F6D512E0D5F8940020F0010026
:10207000C5F89400FEF726FD074604E0FEF722FDB2
:10208000C01B0228B2D8D5F894008007F6D4207877
:1020900040076FD5A068002740B1012806D0052869
:1020A00004D04FF4387117A003F00DF8A86DC000EC
:1020B00008D4A86D40F08050A865A86D012700F0F5
:1020C0008050009021480168C90513D401688146F9
:1020D00041F480710160FEF7F5FC804606E000BF28
:1020E000FEF7F0FCA0EB0800022897D8D9F8000012
:1020F000C005F5D5A06801283DD00528D5F8900089
:102100003ED025E02E2E2F447269766572732F53D0
:10211000544D33324C3478785F48414C5F44726997
:102120007665722F5372632F73746D33326C34780B
:10213000785F68616C5F7263632E63000010024019
:10214000045200088000002074000020007000404D
:1021500020F00100C5F89000D5F8900020F00400B0
:10216000C5F89000A06841F28839D0B1FEF7AAFC0A
:10217000804611E029E0D5F8900040F00100EFE73B
:1021800040F00400C5F89000F5E700BFFEF79AFCA8
:10219000A0EB08014945A8D8D5F890008007F5D5EF
:1021A0000EE0FEF78FFC804606E000BFFEF78AFCDB
:1021B000A0EB0801494598D8D5F890008007F5D4E0
:1021C0001FB1A86D20F08050A8652078800632D518
:1021D000606AE8B1012807D040F24531AFF2DC0077
:1021E00002F071FF606A98B1D5F8980040F00100E4
:1021F000C5F89800FEF766FC074604E0FEF762FCAF
:10220000C01B0228C7D8D5F898008007F6D512E081
:10221000D5F8980020F00100C5F89800FEF752FCB0
:10222000074604E0FEF74EFCC01B0228B3D8D5F8E1
:1022300098008007F6D4A06A00287DD001280CD031
:1022400002281FD040F26E31AFF2481002F03BFF7F
:10225000A06A0028F1D0022814D00C2E6DD0286876
:1022600020F0807028602868000103D4E86820F01E
:102270000300E860E8687A490840E860FEF722FC5D
:102280000446E5E0E06A58B1012809D0022807D0E9
:10229000032805D040F27631AFF2981002F013FF18
:1022A000206B401E072805D940F27731AFF2AC1001
:1022B00002F009FF606B08384E2805D94FF45E71B3
:1022C000AFF2C01002F0FFFEA06B801E1D2805D9E2
:1022D00040F27A31AFF2D41002F0F5FEE06B022842
:1022E0000BD0042809D0062807D0082805D04FF4C1
:1022F0005F71AFF2F01002F0E6FE206C02280BD006
:10230000042809D0062807D0082805D040F27D31DE
:10231000AFF2102002F0D7FEE868E26A00F0030195
:10232000914229D1216B00F07002090110399142CC
:1023300022D100F4FE4101E080E08EE0626BB1EB5F
:10234000022F19D194F8382000F07841B1EBC26F18
:1023500012D1A18F00F4C00249084905A1F500116E
:10236000914209D194F8401000F0C0604908490634
:10237000A1F1007181424AD00C2E6FD02868400133
:102380006CD4286820F080702860FEF79BFB06461E
:1023900005E000BFFEF796FB801B022855D8286891
:1023A0008001F7D4F4E90B016FF00F0202EB011189
:1023B0000843218A5204490802EB4151A26841EACC
:1023C00002210843217D4FF07E42490802EB416122
:1023D0000843217B40EAC160E968224A1140084372
:1023E000E860286840F080702860E86840F08070FD
:1023F000E860FEF767FB044605E000BFFEF762FBFE
:10240000001B022821D828688001F7D523E028681E
:10241000800120D4286840F080702860E86840F08F
:102420008070E860FEF74EFB044604E0FEF74AFBCE
:10243000001B022809D828688001F7D50BE000BFEF
:10244000FEF740FB001B022802D90320BDE8F883F9
:1024500028688001F4D40020F8E7FFE70120F5E7C1
:10246000FFFFEEFE8C809D01704700002DE9F041DA
:1024700004007DD07B49206888420AD07A4988428E
:1024800007D07A49884204D04FF4A27178A002F0B4
:102490001AFE606838B1B0F5827F04D040F2451171
:1024A00073A002F010FEA0684FF4806648B1B042FD
:1024B00007D0B0F5004F04D04FF4A3716CA002F028
:1024C00002FEE0684FF470674FF4E065B84226D032
:1024D000B0F5606F23D0B0F5506F20D0B0F5406FED
:1024E0001DD0B0F5306F1AD0B0F5206F17D0B0F511
:1024F000106F14D0B0F5006F11D0A8420FD0B0F516
:10250000C06F0CD0B0F5A06F09D0B04207D0B0F5C5
:10251000407F04D040F2471155A002F0D4FDA069DD
:10252000B0F5007F08D038B1B0F5802F04D04FF45B
:10253000A4714FA002F0C7FD606B082805D020B140
:1025400040F249114AA002F0BEFDE069A0B108289E
:1025500012D0102810D018280ED020280CD02828EF
:102560000AD0302808D0382806D04FF4A57100E0F2
:1025700017E03FA002F0A7FD206A30B1802804D008
:1025800040F24B113AA002F09EFD606A60B1102843
:102590001CD04FF4A67136A002F095FD606A18B108
:1025A00014E00120BDE8F081206930B1022804D098
:1025B00040F24F112EA002F086FD606930B1012873
:1025C00004D04FF4A8712AA002F07DFD0026A66277
:1025D00094F85D0020B984F85C60204600F064F84F
:1025E000022284F85D202068016821F0400101602A
:1025F000E068A84203D90021B84202D104E04FF4B8
:102600008051A84200D0A662276B012327B9A842B7
:1026100001D9226300E02363D4E901021043D4E925
:1026200004252A431043228B02F400721043E2690E
:102630001043226A1043A26A104322681060626B42
:10264000606AA56910430427E26807EA15452A4332
:102650001043084321684860266684F85D300020F6
:10266000A0E700000030014000380040003C00407E
:102670002E2E2F447269766572732F53544D333268
:102680004C3478785F48414C5F4472697665722FAC
:102690005372632F73746D33326C3478785F686172
:1026A0006C5F7370692E63002DE9F04186B00646B9
:1026B00014216846FDF7D4FD3149306888425CD169
:1026C0003048016E41F480510166016E01F4805181
:1026D0000591C16C41F00101C164C16C01F00101BF
:1026E0000591C16C41F00201C164C06C022500F08B
:1026F00002004FF005080095CDE90480032700246F
:102700000397CDE9015469464FF09040FEF748F831
:102710003020CDE9000502AA694682E890011A48F6
:10272000FEF73EF81A4D194801272860C5E90174E3
:102730004FF08008C5E903486C61AC61EC61284644
:102740002C62FDF7AFFE08B1FDF74EFEB565AE6237
:102750000E48104D1430E5E802071020A5E81101DD
:102760000C4845F81449AC61EC612C62FDF79AFE07
:1027700008B1FDF739FE7565AE6206B0BDE8F081BF
:102780000030014000100240000400481C000240DC
:1027900098030020E0030020704770472DE9F047C0
:1027A0000446806D984691468A46002620B94FF42B
:1027B000016173A002F087FC606D20B940F6110141
:1027C0006FA002F080FCA06820B140F614016CA05C
:1027D00002F079FC94F85C0001280CD0012784F801
:1027E0005C7094F85D000025616801280CD0B1F59B
:1027F000827F07D102E00220BDE8F087A16809B915
:10280000042801D00226B7E0BAF1000F2AD0B9F1AE
:10281000000F27D0B8F1000F24D094F85D000428F1
:1028200002D0052084F85D002566C4F838A0A4F81D
:102830003C80A4F83E80C4F84090A4F84480A4F8FA
:102840004680E56425652068416821F4C041416007
:10285000E068B0F5E06F2068416805D921F4805147
:1028600041602FE0012687E041F480514160606DB6
:102870004FF48061806988420CD194F83C00C00715
:102880002068426837D042F480424260E08F07EB14
:102890005000E087A06D8069884213D120684168AC
:1028A00021F480514160B4F84600C00720684168B7
:1028B00027D041F400514160B4F8460007EB5000C6
:1028C000A4F8460094F85D00042821D0A16D3A4890
:1028D00008633A48A16DC862A16D39484863A06D8C
:1028E0008563B4F846302168226C0C31A06DFDF789
:1028F000F1FE38BB11E022F480424260E08F4008D4
:10290000C7E721F400514160B4F846004008D7E71A
:10291000A16D2C4808632C48DCE72068416841F031
:1029200001014160606D0563606DC562606D456366
:10293000606D8563E38F2268A16B0C32606DFDF7DB
:10294000C9FE38B1206E40F010002066012684F8E0
:102950005D7011E020680168490603D4016841F008
:10296000400101602068416841F020014160206819
:10297000416841F00201416084F85C5030463BE719
:102980002E2E2F447269766572732F53544D333255
:102990004C3478785F48414C5F4472697665722F99
:1029A0005372632F73746D33326C3478785F68615F
:1029B0006C5F7370692E630089320008E932000889
:1029C0005D3200087F32000893320008704770477C
:1029D00010B5401EB0F1807F01D3012010BD4FF033
:1029E000E02460610F21601702F04EFB0020A0611F
:1029F00007202061002010BD70B5040015D0A0692B
:102A000029490028294A2A4B2A4D2B4E20680ED0EE
:102A100088421BD0904219D0984217D0A84215D0B6
:102A2000B04213D040F23F110DE0012070BD88424A
:102A30000CD090420AD0984208D0A84206D0B042AA
:102A400004D04FF4A2711DA002F03DFB606F28B9C5
:102A5000002084F87000204600F04EF824206067C3
:102A60002068016821F001010160204600F0FCFEB1
:102A70000128DBD0606A10B1204600F0C3FD206859
:102A8000416821F4904141602068816821F02A0169
:102A900081602068016841F0010101602046BDE8C5
:102AA000704000F0B5BE0000003801400044004016
:102AB00000480040004C0040008000402E2E2F4473
:102AC0007269766572732F53544D33324C34787873
:102AD0005F48414C5F4472697665722F5372632F71
:102AE00073746D33326C3478785F68616C5F7561D4
:102AF00072742E630000000010B586B004461421E5
:102B00006846FDF7ADFB1349206888421FD1124883
:102B1000816D41F400318165816D01F400310591D1
:102B2000C16C41F00101C164C06C694600F0010054
:102B300005900C20009002200190002002900320BC
:102B40000390072004904FF09040FDF729FE06B057
:102B500010BD00000044004000100240FEE70000ED
:102B6000F0B500230A24302537261F4611E000BFA8
:102B7000B4EB107F02D905EB107C01E006EB107C72
:102B800001F813C001EB430C00015B1C8CF80170D1
:102B9000DBB29342ECD3F0BD2DE9F04186B01421B5
:102BA0006846FDF75DFB2B48C16C41F00401C16430
:102BB000C16C01F004010591C16C41F08001C16458
:102BC000C16C01F080010591C16C41F00101C1644B
:102BD000C16C01F001010591C16C41F00201C164B9
:102BE000C06C4FF0904700F0020005900022B02129
:102BF0003846FDF733FFDFF8608042F2040600221A
:102C000031464046FDF72AFF301F0090134800244C
:102C1000CDE9010469461248FDF7C2FDB0200090DD
:102C20000125CDE90154694638460394FDF7B8FD06
:102C300040208DE8310069463846FDF7B1FD009629
:102C4000CDE90154694640460394FDF7A9FD06B05D
:102C5000BDE8F0810010024000040048000021108F
:102C6000000800480E480D494FF4407201604FF4CF
:102C7000827141600021C0E902124FF400720161CB
:102C8000C0E90512C161016207224162C0E90A126E
:102C9000016308214163FFF7E9BB000000300140F8
:102CA0009C0100200948084901604FF4E13141606E
:102CB000002181600C22C160C0E904128161C16100
:102CC00001624162FFF798BE00440040000200200C
:102CD00010B500220F49104801F0B8FA08B1FDF70D
:102CE00083FB0E490C4801F0CFFC08B1FDF77CFBDB
:102CF0000B49094801F0B2F808B1FDF775FB064829
:102D000001F018FD002803D0BDE81040FDF76CBBB2
:102D100010BD0000040000202804002060010020F5
:102D200064000020FEE7FEF7E9BF2DE9F05F0446EE
:102D300040F68F7B48F60F7A40F202493AE1B0F84C
:102D4000441011F00F0633D030F8267039047DD5C9
:102D500030F8261001EA0B0141F0800120F826101E
:102D600004EB461595F8340105F5947500286ED0EE
:102D70002978226832F8210048F68F73184048F20B
:102D8000C003184322F821002978206830F8212058
:102D90005204B0F8502002EB00037ED509EBC101CC
:102DA000595AC1F309015FEA010877D02A89C5E0C1
:102DB000C9062BD4018801EA0A0141F400410180CF
:102DC000206804F12805B0F850102A78014409EB76
:102DD000C200085AC0F309006064E16B0844E06374
:102DE00000212046FDF7DAFF94F824000028A5D042
:102DF000A8690028A2D194F82400216840F080003E
:102E0000A1F84C00002084F82400D3E0018804F5E8
:102E100094750A051FD5B0F850100A18297840F2A9
:102E2000064000EBC100105A04F50C71C0F3090311
:102E3000EB61EA88206802F0F6F82068018801EA70
:102E40000B0141F080010180204601E090E059E053
:102E5000FEF762FAAEE0090453D5018801EA0B01DE
:102E600041F0800101802068B0F850102A780144B8
:102E700040F2064000EBC200085A83059B0DEB614F
:102E800010D0696971B1EA88206802F0CCF8E9696C
:102E9000686908440021686101E044E052E020468E
:102EA000FDF783FF2068B0F850100844296900F24C
:102EB000064051B13E2910D84A08C90700D0521C1B
:102EC0004FF6FF7101EA82210FE0018821F4F841F9
:102ED0000180018841F4004107E04A09C90600D198
:102EE000521E4FF4004141EA822101802168088886
:102EF0004BF68F72104080F4405048F2800210432D
:102F0000088057E02068B0F850102B780A1840F27B
:102F1000064101EBC301515AC1F309015FEA0108FF
:102F200010D0EA880AE040F2064202EBC101595A89
:102F3000C1F309015FEA010804D06A89434669695F
:102F400002F071F8E96901EB0800E861696901EBD9
:102F500008026A61AB6913B12969414504D929782E
:102F60002046FDF722FF03E029782046FDF7AAFF5F
:102F700038061FD5216804EB461031F8262002EAF6
:102F80000A0242F4004221F826202168B1F85020BC
:102F900010F8283F114409EBC302895AC1F3090113
:102FA000C16142690A44426101788369204653B194
:102FB000FDF7D4FF2068B0F8441009043FF5BFAE18
:102FC0000020BDE8F09FFDF7E9FEF3E77047000041
:102FD0002DE9F041044600688846002650B10128DA
:102FE00008D0022806D0032804D04FF4366167A029
:102FF00002F069F86068401E072804D940F6613184
:1030000062A002F060F8A06808384E2804D940F6A3
:1030100062315EA002F057F8A069C10303D4C10277
:1030200001D4C10102D56849084204D040F6633199
:1030300056A002F048F8654DE86880070ED0E868B1
:1030400000F003012068814217D1B0B1E8686168DF
:10305000C0F30210401C88420FD121E020680128F3
:1030600004D0022805D0032807D108E02968890781
:1030700001E029684905002907DB012682E029686B
:10308000890302D429684903F5E7E96862686FF0AB
:103090000F0321F0730103EB021211430143E960B6
:1030A000286820F080602860FDF70CFD074604E0EA
:1030B000FDF708FDC01B02285BD828680001F7D483
:1030C000B8F1000F26D0B8F1010F34D060690228A2
:1030D0000AD0042808D0062806D0082804D040F6D4
:1030E000EC312AA001F0EFFF207D4FF07E41400837
:1030F00001EB4060A16840EA01202969344A11408F
:1031000008432861286840F080602860FDF7DAFCF9
:10311000074630E0E068801E1D2804D940F6B6312D
:103120001AA001F0D0FFA068217B000240EAC16034
:103130002969284AE3E7206902280AD0042808D030
:10314000062806D0082804D040F6DA310FA001F096
:10315000BAFF208A2049400801EB4050A16840EAAC
:10316000012029691D4ACAE7FDF7ACFCC01B0228F3
:1031700001D9032606E028680001F5D52869A16970
:10318000084328613046BDE8F08100002E2E2F4410
:103190007269766572732F53544D33324C3478789C
:1031A0005F48414C5F4472697665722F5372632F9A
:1031B00073746D33326C3478785F68616C5F7263FE
:1031C000635F65782E630000FFFFEEFE0010024093
:1031D000FF80FFF9FF80FF070000E0FFFF809FFFF7
:1031E000F8B51C4D06460024A86DC00002D5FEF7B8
:1031F00025F90DE0A86D40F08050A865A86D00F09D
:1032000080500090FEF71AF9A96D21F08051A96550
:10321000B0F5007F04D0802E07D94FF003040AE0F8
:10322000802E08D9A02E01D804E001D1022402E0AA
:10323000702E00D101240848016821F007012143C4
:103240000160006800F00700A04201D00120F8BD35
:103250000020F8BD001002400020024010B5806A36
:1032600001684A6822F003024A60016E41F01001D1
:103270000166012180F85D10FFF7F6F810BD10B56A
:10328000806AFFF78AFA10BD10B5806AFFF79FFBCE
:1032900010BD70B50546846AFDF714FC0246286827
:1032A000006880061CD42068416821F0200141603C
:1032B0002068416821F0030141606421204600F04C
:1032C00041F808B1202020660020A4F84600012023
:1032D00084F85D00206E18B12046FFF7C5F870BD78
:1032E0002046FFF759FA70BD70B50546846AFDF7B0
:1032F000E9FB02462868006880061FD42068416800
:1033000021F0200141606421204600F055F818B1F9
:10331000206E40F0200020662068416821F0030103
:1033200041600020E087A4F84600012084F85D0099
:10333000206E18B12046FFF797F870BD2046FFF7C2
:1033400045FB70BD2DE9F843044640684FF4827692
:10335000154689464FF400474FF48068B04209D1C2
:10336000A068B84201D0404504D12068016821F02E
:10337000400101604B46002280212046009500F06C
:103380008AF880B96068B04214D1A068B84201D010
:1033900040450FD14B4600224FF4C06120460095B6
:1033A00000F02EF830B1206E40F02000206603209F
:1033B000BDE8F8830020FBE7F8B515460E460B463E
:1033C0000092044600224FF4C05100F019F888B969
:1033D0003346002280212046009500F05CF848B971
:1033E000334600224FF4C0612046009500F008F8F3
:1033F000002804D0206E40F0200020660320F8BD95
:103400002DE9F0471D4617460E4604464FF4C068A6
:10341000DDF820900CE0464501D107B9007B681C1F
:1034200006D0FDF74FFBA0EB0900A84208D23DB142
:10343000206881683140B942EDD10020BDE8F087B5
:103440002068416821F0E00141606068B0F5827F4A
:103450000BD1A068B0F5004F02D0B0F5806F04D159
:103460002068016821F040010160A06AB0F5005FAA
:1034700009D12068016821F40051016020680168C9
:1034800041F400510160012084F85D00002084F8BF
:103490005C000320D2E72DE9F0411D4617460E4699
:1034A0000446DDF8188008E0681C06D0FDF70AFB2A
:1034B000A0EB0800A8420BD255B12068806836EA1C
:1034C000000030D00020B842EED10020BDE8F081ED
:1034D0002068416821F0E00141606068B0F5827FBA
:1034E0000BD1A068B0F5004F02D0B0F5806F04D1C9
:1034F0002068016821F040010160A06AB0F5005F1A
:1035000009D12068016821F4005101602068016838
:1035100041F400510160012084F85D00002084F82E
:103520005C000320D2E70120CDE77047FDF7D0BA59
:103530002DE9F041B0B044211AA8FCF791FE142106
:103540002BA8FCF78DFE68216846FCF789FE012652
:103550004FF4A020CDE91A6002240327CDE92447C7
:1035600010204FF00708CDE92660CDE928842A9481
:103570001AA8FEF7CFFB00250F20CDE92C752B9064
:103580002E9503212BA82F95FEF72AFA42F202006E
:103590000090400614900C20CDE902600197E004F1
:1035A0000995CDE90640CDE904846846FDF74EFF54
:1035B000FEF726FB2002FDF7DDFE30B0BDE8F0810E
:1035C0000D48016841F4700101600C48016841F048
:1035D00001010160002181600268094B1A4002600C
:1035E0008214C260026822F4802202608161024972
:1035F000C00380390860704788ED00E00010024089
:10360000FFFFF6EA70B50446406AFF2804D940F689
:10361000D7416CA001F057FD94F82400C00710D0EA
:10362000A06A38B1B0F5003F04D040F6DC4165A097
:1036300001F049FD20684168A26A21F4003111437C
:10364000416094F82400800710D5E06A38B1B0F5E5
:10365000803F04D040F6E3415AA001F034FD2068D9
:103660004168E26A21F480311143416094F82400FA
:10367000400710D5206B38B1B0F5802F04D040F64C
:10368000EA4150A001F01FFD20684168226B21F43F
:1036900080211143416094F82400000710D5606B2D
:1036A00038B1B0F5004F04D040F6F14145A001F02B
:1036B0000AFD20684168626B21F4004111434160BA
:1036C00094F82400C00610D5A06B38B1B0F5805F27
:1036D00004D040F6F8413BA001F0F5FC2068816879
:1036E000A26B21F480511143816094F8240080067C
:1036F00010D5E06B38B1B0F5005F04D040F6FF4163
:1037000030A001F0E0FC20688168E26B21F40051F8
:103710001143816094F8240040063DD53849206863
:1037200088420DD0374988420AD03749884207D0AD
:103730003649884204D040F6065122A001F0C3FC6D
:10374000206C4FF4801530B1A84204D040F60751E8
:103750001CA001F0B8FC20684168226C21F48011A3
:1037600011434160206CA84216D1606C68B1B0F57D
:10377000001F0AD0B0F5800F07D0B0F5C00F04D0FD
:1037800040F60C510FA001F09EFC20684168626C6D
:1037900021F4C0011143416094F82400000610D5C3
:1037A000A06C38B1B0F5002F04D040F6145105A03C
:1037B00001F089FC20684168A26C21F400211143CA
:1037C000416070BD2E2E2F447269766572732F533F
:1037D000544D33324C3478785F48414C5F447269C1
:1037E0007665722F5372632F73746D33326C347835
:1037F000785F68616C5F756172742E630000000011
:10380000003801400044004000480040004C0040A7
:10381000F8B500260446C667FDF754F9054620684A
:1038200000686FF07E47000708D52B4600224FF452
:1038300000112046009700F0DBF960B920680068AD
:1038400040070AD52B4600224FF4800120460097FE
:1038500000F0CEF908B10320F8BD20206067A06712
:1038600084F870600020F8BD2DE9F04704464068F8
:10387000C4490027884204D340F6AB31C2A001F00E
:1038800022FCA0684FF48055B0F1805F07D030B1C2
:10389000A84204D040F6AC31BBA001F014FCDFF824
:1038A00024834FF4005120688E104045E06806D113
:1038B00000281AD0884218D040F6AF3112E0A84252
:1038C0000AD048B1B0F5405F06D0884204D040F637
:1038D000B331ADA001F0F7FB206A30B1B04204D0A3
:1038E00040F6B431A8A001F0EEFB20694FF48065EA
:1038F00048B1A84207D0B0F5C06F04D040F6B73148
:10390000A1A001F0E0FB606930F00C0100D120B90A
:1039100040F6B8319CA001F0D6FBA06968B1B0F5C3
:10392000807F0AD0B0F5007F07D0B0F5407F04D08B
:1039300040F6B93194A001F0C6FBE0694FF40049AC
:1039400030B1484504D040F6BA318FA001F0BBFB3E
:103950002169A068E269084361691143084321684D
:103960000A68994B1A4002430A6020684168E2687D
:1039700021F44051114341602168A069414501D0C3
:10398000226A10438A6822F4306202438A608F4AB6
:1039900021688F4891420DD1D0F8880010F00300C3
:1039A00006D0012852D002284ED003283DD14FE046
:1039B00001253BE0874A91420BD1D0F8880010F0F6
:1039C0000C003FD0042841D008283DD00C282CD131
:1039D0003EE0814A91420BD1D0F8880010F03000CF
:1039E00030D0102832D020282ED030281DD12FE002
:1039F0007A4A91420BD1D0F8880010F0C00021D053
:103A0000402823D080281FD0C0280ED120E0414577
:103A10000BD1D0F8880010F4406013D0A84215D024
:103A2000B04211D0B0F5406F12D010256C4800267E
:103A3000414547D175B1022D12D0042D0DD0082D6E
:103A400019D116E00025F1E70225EFE70425EDE79F
:103A50000825EBE7FEF7DCF801E0FEF7FDF880B3A0
:103A6000626802EB4201814205D8B0EB023F02D806
:103A700003E04846F4E7012771E0DFF868815DB1B3
:103A8000022D0CD0042D13D0082DF4D15008290597
:103A9000401846F1000105E0FEF7BAF80AE05008C8
:103AA0005149F5E70023FCF791FBA0F5407152E086
:103AB000FEF7D2F86268010E03025008181871412F
:103AC000F0E74CE0E2694FF6EF784A452CD1092D3A
:103AD000D1D2DFE805F006091F05220505052500FE
:103AE000C9E7FEF795F801E0FEF7A4F84100606829
:103AF00001EB5001B1FBF0F080B2A0F110014145A3
:103B0000B9D84FF6F0710140C0F34200014320687C
:103B1000C16024E035496068EAE7FEF79DF8E5E713
:103B20004FF480316068E3E7092DA4D2DFE805F0A7
:103B300006090B051C05050523009CE7FEF768F840
:103B400001E0FEF777F8616800EB5100B0FBF1F09F
:103B500080B2A0F1100141458DD82168C860266669
:103B600038466666BDE8F087FEF776F8014660687D
:103B700001EB500102E0606809EB5001B1FBF0F08D
:103B8000E6E70000819698002E2E2F447269766534
:103B900072732F53544D33324C3478785F48414C14
:103BA0005F4472697665722F5372632F73746D333D
:103BB000326C3478785F68616C5F756172742E6303
:103BC0000000000000800040F369FFEF0038014072
:103BD000001002400044004000480040004C0040FB
:103BE0000024F400FFFC0F00000024F40048E8016A
:103BF0002DE9F0479A4617460E4604464FF0000955
:103C00004FF02008089D39E0681C37D0FCF75AFFB8
:103C1000A0EB0A00A84222D80DB32068016849072A
:103C20002CD5C069C043000528D421684FF400603A
:103C300008622068016821F4D07101602068816801
:103C400021F001018160C4F87480C4F87880C4F860
:103C50007C8000BF84F870900320BDE8F087206866
:103C6000016821F4D07101602068816821F00101B0
:103C70008160C4F87480C4F87880EBE72068C0697C
:103C800036EA000004D00020B842BDD00020E4E7AE
:103C90000120F9E72DE9F041D0F8C032D0F8B82280
:103CA000CAB101EB810400EB84040025E6693EB152
:103CB00003EB41139B6BB6FBF3F703FB176323B1D5
:103CC000C2F814520020BDE8F08100231A46E561D5
:103CD00000F0B6FCF6E70220F5E770B50546D0F82F
:103CE000B84200F08CFBC4F80C02D5F8B80248B119
:103CF000D5F8BC12D4F80402CA6804F503719047E1
:103D0000002070BD022070BD70B5044600268121E0
:103D100000F0C1FA002501212046E56200F0BBFA5F
:103D200082212046C4F86C5100F0B5FA2564D4F81D
:103D3000B80248B1D4F8BC0204F52E74406880473C
:103D4000206800F054FE2560304670BD10B5D0E903
:103D5000AE4159B194F80002FF2807D08B6894F85F
:103D6000012221469847FF2084F80002002010BD60
:103D70000A2101800048704788000020432101800B
:103D800000487047D8000020432101800048704758
:103D90009400002043210180004870471C0100204E
:103DA0002DE9F04104460026007C4FF40077012500
:103DB00090B3402302228121204600F077FB40236C
:103DC000E56202220121204600F070FB0823032255
:103DD00082212046C4F86C5100F068FB4FF4077054
:103DE000256400F005FEC4F8B802F8B10546D4F821
:103DF000BC02006880470020C5F81402C5F818020C
:103E0000207CD5F8042298B140230121204600F0FF
:103E100060FB3046BDE8F081FFE73B46022281218E
:103E2000204600F043FB3B46E562CAE70126F0E787
:103E30003B46EAE710B5D0F8B81269B1027C002A17
:103E4000D1F8042205D04023012100F042FB0020DC
:103E500010BD4FF40073F7E7022010BD02460220A8
:103E6000002902D00020C2F8BC127047D0F8B80276
:103E7000C0F8041200207047D0F8B802C0F8102231
:103E8000C0F80812002070472DE9FC410546D0F823
:103E9000B87200208DF80000ADF8040006460878DE
:103EA0000C4610F0600121D020293BD1E288AAB154
:103EB0000006607807D5D5F8BC128B68394698475C
:103EC000E288394626E087F80002A07987F80102E7
:103ED000E2883946284600F06AF828E0D5F8BC1296
:103EE000607800228B682146984720E0607820B1F6
:103EF0000A2809D00B2815D110E095F89C02032858
:103F000010D1022201A905E095F89C02032809D1ED
:103F100001226946284600F064F808E095F89C0202
:103F2000032804D02146284600F036F80226304601
:103F3000BDE8FC8110B5D0F8B812A1B1D1F81422B7
:103F40000AB1012010BD0122C1F81422D1F81022BB
:103F50000263B1F8102293B2D1F80822812100F057
:103F60006FFB002010BD022010BD10B5D0F8B422A8
:103F700052689047002010BD134610B50A46002134
:103F800000F0A7FA002010BD134610B50A46002124
:103F900000F056FB002010BD10B50446802100F053
:103FA00026FB2046BDE81040002100F020BB10B5E4
:103FB0000323C0F85C21C0F89432C0F86021134696
:103FC0000A46002100F085FA002010BD10B5052139
:103FD0000023C0F894121A46194600F07AFA00201D
:103FE00010BD10B50223C261C0F8943202621346BC
:103FF0000A46002100F024FB002010BD10B504216A
:104000000023C0F894121A46194600F019FB00204C
:1040100010BD000010B50A46024903A000F0F2F8F6
:10402000004810BD800B002043444320436F6E6660
:1040300069670000122008800048704728000020AF
:1040400010B50A46024903A000F0DCF8004810BD94
:10405000800B002043444320496E7465726661639F
:1040600065000000042008800048704724000020FC
:1040700010B50A46024903A000F0C4F8004810BD7C
:10408000800B002053544D6963726F656C656374D7
:10409000726F6E696373000010B50A46024903A08F
:1040A00000F0B0F8004810BD800B002053544D3391
:1040B00032205669727475616C20436F6D506F7257
:1040C0007400000010B51A2008800A480168001D1D
:1040D0000468001D0068081809D008220649FEF788
:1040E0003FFD0549042210312046FEF739FD024804
:1040F000801E10BD9075FF1F4A0000200C20088014
:10410000004870473C000020F8B504460020ADF898
:10411000000048880D46010A062947D006DC01291F
:104120000FD0022912D003294BD11DE0072946D018
:104130000F2946D1D4F8B002C26920E06946904701
:104140003BE0D4F8B012207C0A68F7E7207C022616
:104150000028D4F8B40205D0C16A684688470146F1
:1041600046703BE0816AF8E7C0B2062829D2DFE852
:1041700000F003090D111519D4F8B002426802B31A
:10418000207CDBE7D4F8B0028268F8E7D4F8B0020C
:10419000C268F4E7D4F8B0020269F0E7D4F8B002DC
:1041A0004269ECE7D4F8B0028269E8E7207C40B9C4
:1041B000D4F8B402416B6846884701460EE0207C83
:1041C00020B129462046FFF7E7FEF8BDD4F8B40237
:1041D000016B68468847014607204870BDF800001B
:1041E00048B1EA8852B1824200D90246ADF80020B7
:1041F0002046FFF7F6FEE8880028E6D12046FFF7C4
:10420000FDFEF8BD70B5002300281ED00446002531
:1042100002E06D1CEDB2641C2678002EF9D1022458
:1042200004EB450414801278CA545B1C0322CA5460
:1042300000245B1C06E0CA545B1CDAB28C54521C8E
:10424000D3B2401C0278002AF5D170BD10B580B100
:10425000D0F8B43213B10023C0F8B43209B1C0F8B9
:10426000B012012180F89C12027000F0CDF80020FD
:1042700010BD022010BD10B50024D0F8C002FCF71C
:10428000C0FD30B1012801D0022801D0022400E095
:104290000124204610BD10B50024D0F8C002FCF760
:1042A0008CFD30B1012801D0022801D0022400E0A9
:1042B0000124204610BD2DE9F0411746044651B1B6
:1042C000D4F8B40242691AB194F89C02032851D080
:1042D0000220BDE8F081D4F89432002504F11400E6
:1042E000022B03D0042B3AD0C3B33CE0D0E90363E4
:1042F0009E4207D9F11AC1608AB239462046FFF7BB
:1043000043FE12E08068B0FBF3F103FB110199B9A1
:10431000984211D3D4F8981288420DD20022114647
:104320002046FFF731FEC4F8985200231A4619467A
:10433000204600F0CEF816E0D4F8B402C16829B1E6
:1043400094F89C02032801D120468847802120460A
:1043500000F04DF92046FFF739FE04E0FFE7802129
:10436000204600F044F994F8A002012804D184F812
:10437000A05201E0204690470020AAE770B51546FC
:10438000044649B1D4F8B40282691AB194F89C0287
:10439000032830D0022070BDD4F8941204F5AA701E
:1043A000032902D005291ED027E0D0E903218A4243
:1043B0000BD9531AC3600846834200D303469AB20E
:1043C00029462046FFF7D8FD17E0D4F8B40201696A
:1043D00029B194F89C02032801D120468847204641
:1043E000FFF70CFE09E000200146C4F894022046C5
:1043F00000F0FDF801E020469047002070BDD0F8A5
:10440000C002FCF72ABD000010B50446FDF70EF807
:104410001D491E48C1F87042C4F8C0120860082047
:104420004860022088600861002048618861C86196
:1044300008620846FCF760FE08B1FBF7D5FF0022D2
:10444000D4F8C0021823114604F53074FCF78CFC34
:104450005823002280212068FCF786FCC02300221C
:1044600081212068FCF780FC4FF488730022012131
:104470002068FCF779FC4FF48073002282212068C9
:10448000FCF772FC002010BD0C0900200068004001
:104490000A06D0F8C00201F07F0100EB411002D5FE
:1044A00090F82A00704790F82A01704770B51D46B1
:1044B00013460024D0F8C0022A46FCF7D5FC30B1E0
:1044C000012801D0022801D0022400E00124204666
:1044D00070BD10B50024D0F8C002FCF7F3FC30B179
:1044E000012801D0022801D0022400E00124204646
:1044F00010BD70B50022044640231146FFF7D6FFD9
:1045000040260125C4F864613346002280212046FC
:10451000C4F85851FFF7CAFF6662A56184F89C523F
:104520000020C4F894026060C4F8A402D4F8B80271
:1045300028B1D4F8B40200214268204690470020F8
:1045400070BD90F89C12042903D190F89D1280F858
:104550009C120020704710B590F89C12032904D1DA
:10456000D0F8B412C96901B18847002010BD0174A8
:104570000020704710B50024D0F8C002FCF7B8FE48
:1045800030B1012801D0022801D0022400E001242A
:10459000204610BD70B5044600F52A70054600F0AF
:1045A0005FF80120C4F89402B4F8AE02C4F898028F
:1045B00094F8A80210F01F010AD001290DD0022999
:1045C00010D000F08001204600F011F8002070BDEE
:1045D0002946204600F0B3F8F8E72946204600F0C7
:1045E000DFF9F3E72946204600F032F9EEE710B58F
:1045F0000024D0F8C002FCF77CFC30B1012801D0C7
:10460000022801D0022400E00124204610BD10B58C
:104610000024D0F8C002FCF786FE30B1012801D09A
:10462000022801D0022400E00124204610BD90F8A9
:104630009C1280F89D12042180F89C120020704783
:1046400010B50024D0F8C002FCF788FC30B1012876
:1046500001D0022801D0022400E00124204610BD30
:104660000A7802704A7842708A78CB7802EB03228B
:1046700042800A794B7902EB032282808A79C979D8
:1046800002EB0121C18070470246002011B1C2F83F
:10469000B41270470220704710B5D0F8B42202243B
:1046A0001AB11268904700B90024204610BD0000DE
:1046B00070B50E461E4D897804462970012931D8FF
:1046C00094F89C0202280BD003280FD031462046D4
:1046D000FFF762FC29782046BDE87040FFF745BC33
:1046E000D9B10320616084F89C0209E071B160686F
:1046F000884212D0C1B22046FFF737FC29786160AA
:104700002046FFF7C9FF02280CD006E0022084F8FB
:104710009C0220466160FFF728FC2046BDE87040FF
:10472000FFF76CBC31462046BDE87040FFF734BC53
:104730008400002010B5FFF76AFF002010BD2DE9AE
:10474000F0410A78002612F0600208D0202A01D039
:10475000402A70D1D0F8B422926890476DE04B782F
:10476000002201250A2B66D2DFE803F0405D655781
:10477000650805652C29FFF7C7FC5EE004468888BC
:10478000D8B9C888C8B94888802816D200F07F07F1
:1047900094F89C02032810D084F89E723946204673
:1047A000FFF7E8FE2046FFF729FC1FB1022084F83E
:1047B0009C0242E084F89C523FE020463BE0FFF739
:1047C00077FF3AE0CB88012B35D190F89C32012B52
:1047D00004D0022B02D0032B2DD104E082600122F1
:1047E00000F1080116E00122011D13E090F89C225F
:1047F000012A03D0022A01D0032A1CD1CA88022A26
:1048000019D1C560D0F8A41209B10321C1600222F8
:1048100000F10C01FFF7E5FB0FE0498801290CD1FD
:10482000C0F8A45211E090F89C32012B08D0022B62
:1048300006D0032B04D0FFF7AFFB3046BDE8F08174
:1048400049880129F9D1C0F8A422FFF7D7FBF4E782
:104850002DE9F0410A46044610780027097910F046
:1048600060030AD0202B01D0402B50D1D4F8B402E1
:1048700011468368204698478FE0C0F34110012815
:1048800006D05078D0B301282AD003283FD107E0C2
:10489000D4F8B402114683682046BDE8F0411847B9
:1048A00094F89C02022802D0032872D10AE071B366
:1048B00080296ED02046FFF79AFE80212046FFF720
:1048C00096FE6AE0508838B931B1802904D0D0888A
:1048D00010B92046FFF78BFE2046FFF78FFB5CE008
:1048E00094F89C020228E2D0032852D1508898BB49
:1048F0004806F1D02046FFF7BEFCEDE7FFE794F84D
:104900009C020026022803D0032842D112E040E096
:1049100009B180293DD1080601F07F0000EB80003D
:1049200004EB800101D5143101E001F5AA710222E6
:104930000E602AE0080601F00F0000EB800004EB97
:1049400080000AD5806920B301F07F0000EB800071
:1049500004EB800514350BE01FE0D0F85801C0B11E
:1049600001F07F0000EB800004EB800505F5AA75DF
:1049700041B1802906D02046FFF78AFD10B1012001
:10498000286000E02E60022229462046FFF729FB1E
:1049900003E011462046FFF7FFFA3846BDE8F081F4
:1049A00070B5054608780C4610F0600003D020284A
:1049B00001D0402816D195F89C02012803D0022886
:1049C00001D003280ED1207901280BD8D5F8B402E4
:1049D000826828469047E188014306D12846FFF7C0
:1049E0000DFB02E02846FFF7D7FA002070BD7047A4
:1049F00000487047EC0600202DE9F0470C784FF096
:104A0000000C30F8243048F68F121340CA78002A80
:104A10007DD0012A7CD0022A03D0032A79D04FF01E
:104A2000010C48F28002134320F824300D7830F84E
:104A3000254048F68F731C402C43144320F8254032
:104A40000F7B48F6BF744BF68F7948F2C0054CF2E5
:104A50008006EFB391F80080C24630F8287048F223
:104A600080181F4047EA080720F82A70B0F85070F5
:104A700091F80080074407EBC807B1F8088028F0D8
:104A80000108A7F80084B0F8507091F8008007443E
:104A900007EBC807B1F80A8028F00108A7F80484DA
:104AA0004F7891F80080002F30F828704FEA474780
:104AB0007ED0002F05DA30F828701F40374320F8E9
:104AC00028700F7830F827805FEA486809D500E041
:104AD00033E030F8278008EA030848EA050820F8A0
:104AE00027800F7830F827501D40354320F8275095
:104AF000CB780D78012B30F8253003EA040301D080
:104B000083F02003134320F825300B7802E00BE0FC
:104B100010E00CE030F8231001EA0901114320F8FD
:104B200023106046BDE8F08743F4007379E743F44F
:104B3000C06376E743F4806373E74F7827B3B0F838
:104B400050600F78064406EBC706CF8827F00107B0
:104B5000A6F800740F7830F82760760605D530F88F
:104B600027601E402E4320F82760CB78012B06D00B
:104B70000B7830F82310214081F02001CEE70B782C
:104B800030F823102140C9E7B0F850400D780444B4
:104B900004EBC504CD8825F00105A4F80454B0F851
:104BA00050400D78044404EBC50404F2064400E0D0
:104BB00030E00D6955B13E2D10D86F08ED0700D0DB
:104BC0007F1C4FF6FF7505EA87250FE0258825F441
:104BD000F8452580258845F4004507E06F09ED0676
:104BE00000D17F1E4FF4004545EA872525800D78CA
:104BF00030F82540640405D530F825401C40344386
:104C000020F825400B7830F8231001EA090181F4DF
:104C1000405183E7002F05DA30F828701F403743F2
:104C200020F828700E7830F826707F0605D530F809
:104C300026701F402F4320F826700F7830F8276029
:104C40001E402E4320F827600D7830F8253003EA07
:104C5000090383F44053134320F825308FE70020E5
:104C600070472DE9F04391F80C804F780A7848F6A8
:104C7000BF7C4BF68F7948F2800348F2C0054CF2B6
:104C8000800648F68F74B8F1000F28D0002F30F856
:104C900022704FEA474748D0002F05DA30F82270DB
:104CA0002740374320F822700A7830F822707F06B8
:104CB00005D530F8227027402F4320F822700D7858
:104CC00030F825202240324320F825200C7830F897
:104CD000242002EA0C021A4320F824201AE07FB1B3
:104CE00030F82260760605D530F8226026402E4343
:104CF00020F822600A7830F8221001EA0C010EE058
:104D000030F822506D0405D530F822502540354347
:104D100020F822500A7830F8221001EA09011943DC
:104D200020F822100020BDE8F083002F05DA30F8CB
:104D300022702740374320F822700A7830F822602A
:104D4000760605D530F8226026402E4320F82260F2
:104D50000E7830F8262022402A4320F826200C78AE
:104D600030F8242002EA09021A4320F82420C1E77F
:104D700030F8581F41F4004101800020704730F89E
:104D8000581FC1F30E0101800020704700B50121BA
:104D9000A0F840100021A0F84010A0F84410A0F89E
:104DA000501000F02FF9002000BD30F8401F4BF6E6
:104DB000807291430180002070470020704730B519
:104DC0000A7BB2BB4A7848F68F7548F28004C2B1BC
:104DD0000B7830F82320520607D530F823202A40DC
:104DE00048F2C0052A4320F82320CA78012A20D09F
:104DF0000A7830F8221048F6BF73194081F020017C
:104E000014E00A7830F822305B0407D530F82230FD
:104E10002B404CF280052B4320F822300A7830F8E2
:104E200022104BF68F73194081F44051214320F832
:104E30002210002030BD10B54A780978002A48F2C7
:104E4000800330F8212005D048F6BF74224082F05C
:104E5000100204E04BF68F74224082F480521A4311
:104E600020F82120002010BDF0B50E46054691F82F
:104E700001C00022097B3469B06948F28007BCF1A7
:104E8000010F04D0A0424FD9001BB0614EE0A042F8
:104E900002D9001BB06101E00446B26169B130780B
:104EA00035F820104906B5F85010294401EBC00030
:104EB00012D5A0F80644728911E0A3B2F288284600
:104EC000716900F0CDF8B5F850003178284400EB56
:104ED000C100A0F802441EE0A0F802443289A3B247
:104EE0002846716900F0BCF8707848F68F7110B1EF
:104EF000012807D00FE0327835F82200084048F248
:104F0000C00105E0327835F8220008404CF28001FB
:104F1000084325F82200317835F8210048F6BF72A1
:104F2000104080F0300068E00446B2614FF6FF7236
:104F30004FF4004381B3BCF1000F15D027E0018886
:104F400021F4F8410180018841F400410AE03E2C3F
:104F50003ED86108E30700D0491C02EA812101E044
:104F600043EA8121018040E0B5F8500031782844BF
:104F700000EBC10000F202407CB13E2C15D8610864
:104F80005FEAC47C00D0491C02EA8121018070786C
:104F900010B1012821D028E00FE0018821F4F84168
:104FA0000180018841F40041F0E761095FEAC46CC7
:104FB00000D1491E43EA8121E8E7B5F85000317875
:104FC000284400EBC10000F20640002CBFD1B6E738
:104FD0006109E206C4D1491EC2E7B5F8501048196C
:104FE000317800EBC100A0F80644317835F8210093
:104FF0004BF68F72104080F44050384325F8210062
:105000000020F0BD30F8401F4BF680721143018044
:10501000002070470148FBF7B6BF00000C090020D4
:10502000B0F84400704710B510445C0800F580608B
:1050300008D030F8022B01F8012B120A01F8012BDD
:10504000641EF6D1DA0701D00088087010BD002078
:10505000704711B98021A0F84C1000207047000063
:1050600010B55B1C10445B0800F580600AD000BFDF
:1050700011F8012B11F8014B42EA042220F8022B0F
:105080005B1EF5D110BDFEE70907090E002804DB01
:1050900000F1E02080F80014704700F00F0000F1EC
:1050A000E02080F8141D704702E008C8121F08C1F4
:1050B000002AFAD170477047002001E001C1121F99
:1050C000002AFBD17047704710B5002821D0114B42
:1050D0000022001F196803E0814203D80A4649688C
:1050E0000029F9D152B11368841A9C4204D1006896
:1050F00018441060104602E0506000E0186039B1BA
:1051000002680B1A934203D10B681A440260496883
:10511000416010BD9801002008B5FBF7E1FCFEF7E7
:1051200007FAFDF739FD2348816C41F001018164E4
:10513000806C002200F00100009011460C20FBF76B
:105140004FFD0C20FBF71AFD002201210D20FBF77B
:1051500047FD0D20FBF712FDFDF7A4FDFDF7B8FD9F
:10516000FDF780FD144A8023A2F18001A1F1FC002B
:10517000FDF714FB10488C3800F035F80E489838CD
:1051800000F031F80D4C0C488C3800F029F80A4931
:105190002080034680390022A1F10C0000F010F8B5
:1051A000054821888038FBF7E5F803488C3800F083
:1051B0001FF8E8E70010024018030020000000205C
:1051C000F0B400680D46D618848880688118A6421D
:1051D00001D81A4600E0A21A2846F0BCFBF727B80F
:1051E00000688088704700210160416081607047DD
:1051F0008168491E816001680A6802600846FFF7FD
:1052000063BF000000000000000000000102030472
:1052100006070809A0860100400D0300801A060059
:1052200000350C0040420F0080841E0000093D0044
:1052300000127A000024F40000366E010048E801F4
:10524000006CDC0200000000010203046C52000844
:10525000000000209C010000D80200083C53000818
:105260009C010020E41F0000B850000841133540A5
:105270001B0865041A71041A99041AC5041A150446
:105280001A41041AFD04100B04030904120101025F
:10529000020216408304405726020102030114054E
:1052A0000F0C1C0107101721031A1A031339031BD3
:1052B0000835041A31041A5D043210193F6153098C
:1052C0003D130A0629472A40181C09024363111D91
:1052D000C0320904291A020B1305241610010524F3
:1052E0000118090104240202052406781505820329
:1052F00008151009040133020A1D07050102432C99
:10530000070581070938442A40072A8107112B091C
:1053100007440A3B044413A13D1A08E31408893EDC
:1053200042081A4D0C13953C1B08DB04C11A89185E
:0C5330002A7D1C19041A710441000000C1
:040000050800019559
:00000001FF
